{
  "contractName": "DankFlair",
  "abi": [
    {
      "inputs": [],
      "stateMutability": "nonpayable",
      "type": "constructor"
    },
    {
      "anonymous": false,
      "inputs": [
        {
          "indexed": false,
          "internalType": "address",
          "name": "previousAdmin",
          "type": "address"
        },
        {
          "indexed": false,
          "internalType": "address",
          "name": "newAdmin",
          "type": "address"
        }
      ],
      "name": "AdminChanged",
      "type": "event"
    },
    {
      "anonymous": false,
      "inputs": [
        {
          "indexed": true,
          "internalType": "address",
          "name": "owner",
          "type": "address"
        },
        {
          "indexed": true,
          "internalType": "address",
          "name": "approved",
          "type": "address"
        },
        {
          "indexed": true,
          "internalType": "uint256",
          "name": "tokenId",
          "type": "uint256"
        }
      ],
      "name": "Approval",
      "type": "event"
    },
    {
      "anonymous": false,
      "inputs": [
        {
          "indexed": true,
          "internalType": "address",
          "name": "owner",
          "type": "address"
        },
        {
          "indexed": true,
          "internalType": "address",
          "name": "operator",
          "type": "address"
        },
        {
          "indexed": false,
          "internalType": "bool",
          "name": "approved",
          "type": "bool"
        }
      ],
      "name": "ApprovalForAll",
      "type": "event"
    },
    {
      "anonymous": false,
      "inputs": [
        {
          "indexed": true,
          "internalType": "address",
          "name": "beacon",
          "type": "address"
        }
      ],
      "name": "BeaconUpgraded",
      "type": "event"
    },
    {
      "anonymous": false,
      "inputs": [
        {
          "indexed": true,
          "internalType": "address",
          "name": "previousOwner",
          "type": "address"
        },
        {
          "indexed": true,
          "internalType": "address",
          "name": "newOwner",
          "type": "address"
        }
      ],
      "name": "OwnershipTransferred",
      "type": "event"
    },
    {
      "anonymous": false,
      "inputs": [
        {
          "indexed": true,
          "internalType": "address",
          "name": "from",
          "type": "address"
        },
        {
          "indexed": true,
          "internalType": "address",
          "name": "to",
          "type": "address"
        },
        {
          "indexed": true,
          "internalType": "uint256",
          "name": "tokenId",
          "type": "uint256"
        }
      ],
      "name": "Transfer",
      "type": "event"
    },
    {
      "anonymous": false,
      "inputs": [
        {
          "indexed": true,
          "internalType": "address",
          "name": "implementation",
          "type": "address"
        }
      ],
      "name": "Upgraded",
      "type": "event"
    },
    {
      "inputs": [
        {
          "internalType": "address",
          "name": "to",
          "type": "address"
        },
        {
          "internalType": "uint256",
          "name": "tokenId",
          "type": "uint256"
        }
      ],
      "name": "approve",
      "outputs": [],
      "stateMutability": "nonpayable",
      "type": "function"
    },
    {
      "inputs": [
        {
          "internalType": "address",
          "name": "owner",
          "type": "address"
        }
      ],
      "name": "balanceOf",
      "outputs": [
        {
          "internalType": "uint256",
          "name": "",
          "type": "uint256"
        }
      ],
      "stateMutability": "view",
      "type": "function"
    },
    {
      "inputs": [
        {
          "internalType": "uint256",
          "name": "tokenId",
          "type": "uint256"
        }
      ],
      "name": "burn",
      "outputs": [],
      "stateMutability": "nonpayable",
      "type": "function"
    },
    {
      "inputs": [
        {
          "internalType": "uint256",
          "name": "tokenId",
          "type": "uint256"
        }
      ],
      "name": "getApproved",
      "outputs": [
        {
          "internalType": "address",
          "name": "",
          "type": "address"
        }
      ],
      "stateMutability": "view",
      "type": "function"
    },
    {
      "inputs": [
        {
          "internalType": "address",
          "name": "owner",
          "type": "address"
        },
        {
          "internalType": "address",
          "name": "operator",
          "type": "address"
        }
      ],
      "name": "isApprovedForAll",
      "outputs": [
        {
          "internalType": "bool",
          "name": "",
          "type": "bool"
        }
      ],
      "stateMutability": "view",
      "type": "function"
    },
    {
      "inputs": [],
      "name": "name",
      "outputs": [
        {
          "internalType": "string",
          "name": "",
          "type": "string"
        }
      ],
      "stateMutability": "view",
      "type": "function"
    },
    {
      "inputs": [],
      "name": "owner",
      "outputs": [
        {
          "internalType": "address",
          "name": "",
          "type": "address"
        }
      ],
      "stateMutability": "view",
      "type": "function"
    },
    {
      "inputs": [
        {
          "internalType": "uint256",
          "name": "tokenId",
          "type": "uint256"
        }
      ],
      "name": "ownerOf",
      "outputs": [
        {
          "internalType": "address",
          "name": "",
          "type": "address"
        }
      ],
      "stateMutability": "view",
      "type": "function"
    },
    {
      "inputs": [],
      "name": "renounceOwnership",
      "outputs": [],
      "stateMutability": "nonpayable",
      "type": "function"
    },
    {
      "inputs": [
        {
          "internalType": "address",
          "name": "from",
          "type": "address"
        },
        {
          "internalType": "address",
          "name": "to",
          "type": "address"
        },
        {
          "internalType": "uint256",
          "name": "tokenId",
          "type": "uint256"
        }
      ],
      "name": "safeTransferFrom",
      "outputs": [],
      "stateMutability": "nonpayable",
      "type": "function"
    },
    {
      "inputs": [
        {
          "internalType": "address",
          "name": "from",
          "type": "address"
        },
        {
          "internalType": "address",
          "name": "to",
          "type": "address"
        },
        {
          "internalType": "uint256",
          "name": "tokenId",
          "type": "uint256"
        },
        {
          "internalType": "bytes",
          "name": "_data",
          "type": "bytes"
        }
      ],
      "name": "safeTransferFrom",
      "outputs": [],
      "stateMutability": "nonpayable",
      "type": "function"
    },
    {
      "inputs": [
        {
          "internalType": "address",
          "name": "operator",
          "type": "address"
        },
        {
          "internalType": "bool",
          "name": "approved",
          "type": "bool"
        }
      ],
      "name": "setApprovalForAll",
      "outputs": [],
      "stateMutability": "nonpayable",
      "type": "function"
    },
    {
      "inputs": [
        {
          "internalType": "bytes4",
          "name": "interfaceId",
          "type": "bytes4"
        }
      ],
      "name": "supportsInterface",
      "outputs": [
        {
          "internalType": "bool",
          "name": "",
          "type": "bool"
        }
      ],
      "stateMutability": "view",
      "type": "function"
    },
    {
      "inputs": [],
      "name": "symbol",
      "outputs": [
        {
          "internalType": "string",
          "name": "",
          "type": "string"
        }
      ],
      "stateMutability": "view",
      "type": "function"
    },
    {
      "inputs": [
        {
          "internalType": "uint256",
          "name": "tokenId",
          "type": "uint256"
        }
      ],
      "name": "tokenURI",
      "outputs": [
        {
          "internalType": "string",
          "name": "",
          "type": "string"
        }
      ],
      "stateMutability": "view",
      "type": "function"
    },
    {
      "inputs": [
        {
          "internalType": "address",
          "name": "from",
          "type": "address"
        },
        {
          "internalType": "address",
          "name": "to",
          "type": "address"
        },
        {
          "internalType": "uint256",
          "name": "tokenId",
          "type": "uint256"
        }
      ],
      "name": "transferFrom",
      "outputs": [],
      "stateMutability": "nonpayable",
      "type": "function"
    },
    {
      "inputs": [
        {
          "internalType": "address",
          "name": "newOwner",
          "type": "address"
        }
      ],
      "name": "transferOwnership",
      "outputs": [],
      "stateMutability": "nonpayable",
      "type": "function"
    },
    {
      "inputs": [
        {
          "internalType": "address",
          "name": "newImplementation",
          "type": "address"
        }
      ],
      "name": "upgradeTo",
      "outputs": [],
      "stateMutability": "nonpayable",
      "type": "function"
    },
    {
      "inputs": [
        {
          "internalType": "address",
          "name": "newImplementation",
          "type": "address"
        },
        {
          "internalType": "bytes",
          "name": "data",
          "type": "bytes"
        }
      ],
      "name": "upgradeToAndCall",
      "outputs": [],
      "stateMutability": "payable",
      "type": "function"
    },
    {
      "inputs": [],
      "name": "initialize",
      "outputs": [],
      "stateMutability": "nonpayable",
      "type": "function"
    },
    {
      "inputs": [
        {
          "internalType": "address",
          "name": "to",
          "type": "address"
        }
      ],
      "name": "safeMint",
      "outputs": [],
      "stateMutability": "nonpayable",
      "type": "function"
    },
    {
      "inputs": [
        {
          "internalType": "address",
          "name": "to",
          "type": "address"
        },
        {
          "internalType": "uint64",
          "name": "iterations",
          "type": "uint64"
        }
      ],
      "name": "safeMintBatch",
      "outputs": [],
      "stateMutability": "nonpayable",
      "type": "function"
    }
  ],
  "bytecode": "0x60a06040523060601b60805234801561001757600080fd5b50600054610100900460ff1680610031575060005460ff16155b6100985760405162461bcd60e51b815260206004820152602e60248201527f496e697469616c697a61626c653a20636f6e747261637420697320616c72656160448201526d191e481a5b9a5d1a585b1a5e995960921b606482015260840160405180910390fd5b600054610100900460ff161580156100c3576000805460ff1961ff0019909116610100171660011790555b80156100d5576000805461ff00191690555b5060805160601c61250f6200010a6000396000818161070501528181610745015281816108ac01526108ec015261250f6000f3fe6080604052600436106101355760003560e01c806370a08231116100ab578063a22cb4651161006f578063a22cb46514610349578063b88d4fde14610369578063c87b56dd14610389578063e985e9c5146103a9578063ebb10cd0146103f2578063f2fde38b1461041257610135565b806370a08231146102be578063715018a6146102ec5780638129fc1c146103015780638da5cb5b1461031657806395d89b411461033457610135565b80633659cfe6116100fd5780633659cfe61461020b57806340d097c31461022b57806342842e0e1461024b57806342966c681461026b5780634f1ef2861461028b5780636352211e1461029e57610135565b806301ffc9a71461013a57806306fdde031461016f578063081812fc14610191578063095ea7b3146101c957806323b872dd146101eb575b600080fd5b34801561014657600080fd5b5061015a610155366004612084565b610432565b60405190151581526020015b60405180910390f35b34801561017b57600080fd5b50610184610486565b6040516101669190612188565b34801561019d57600080fd5b506101b16101ac3660046120bc565b610518565b6040516001600160a01b039091168152602001610166565b3480156101d557600080fd5b506101e96101e4366004612024565b6105b2565b005b3480156101f757600080fd5b506101e9610206366004611efd565b6106c8565b34801561021757600080fd5b506101e9610226366004611eb1565b6106fa565b34801561023757600080fd5b506101e9610246366004611eb1565b6107c3565b34801561025757600080fd5b506101e9610266366004611efd565b61080f565b34801561027757600080fd5b506101e96102863660046120bc565b61082a565b6101e9610299366004611fd8565b6108a1565b3480156102aa57600080fd5b506101b16102b93660046120bc565b61095b565b3480156102ca57600080fd5b506102de6102d9366004611eb1565b6109d2565b604051908152602001610166565b3480156102f857600080fd5b506101e9610a59565b34801561030d57600080fd5b506101e9610a8f565b34801561032257600080fd5b5060c9546001600160a01b03166101b1565b34801561034057600080fd5b50610184610b63565b34801561035557600080fd5b506101e9610364366004611f9e565b610b72565b34801561037557600080fd5b506101e9610384366004611f38565b610c44565b34801561039557600080fd5b506101846103a43660046120bc565b610c7c565b3480156103b557600080fd5b5061015a6103c4366004611ecb565b6001600160a01b039182166000908152606a6020908152604080832093909416825291909152205460ff1690565b3480156103fe57600080fd5b506101e961040d36600461204d565b610d89565b34801561041e57600080fd5b506101e961042d366004611eb1565b610e01565b60006001600160e01b031982166380ac58cd60e01b148061046357506001600160e01b03198216635b5e139f60e01b145b8061047e57506301ffc9a760e01b6001600160e01b03198316145b90505b919050565b606060658054610495906123c8565b80601f01602080910402602001604051908101604052809291908181526020018280546104c1906123c8565b801561050e5780601f106104e35761010080835404028352916020019161050e565b820191906000526020600020905b8154815290600101906020018083116104f157829003601f168201915b5050505050905090565b6000818152606760205260408120546001600160a01b03166105965760405162461bcd60e51b815260206004820152602c60248201527f4552433732313a20617070726f76656420717565727920666f72206e6f6e657860448201526b34b9ba32b73a103a37b5b2b760a11b60648201526084015b60405180910390fd5b506000908152606960205260409020546001600160a01b031690565b60006105bd8261095b565b9050806001600160a01b0316836001600160a01b0316141561062b5760405162461bcd60e51b815260206004820152602160248201527f4552433732313a20617070726f76616c20746f2063757272656e74206f776e656044820152603960f91b606482015260840161058d565b336001600160a01b0382161480610647575061064781336103c4565b6106b95760405162461bcd60e51b815260206004820152603860248201527f4552433732313a20617070726f76652063616c6c6572206973206e6f74206f7760448201527f6e6572206e6f7220617070726f76656420666f7220616c6c0000000000000000606482015260840161058d565b6106c38383610e99565b505050565b6106d3335b82610f07565b6106ef5760405162461bcd60e51b815260040161058d90612308565b6106c3838383610ffe565b306001600160a01b037f00000000000000000000000000000000000000000000000000000000000000001614156107435760405162461bcd60e51b815260040161058d906121ed565b7f00000000000000000000000000000000000000000000000000000000000000006001600160a01b031661077561119e565b6001600160a01b03161461079b5760405162461bcd60e51b815260040161058d90612239565b6107a4816111cc565b604080516000808252602082019092526107c0918391906111f6565b50565b60c9546001600160a01b031633146107ed5760405162461bcd60e51b815260040161058d906122d3565b610800816107fb61015f5490565b611341565b6107c061015f80546001019055565b6106c383838360405180602001604052806000815250610c44565b610833336106cd565b6108985760405162461bcd60e51b815260206004820152603060248201527f4552433732314275726e61626c653a2063616c6c6572206973206e6f74206f7760448201526f1b995c881b9bdc88185c1c1c9bdd995960821b606482015260840161058d565b6107c08161135b565b306001600160a01b037f00000000000000000000000000000000000000000000000000000000000000001614156108ea5760405162461bcd60e51b815260040161058d906121ed565b7f00000000000000000000000000000000000000000000000000000000000000006001600160a01b031661091c61119e565b6001600160a01b0316146109425760405162461bcd60e51b815260040161058d90612239565b61094b826111cc565b610957828260016111f6565b5050565b6000818152606760205260408120546001600160a01b03168061047e5760405162461bcd60e51b815260206004820152602960248201527f4552433732313a206f776e657220717565727920666f72206e6f6e657869737460448201526832b73a103a37b5b2b760b91b606482015260840161058d565b60006001600160a01b038216610a3d5760405162461bcd60e51b815260206004820152602a60248201527f4552433732313a2062616c616e636520717565727920666f7220746865207a65604482015269726f206164647265737360b01b606482015260840161058d565b506001600160a01b031660009081526068602052604090205490565b60c9546001600160a01b03163314610a835760405162461bcd60e51b815260040161058d906122d3565b610a8d60006113f6565b565b600054610100900460ff1680610aa8575060005460ff16155b610ac45760405162461bcd60e51b815260040161058d90612285565b600054610100900460ff16158015610aef576000805460ff1961ff0019909116610100171660011790555b610b376040518060400160405280600a8152602001692230b73590233630b4b960b11b8152506040518060400160405280600481526020016344414e4b60e01b815250611448565b610b3f6114d8565b610b47611550565b610b4f6115c0565b80156107c0576000805461ff001916905550565b606060668054610495906123c8565b6001600160a01b038216331415610bcb5760405162461bcd60e51b815260206004820152601960248201527f4552433732313a20617070726f766520746f2063616c6c657200000000000000604482015260640161058d565b336000818152606a602090815260408083206001600160a01b0387168085529252909120805460ff1916841515179055906001600160a01b03167f17307eab39ab6107e8899845ad3d59bd9653f200f220920489ca2b5937696c3183604051610c38911515815260200190565b60405180910390a35050565b610c4e3383610f07565b610c6a5760405162461bcd60e51b815260040161058d90612308565b610c7684848484611627565b50505050565b6000818152606760205260409020546060906001600160a01b0316610cfb5760405162461bcd60e51b815260206004820152602f60248201527f4552433732314d657461646174613a2055524920717565727920666f72206e6f60448201526e3732bc34b9ba32b73a103a37b5b2b760891b606482015260840161058d565b6000610d376040805180820190915260208082527f68747470733a2f2f64616e6b666c6169722e636c6f75642f6170692f6e66742f9082015290565b90506000815111610d575760405180602001604052806000815250610d82565b80610d618461165a565b604051602001610d7292919061211c565b6040516020818303038152906040525b9392505050565b60c9546001600160a01b03163314610db35760405162461bcd60e51b815260040161058d906122d3565b60005b8167ffffffffffffffff168167ffffffffffffffff1610156106c357610de0836107fb61015f5490565b610def61015f80546001019055565b80610df98161241e565b915050610db6565b60c9546001600160a01b03163314610e2b5760405162461bcd60e51b815260040161058d906122d3565b6001600160a01b038116610e905760405162461bcd60e51b815260206004820152602660248201527f4f776e61626c653a206e6577206f776e657220697320746865207a65726f206160448201526564647265737360d01b606482015260840161058d565b6107c0816113f6565b600081815260696020526040902080546001600160a01b0319166001600160a01b0384169081179091558190610ece8261095b565b6001600160a01b03167f8c5be1e5ebec7d5bd14f71427d1e84f3dd0314c0f7b2291e5b200ac8c7c3b92560405160405180910390a45050565b6000818152606760205260408120546001600160a01b0316610f805760405162461bcd60e51b815260206004820152602c60248201527f4552433732313a206f70657261746f7220717565727920666f72206e6f6e657860448201526b34b9ba32b73a103a37b5b2b760a11b606482015260840161058d565b6000610f8b8361095b565b9050806001600160a01b0316846001600160a01b03161480610fc65750836001600160a01b0316610fbb84610518565b6001600160a01b0316145b80610ff657506001600160a01b038082166000908152606a602090815260408083209388168352929052205460ff165b949350505050565b826001600160a01b03166110118261095b565b6001600160a01b0316146110795760405162461bcd60e51b815260206004820152602960248201527f4552433732313a207472616e73666572206f6620746f6b656e2074686174206960448201526839903737ba1037bbb760b91b606482015260840161058d565b6001600160a01b0382166110db5760405162461bcd60e51b8152602060048201526024808201527f4552433732313a207472616e7366657220746f20746865207a65726f206164646044820152637265737360e01b606482015260840161058d565b6110e6600082610e99565b6001600160a01b038316600090815260686020526040812080546001929061110f908490612385565b90915550506001600160a01b038216600090815260686020526040812080546001929061113d908490612359565b909155505060008181526067602052604080822080546001600160a01b0319166001600160a01b0386811691821790925591518493918716917fddf252ad1be2c89b69c2b068fc378daa952ba7f163c4a11628f55a4df523b3ef91a4505050565b7f360894a13ba1a3210667c828492db98dca3e2076cc3735a920a3ca505d382bbc546001600160a01b031690565b60c9546001600160a01b031633146107c05760405162461bcd60e51b815260040161058d906122d3565b600061120061119e565b905061120b84611775565b6000835111806112185750815b1561122957611227848461181a565b505b7f4910fdfa16fed3260ed0e7147f7cc6da11a60208b5b9406d12a635614ffd9143805460ff1661133a57805460ff191660011781556040516001600160a01b03831660248201526112a890869060440160408051601f198184030181529190526020810180516001600160e01b0316631b2ce7f360e11b17905261181a565b50805460ff191681556112b961119e565b6001600160a01b0316826001600160a01b0316146113315760405162461bcd60e51b815260206004820152602f60248201527f45524331393637557067726164653a207570677261646520627265616b73206660448201526e75727468657220757067726164657360881b606482015260840161058d565b61133a85611905565b5050505050565b610957828260405180602001604052806000815250611945565b60006113668261095b565b9050611373600083610e99565b6001600160a01b038116600090815260686020526040812080546001929061139c908490612385565b909155505060008281526067602052604080822080546001600160a01b0319169055518391906001600160a01b038416907fddf252ad1be2c89b69c2b068fc378daa952ba7f163c4a11628f55a4df523b3ef908390a45050565b60c980546001600160a01b038381166001600160a01b0319831681179093556040519116919082907f8be0079c531659141344cd1fd0a4f28419497f9722a3daafe3b4186f6b6457e090600090a35050565b600054610100900460ff1680611461575060005460ff16155b61147d5760405162461bcd60e51b815260040161058d90612285565b600054610100900460ff161580156114a8576000805460ff1961ff0019909116610100171660011790555b6114b0611978565b6114b8611978565b6114c283836119eb565b80156106c3576000805461ff0019169055505050565b600054610100900460ff16806114f1575060005460ff16155b61150d5760405162461bcd60e51b815260040161058d90612285565b600054610100900460ff16158015611538576000805460ff1961ff0019909116610100171660011790555b611540611978565b611548611978565b610b4f611978565b600054610100900460ff1680611569575060005460ff16155b6115855760405162461bcd60e51b815260040161058d90612285565b600054610100900460ff161580156115b0576000805460ff1961ff0019909116610100171660011790555b6115b8611978565b610b4f611a89565b600054610100900460ff16806115d9575060005460ff16155b6115f55760405162461bcd60e51b815260040161058d90612285565b600054610100900460ff16158015611540576000805460ff1961ff001990911661010017166001179055611548611978565b611632848484610ffe565b61163e84848484611af2565b610c765760405162461bcd60e51b815260040161058d9061219b565b60608161167f57506040805180820190915260018152600360fc1b6020820152610481565b8160005b81156116a9578061169381612403565b91506116a29050600a83612371565b9150611683565b60008167ffffffffffffffff8111156116d257634e487b7160e01b600052604160045260246000fd5b6040519080825280601f01601f1916602001820160405280156116fc576020820181803683370190505b5090505b8415610ff657611711600183612385565b915061171e600a86612446565b611729906030612359565b60f81b81838151811061174c57634e487b7160e01b600052603260045260246000fd5b60200101906001600160f81b031916908160001a90535061176e600a86612371565b9450611700565b803b6117d95760405162461bcd60e51b815260206004820152602d60248201527f455243313936373a206e657720696d706c656d656e746174696f6e206973206e60448201526c1bdd08184818dbdb9d1c9858dd609a1b606482015260840161058d565b7f360894a13ba1a3210667c828492db98dca3e2076cc3735a920a3ca505d382bbc80546001600160a01b0319166001600160a01b0392909216919091179055565b6060823b6118795760405162461bcd60e51b815260206004820152602660248201527f416464726573733a2064656c65676174652063616c6c20746f206e6f6e2d636f6044820152651b9d1c9858dd60d21b606482015260840161058d565b600080846001600160a01b0316846040516118949190612100565b600060405180830381855af49150503d80600081146118cf576040519150601f19603f3d011682016040523d82523d6000602084013e6118d4565b606091505b50915091506118fc82826040518060600160405280602781526020016124b360279139611bff565b95945050505050565b61190e81611775565b6040516001600160a01b038216907fbc7cd75a20ee27fd9adebab32041f755214dbc6bffa90cc0225b39da2e5c2d3b90600090a250565b61194f8383611c38565b61195c6000848484611af2565b6106c35760405162461bcd60e51b815260040161058d9061219b565b600054610100900460ff1680611991575060005460ff16155b6119ad5760405162461bcd60e51b815260040161058d90612285565b600054610100900460ff16158015610b4f576000805460ff1961ff00199091166101001716600117905580156107c0576000805461ff001916905550565b600054610100900460ff1680611a04575060005460ff16155b611a205760405162461bcd60e51b815260040161058d90612285565b600054610100900460ff16158015611a4b576000805460ff1961ff0019909116610100171660011790555b8251611a5e906065906020860190611d7a565b508151611a72906066906020850190611d7a565b5080156106c3576000805461ff0019169055505050565b600054610100900460ff1680611aa2575060005460ff16155b611abe5760405162461bcd60e51b815260040161058d90612285565b600054610100900460ff16158015611ae9576000805460ff1961ff0019909116610100171660011790555b610b4f336113f6565b60006001600160a01b0384163b15611bf457604051630a85bd0160e11b81526001600160a01b0385169063150b7a0290611b3690339089908890889060040161214b565b602060405180830381600087803b158015611b5057600080fd5b505af1925050508015611b80575060408051601f3d908101601f19168201909252611b7d918101906120a0565b60015b611bda573d808015611bae576040519150601f19603f3d011682016040523d82523d6000602084013e611bb3565b606091505b508051611bd25760405162461bcd60e51b815260040161058d9061219b565b805181602001fd5b6001600160e01b031916630a85bd0160e11b149050610ff6565b506001949350505050565b60608315611c0e575081610d82565b825115611c1e5782518084602001fd5b8160405162461bcd60e51b815260040161058d9190612188565b6001600160a01b038216611c8e5760405162461bcd60e51b815260206004820181905260248201527f4552433732313a206d696e7420746f20746865207a65726f2061646472657373604482015260640161058d565b6000818152606760205260409020546001600160a01b031615611cf35760405162461bcd60e51b815260206004820152601c60248201527f4552433732313a20746f6b656e20616c7265616479206d696e74656400000000604482015260640161058d565b6001600160a01b0382166000908152606860205260408120805460019290611d1c908490612359565b909155505060008181526067602052604080822080546001600160a01b0319166001600160a01b03861690811790915590518392907fddf252ad1be2c89b69c2b068fc378daa952ba7f163c4a11628f55a4df523b3ef908290a45050565b828054611d86906123c8565b90600052602060002090601f016020900481019282611da85760008555611dee565b82601f10611dc157805160ff1916838001178555611dee565b82800160010185558215611dee579182015b82811115611dee578251825591602001919060010190611dd3565b50611dfa929150611dfe565b5090565b5b80821115611dfa5760008155600101611dff565b80356001600160a01b038116811461048157600080fd5b600082601f830112611e3a578081fd5b813567ffffffffffffffff80821115611e5557611e55612486565b604051601f8301601f19908116603f01168101908282118183101715611e7d57611e7d612486565b81604052838152866020858801011115611e95578485fd5b8360208701602083013792830160200193909352509392505050565b600060208284031215611ec2578081fd5b610d8282611e13565b60008060408385031215611edd578081fd5b611ee683611e13565b9150611ef460208401611e13565b90509250929050565b600080600060608486031215611f11578081fd5b611f1a84611e13565b9250611f2860208501611e13565b9150604084013590509250925092565b60008060008060808587031215611f4d578081fd5b611f5685611e13565b9350611f6460208601611e13565b925060408501359150606085013567ffffffffffffffff811115611f86578182fd5b611f9287828801611e2a565b91505092959194509250565b60008060408385031215611fb0578182fd5b611fb983611e13565b915060208301358015158114611fcd578182fd5b809150509250929050565b60008060408385031215611fea578182fd5b611ff383611e13565b9150602083013567ffffffffffffffff81111561200e578182fd5b61201a85828601611e2a565b9150509250929050565b60008060408385031215612036578182fd5b61203f83611e13565b946020939093013593505050565b6000806040838503121561205f578182fd5b61206883611e13565b9150602083013567ffffffffffffffff81168114611fcd578182fd5b600060208284031215612095578081fd5b8135610d828161249c565b6000602082840312156120b1578081fd5b8151610d828161249c565b6000602082840312156120cd578081fd5b5035919050565b600081518084526120ec81602086016020860161239c565b601f01601f19169290920160200192915050565b6000825161211281846020870161239c565b9190910192915050565b6000835161212e81846020880161239c565b83519083019061214281836020880161239c565b01949350505050565b6001600160a01b038581168252841660208201526040810183905260806060820181905260009061217e908301846120d4565b9695505050505050565b600060208252610d8260208301846120d4565b60208082526032908201527f4552433732313a207472616e7366657220746f206e6f6e20455243373231526560408201527131b2b4bb32b91034b6b83632b6b2b73a32b960711b606082015260800190565b6020808252602c908201527f46756e6374696f6e206d7573742062652063616c6c6564207468726f7567682060408201526b19195b1959d85d1958d85b1b60a21b606082015260800190565b6020808252602c908201527f46756e6374696f6e206d7573742062652063616c6c6564207468726f7567682060408201526b6163746976652070726f787960a01b606082015260800190565b6020808252602e908201527f496e697469616c697a61626c653a20636f6e747261637420697320616c72656160408201526d191e481a5b9a5d1a585b1a5e995960921b606082015260800190565b6020808252818101527f4f776e61626c653a2063616c6c6572206973206e6f7420746865206f776e6572604082015260600190565b60208082526031908201527f4552433732313a207472616e736665722063616c6c6572206973206e6f74206f6040820152701ddb995c881b9bdc88185c1c1c9bdd9959607a1b606082015260800190565b6000821982111561236c5761236c61245a565b500190565b60008261238057612380612470565b500490565b6000828210156123975761239761245a565b500390565b60005b838110156123b757818101518382015260200161239f565b83811115610c765750506000910152565b6002810460018216806123dc57607f821691505b602082108114156123fd57634e487b7160e01b600052602260045260246000fd5b50919050565b60006000198214156124175761241761245a565b5060010190565b600067ffffffffffffffff8083168181141561243c5761243c61245a565b6001019392505050565b60008261245557612455612470565b500690565b634e487b7160e01b600052601160045260246000fd5b634e487b7160e01b600052601260045260246000fd5b634e487b7160e01b600052604160045260246000fd5b6001600160e01b0319811681146107c057600080fdfe416464726573733a206c6f772d6c6576656c2064656c65676174652063616c6c206661696c6564a2646970667358221220540459341e959a900729e7064d63cdd055af7d2fd976d529840e4baa876ba56864736f6c63430008020033",
  "immutableReferences": {
    "612": [
      {
        "length": 32,
        "start": 1797
      },
      {
        "length": 32,
        "start": 1861
      },
      {
        "length": 32,
        "start": 2220
      },
      {
        "length": 32,
        "start": 2284
      }
    ]
  },
  "source": "// SPDX-License-Identifier: MIT\npragma solidity ^0.8.2;\n\nimport \"@openzeppelin/contracts-upgradeable/token/ERC721/ERC721Upgradeable.sol\";\nimport \"@openzeppelin/contracts-upgradeable/token/ERC721/extensions/ERC721BurnableUpgradeable.sol\";\nimport \"@openzeppelin/contracts-upgradeable/access/OwnableUpgradeable.sol\";\nimport \"@openzeppelin/contracts-upgradeable/proxy/utils/Initializable.sol\";\nimport \"@openzeppelin/contracts-upgradeable/proxy/utils/UUPSUpgradeable.sol\";\nimport \"@openzeppelin/contracts-upgradeable/utils/CountersUpgradeable.sol\";\n\ncontract DankFlair is Initializable, ERC721Upgradeable, ERC721BurnableUpgradeable, OwnableUpgradeable, UUPSUpgradeable {\n    using CountersUpgradeable for CountersUpgradeable.Counter;\n\n    CountersUpgradeable.Counter private _tokenIdCounter;\n\n    /// @custom:oz-upgrades-unsafe-allow constructor\n    constructor() initializer {}\n\n    function initialize() initializer public {\n        __ERC721_init(\"Dank Flair\", \"DANK\");\n        __ERC721Burnable_init();\n        __Ownable_init();\n        __UUPSUpgradeable_init();\n    }\n\n    function _baseURI() internal pure override returns (string memory) {\n        return \"https://dankflair.cloud/api/nft/\";\n    }\n\n    function safeMint(address to) public onlyOwner {\n        _safeMint(to, _tokenIdCounter.current());\n        _tokenIdCounter.increment();\n    }\n\n    function safeMintBatch(address to, uint64 iterations) public onlyOwner {\n        for (uint64 i = 0; i < iterations; i++) {\n            _safeMint(to, _tokenIdCounter.current());\n            _tokenIdCounter.increment();\n        }\n    }\n\n    function _authorizeUpgrade(address newImplementation)\n        internal\n        onlyOwner\n        override\n    {}\n}\n",
  "sourcePath": "/home/fortytwo/Projects/dankflair/solidity/contracts/DankFlair.sol",
  "compiler": {
    "name": "solc",
    "version": "0.8.2+commit.661d1103.Emscripten.clang"
  },
  "schemaVersion": "3.4.3",
  "updatedAt": "2021-11-03T15:49:36.265Z",
  "devdoc": {
    "kind": "dev",
    "methods": {
      "approve(address,uint256)": {
        "details": "See {IERC721-approve}."
      },
      "balanceOf(address)": {
        "details": "See {IERC721-balanceOf}."
      },
      "burn(uint256)": {
        "details": "Burns `tokenId`. See {ERC721-_burn}. Requirements: - The caller must own `tokenId` or be an approved operator."
      },
      "constructor": {
        "custom:oz-upgrades-unsafe-allow": "constructor"
      },
      "getApproved(uint256)": {
        "details": "See {IERC721-getApproved}."
      },
      "isApprovedForAll(address,address)": {
        "details": "See {IERC721-isApprovedForAll}."
      },
      "name()": {
        "details": "See {IERC721Metadata-name}."
      },
      "owner()": {
        "details": "Returns the address of the current owner."
      },
      "ownerOf(uint256)": {
        "details": "See {IERC721-ownerOf}."
      },
      "renounceOwnership()": {
        "details": "Leaves the contract without owner. It will not be possible to call `onlyOwner` functions anymore. Can only be called by the current owner. NOTE: Renouncing ownership will leave the contract without an owner, thereby removing any functionality that is only available to the owner."
      },
      "safeTransferFrom(address,address,uint256)": {
        "details": "See {IERC721-safeTransferFrom}."
      },
      "safeTransferFrom(address,address,uint256,bytes)": {
        "details": "See {IERC721-safeTransferFrom}."
      },
      "setApprovalForAll(address,bool)": {
        "details": "See {IERC721-setApprovalForAll}."
      },
      "supportsInterface(bytes4)": {
        "details": "See {IERC165-supportsInterface}."
      },
      "symbol()": {
        "details": "See {IERC721Metadata-symbol}."
      },
      "tokenURI(uint256)": {
        "details": "See {IERC721Metadata-tokenURI}."
      },
      "transferFrom(address,address,uint256)": {
        "details": "See {IERC721-transferFrom}."
      },
      "transferOwnership(address)": {
        "details": "Transfers ownership of the contract to a new account (`newOwner`). Can only be called by the current owner."
      },
      "upgradeTo(address)": {
        "details": "Upgrade the implementation of the proxy to `newImplementation`. Calls {_authorizeUpgrade}. Emits an {Upgraded} event."
      },
      "upgradeToAndCall(address,bytes)": {
        "details": "Upgrade the implementation of the proxy to `newImplementation`, and subsequently execute the function call encoded in `data`. Calls {_authorizeUpgrade}. Emits an {Upgraded} event."
      }
    },
    "version": 1
  },
  "userdoc": {
    "kind": "user",
    "methods": {},
    "version": 1
  }
}