{
  "contractName": "DankFusion",
  "abi": [
    {
      "inputs": [],
      "stateMutability": "nonpayable",
      "type": "constructor"
    },
    {
      "anonymous": false,
      "inputs": [
        {
          "indexed": false,
          "internalType": "address",
          "name": "previousAdmin",
          "type": "address"
        },
        {
          "indexed": false,
          "internalType": "address",
          "name": "newAdmin",
          "type": "address"
        }
      ],
      "name": "AdminChanged",
      "type": "event"
    },
    {
      "anonymous": false,
      "inputs": [
        {
          "indexed": true,
          "internalType": "address",
          "name": "owner",
          "type": "address"
        },
        {
          "indexed": true,
          "internalType": "address",
          "name": "approved",
          "type": "address"
        },
        {
          "indexed": true,
          "internalType": "uint256",
          "name": "tokenId",
          "type": "uint256"
        }
      ],
      "name": "Approval",
      "type": "event"
    },
    {
      "anonymous": false,
      "inputs": [
        {
          "indexed": true,
          "internalType": "address",
          "name": "owner",
          "type": "address"
        },
        {
          "indexed": true,
          "internalType": "address",
          "name": "operator",
          "type": "address"
        },
        {
          "indexed": false,
          "internalType": "bool",
          "name": "approved",
          "type": "bool"
        }
      ],
      "name": "ApprovalForAll",
      "type": "event"
    },
    {
      "anonymous": false,
      "inputs": [
        {
          "indexed": true,
          "internalType": "address",
          "name": "beacon",
          "type": "address"
        }
      ],
      "name": "BeaconUpgraded",
      "type": "event"
    },
    {
      "anonymous": false,
      "inputs": [
        {
          "indexed": true,
          "internalType": "address",
          "name": "previousOwner",
          "type": "address"
        },
        {
          "indexed": true,
          "internalType": "address",
          "name": "newOwner",
          "type": "address"
        }
      ],
      "name": "OwnershipTransferred",
      "type": "event"
    },
    {
      "anonymous": false,
      "inputs": [
        {
          "indexed": true,
          "internalType": "address",
          "name": "from",
          "type": "address"
        },
        {
          "indexed": true,
          "internalType": "address",
          "name": "to",
          "type": "address"
        },
        {
          "indexed": true,
          "internalType": "uint256",
          "name": "tokenId",
          "type": "uint256"
        }
      ],
      "name": "Transfer",
      "type": "event"
    },
    {
      "anonymous": false,
      "inputs": [
        {
          "indexed": true,
          "internalType": "address",
          "name": "implementation",
          "type": "address"
        }
      ],
      "name": "Upgraded",
      "type": "event"
    },
    {
      "inputs": [
        {
          "internalType": "address",
          "name": "to",
          "type": "address"
        },
        {
          "internalType": "uint256",
          "name": "tokenId",
          "type": "uint256"
        }
      ],
      "name": "approve",
      "outputs": [],
      "stateMutability": "nonpayable",
      "type": "function"
    },
    {
      "inputs": [
        {
          "internalType": "address",
          "name": "owner",
          "type": "address"
        }
      ],
      "name": "balanceOf",
      "outputs": [
        {
          "internalType": "uint256",
          "name": "",
          "type": "uint256"
        }
      ],
      "stateMutability": "view",
      "type": "function"
    },
    {
      "inputs": [
        {
          "internalType": "uint256",
          "name": "tokenId",
          "type": "uint256"
        }
      ],
      "name": "burn",
      "outputs": [],
      "stateMutability": "nonpayable",
      "type": "function"
    },
    {
      "inputs": [
        {
          "internalType": "uint256",
          "name": "tokenId",
          "type": "uint256"
        }
      ],
      "name": "getApproved",
      "outputs": [
        {
          "internalType": "address",
          "name": "",
          "type": "address"
        }
      ],
      "stateMutability": "view",
      "type": "function"
    },
    {
      "inputs": [
        {
          "internalType": "address",
          "name": "owner",
          "type": "address"
        },
        {
          "internalType": "address",
          "name": "operator",
          "type": "address"
        }
      ],
      "name": "isApprovedForAll",
      "outputs": [
        {
          "internalType": "bool",
          "name": "",
          "type": "bool"
        }
      ],
      "stateMutability": "view",
      "type": "function"
    },
    {
      "inputs": [],
      "name": "name",
      "outputs": [
        {
          "internalType": "string",
          "name": "",
          "type": "string"
        }
      ],
      "stateMutability": "view",
      "type": "function"
    },
    {
      "inputs": [],
      "name": "owner",
      "outputs": [
        {
          "internalType": "address",
          "name": "",
          "type": "address"
        }
      ],
      "stateMutability": "view",
      "type": "function"
    },
    {
      "inputs": [
        {
          "internalType": "uint256",
          "name": "tokenId",
          "type": "uint256"
        }
      ],
      "name": "ownerOf",
      "outputs": [
        {
          "internalType": "address",
          "name": "",
          "type": "address"
        }
      ],
      "stateMutability": "view",
      "type": "function"
    },
    {
      "inputs": [],
      "name": "renounceOwnership",
      "outputs": [],
      "stateMutability": "nonpayable",
      "type": "function"
    },
    {
      "inputs": [
        {
          "internalType": "address",
          "name": "from",
          "type": "address"
        },
        {
          "internalType": "address",
          "name": "to",
          "type": "address"
        },
        {
          "internalType": "uint256",
          "name": "tokenId",
          "type": "uint256"
        }
      ],
      "name": "safeTransferFrom",
      "outputs": [],
      "stateMutability": "nonpayable",
      "type": "function"
    },
    {
      "inputs": [
        {
          "internalType": "address",
          "name": "from",
          "type": "address"
        },
        {
          "internalType": "address",
          "name": "to",
          "type": "address"
        },
        {
          "internalType": "uint256",
          "name": "tokenId",
          "type": "uint256"
        },
        {
          "internalType": "bytes",
          "name": "_data",
          "type": "bytes"
        }
      ],
      "name": "safeTransferFrom",
      "outputs": [],
      "stateMutability": "nonpayable",
      "type": "function"
    },
    {
      "inputs": [
        {
          "internalType": "address",
          "name": "operator",
          "type": "address"
        },
        {
          "internalType": "bool",
          "name": "approved",
          "type": "bool"
        }
      ],
      "name": "setApprovalForAll",
      "outputs": [],
      "stateMutability": "nonpayable",
      "type": "function"
    },
    {
      "inputs": [
        {
          "internalType": "bytes4",
          "name": "interfaceId",
          "type": "bytes4"
        }
      ],
      "name": "supportsInterface",
      "outputs": [
        {
          "internalType": "bool",
          "name": "",
          "type": "bool"
        }
      ],
      "stateMutability": "view",
      "type": "function"
    },
    {
      "inputs": [],
      "name": "symbol",
      "outputs": [
        {
          "internalType": "string",
          "name": "",
          "type": "string"
        }
      ],
      "stateMutability": "view",
      "type": "function"
    },
    {
      "inputs": [
        {
          "internalType": "uint256",
          "name": "tokenId",
          "type": "uint256"
        }
      ],
      "name": "tokenURI",
      "outputs": [
        {
          "internalType": "string",
          "name": "",
          "type": "string"
        }
      ],
      "stateMutability": "view",
      "type": "function"
    },
    {
      "inputs": [
        {
          "internalType": "address",
          "name": "from",
          "type": "address"
        },
        {
          "internalType": "address",
          "name": "to",
          "type": "address"
        },
        {
          "internalType": "uint256",
          "name": "tokenId",
          "type": "uint256"
        }
      ],
      "name": "transferFrom",
      "outputs": [],
      "stateMutability": "nonpayable",
      "type": "function"
    },
    {
      "inputs": [
        {
          "internalType": "address",
          "name": "newOwner",
          "type": "address"
        }
      ],
      "name": "transferOwnership",
      "outputs": [],
      "stateMutability": "nonpayable",
      "type": "function"
    },
    {
      "inputs": [
        {
          "internalType": "address",
          "name": "newImplementation",
          "type": "address"
        }
      ],
      "name": "upgradeTo",
      "outputs": [],
      "stateMutability": "nonpayable",
      "type": "function"
    },
    {
      "inputs": [
        {
          "internalType": "address",
          "name": "newImplementation",
          "type": "address"
        },
        {
          "internalType": "bytes",
          "name": "data",
          "type": "bytes"
        }
      ],
      "name": "upgradeToAndCall",
      "outputs": [],
      "stateMutability": "payable",
      "type": "function"
    },
    {
      "inputs": [
        {
          "internalType": "contract ERC721",
          "name": "dankContract",
          "type": "address"
        }
      ],
      "name": "initialize",
      "outputs": [],
      "stateMutability": "nonpayable",
      "type": "function"
    },
    {
      "inputs": [
        {
          "internalType": "address",
          "name": "to",
          "type": "address"
        },
        {
          "internalType": "contract ERC721",
          "name": "fusionContract",
          "type": "address"
        },
        {
          "internalType": "uint256",
          "name": "dankId",
          "type": "uint256"
        },
        {
          "internalType": "uint256",
          "name": "fusionId",
          "type": "uint256"
        }
      ],
      "name": "safeMint",
      "outputs": [],
      "stateMutability": "nonpayable",
      "type": "function"
    },
    {
      "inputs": [
        {
          "internalType": "address",
          "name": "to",
          "type": "address"
        },
        {
          "internalType": "contract ERC721",
          "name": "fusionContract",
          "type": "address"
        },
        {
          "internalType": "uint256",
          "name": "dankId",
          "type": "uint256"
        },
        {
          "internalType": "uint256",
          "name": "fusionId",
          "type": "uint256"
        }
      ],
      "name": "safeMintFusion",
      "outputs": [],
      "stateMutability": "payable",
      "type": "function"
    },
    {
      "inputs": [
        {
          "internalType": "uint256",
          "name": "tokenId",
          "type": "uint256"
        }
      ],
      "name": "fusionInfo",
      "outputs": [
        {
          "internalType": "contract ERC721",
          "name": "",
          "type": "address"
        },
        {
          "internalType": "uint256",
          "name": "",
          "type": "uint256"
        },
        {
          "internalType": "uint256",
          "name": "",
          "type": "uint256"
        }
      ],
      "stateMutability": "view",
      "type": "function"
    }
  ],
  "bytecode": "0x60a06040523060601b60805234801561001757600080fd5b50600054610100900460ff1680610031575060005460ff16155b6100985760405162461bcd60e51b815260206004820152602e60248201527f496e697469616c697a61626c653a20636f6e747261637420697320616c72656160448201526d191e481a5b9a5d1a585b1a5e995960921b606482015260840160405180910390fd5b600054610100900460ff161580156100c3576000805460ff1961ff0019909116610100171660011790555b80156100d5576000805461ff00191690555b5060805160601c6127ed6200010a600039600081816107e1015281816108210152818161093c015261097c01526127ed6000f3fe6080604052600436106101405760003560e01c8063523dd317116100b6578063a22cb4651161006f578063a22cb465146103c8578063b88d4fde146103e8578063c4d66de814610408578063c87b56dd14610428578063e985e9c514610448578063f2fde38b1461049157610140565b8063523dd3171461031f5780636352211e1461033257806370a0823114610352578063715018a6146103805780638da5cb5b1461039557806395d89b41146103b357610140565b8063149af1ca11610108578063149af1ca1461026c57806323b872dd1461028c5780633659cfe6146102ac57806342842e0e146102cc57806342966c68146102ec5780634f1ef2861461030c57610140565b806301ffc9a71461014557806303321f121461017a57806306fdde03146101f0578063081812fc14610212578063095ea7b31461024a575b600080fd5b34801561015157600080fd5b50610165610160366004612375565b6104b1565b60405190151581526020015b60405180910390f35b34801561018657600080fd5b506101cb6101953660046123ad565b600081815261016260209081526040808320546101638352818420546101649093529220546001600160a01b0390921693909250565b604080516001600160a01b039094168452602084019290925290820152606001610171565b3480156101fc57600080fd5b50610205610505565b6040516101719190612479565b34801561021e57600080fd5b5061023261022d3660046123ad565b610597565b6040516001600160a01b039091168152602001610171565b34801561025657600080fd5b5061026a61026536600461234a565b610631565b005b34801561027857600080fd5b5061026a610287366004612305565b610747565b34801561029857600080fd5b5061026a6102a73660046121dc565b6107a4565b3480156102b857600080fd5b5061026a6102c736600461216c565b6107d6565b3480156102d857600080fd5b5061026a6102e73660046121dc565b61089f565b3480156102f857600080fd5b5061026a6103073660046123ad565b6108ba565b61026a61031a3660046122b7565b610931565b61026a61032d366004612305565b6109eb565b34801561033e57600080fd5b5061023261034d3660046123ad565b6109ff565b34801561035e57600080fd5b5061037261036d36600461216c565b610a76565b604051908152602001610171565b34801561038c57600080fd5b5061026a610afd565b3480156103a157600080fd5b5060c9546001600160a01b0316610232565b3480156103bf57600080fd5b50610205610b33565b3480156103d457600080fd5b5061026a6103e3366004612286565b610b42565b3480156103f457600080fd5b5061026a61040336600461221c565b610c14565b34801561041457600080fd5b5061026a61042336600461216c565b610c46565b34801561043457600080fd5b506102056104433660046123ad565b610d4c565b34801561045457600080fd5b506101656104633660046121a4565b6001600160a01b039182166000908152606a6020908152604080832093909416825291909152205460ff1690565b34801561049d57600080fd5b5061026a6104ac36600461216c565b610e34565b60006001600160e01b031982166380ac58cd60e01b14806104e257506001600160e01b03198216635b5e139f60e01b145b806104fd57506301ffc9a760e01b6001600160e01b03198316145b90505b919050565b606060658054610514906126b9565b80601f0160208091040260200160405190810160405280929190818152602001828054610540906126b9565b801561058d5780601f106105625761010080835404028352916020019161058d565b820191906000526020600020905b81548152906001019060200180831161057057829003601f168201915b5050505050905090565b6000818152606760205260408120546001600160a01b03166106155760405162461bcd60e51b815260206004820152602c60248201527f4552433732313a20617070726f76656420717565727920666f72206e6f6e657860448201526b34b9ba32b73a103a37b5b2b760a11b60648201526084015b60405180910390fd5b506000908152606960205260409020546001600160a01b031690565b600061063c826109ff565b9050806001600160a01b0316836001600160a01b031614156106aa5760405162461bcd60e51b815260206004820152602160248201527f4552433732313a20617070726f76616c20746f2063757272656e74206f776e656044820152603960f91b606482015260840161060c565b336001600160a01b03821614806106c657506106c68133610463565b6107385760405162461bcd60e51b815260206004820152603860248201527f4552433732313a20617070726f76652063616c6c6572206973206e6f74206f7760448201527f6e6572206e6f7220617070726f76656420666f7220616c6c0000000000000000606482015260840161060c565b6107428383610ecc565b505050565b60c9546001600160a01b031633146107715760405162461bcd60e51b815260040161060c906125c4565b6107848461077f61015f5490565b610f3a565b61078f838383610f54565b61079e61015f80546001019055565b50505050565b6107af335b826111df565b6107cb5760405162461bcd60e51b815260040161060c906125f9565b6107428383836112d6565b306001600160a01b037f000000000000000000000000000000000000000000000000000000000000000016141561081f5760405162461bcd60e51b815260040161060c906124de565b7f00000000000000000000000000000000000000000000000000000000000000006001600160a01b0316610851611476565b6001600160a01b0316146108775760405162461bcd60e51b815260040161060c9061252a565b610880816114a4565b6040805160008082526020820190925261089c918391906114ce565b50565b61074283838360405180602001604052806000815250610c14565b6108c3336107a9565b6109285760405162461bcd60e51b815260206004820152603060248201527f4552433732314275726e61626c653a2063616c6c6572206973206e6f74206f7760448201526f1b995c881b9bdc88185c1c1c9bdd995960821b606482015260840161060c565b61089c81611619565b306001600160a01b037f000000000000000000000000000000000000000000000000000000000000000016141561097a5760405162461bcd60e51b815260040161060c906124de565b7f00000000000000000000000000000000000000000000000000000000000000006001600160a01b03166109ac611476565b6001600160a01b0316146109d25760405162461bcd60e51b815260040161060c9061252a565b6109db826114a4565b6109e7828260016114ce565b5050565b662386f26fc1000034101561077157600080fd5b6000818152606760205260408120546001600160a01b0316806104fd5760405162461bcd60e51b815260206004820152602960248201527f4552433732313a206f776e657220717565727920666f72206e6f6e657869737460448201526832b73a103a37b5b2b760b91b606482015260840161060c565b60006001600160a01b038216610ae15760405162461bcd60e51b815260206004820152602a60248201527f4552433732313a2062616c616e636520717565727920666f7220746865207a65604482015269726f206164647265737360b01b606482015260840161060c565b506001600160a01b031660009081526068602052604090205490565b60c9546001600160a01b03163314610b275760405162461bcd60e51b815260040161060c906125c4565b610b3160006116b4565b565b606060668054610514906126b9565b6001600160a01b038216331415610b9b5760405162461bcd60e51b815260206004820152601960248201527f4552433732313a20617070726f766520746f2063616c6c657200000000000000604482015260640161060c565b336000818152606a602090815260408083206001600160a01b0387168085529252909120805460ff1916841515179055906001600160a01b03167f17307eab39ab6107e8899845ad3d59bd9653f200f220920489ca2b5937696c3183604051610c08911515815260200190565b60405180910390a35050565b610c1e33836111df565b610c3a5760405162461bcd60e51b815260040161060c906125f9565b61079e84848484611706565b600054610100900460ff1680610c5f575060005460ff16155b610c7b5760405162461bcd60e51b815260040161060c90612576565b600054610100900460ff16158015610ca6576000805460ff1961ff0019909116610100171660011790555b610cf46040518060400160405280601081526020016f44616e6b20467573696f6e204e46547360801b8152506040518060400160405280600481526020016344414e4b60e01b815250611739565b610cfc6117c9565b610d04611855565b610d0c6118c5565b61016180546001600160a01b0384166001600160a01b03199182161790915561016080549091163317905580156109e7576000805461ff00191690555050565b6000818152606760205260409020546060906001600160a01b0316610dcb5760405162461bcd60e51b815260206004820152602f60248201527f4552433732314d657461646174613a2055524920717565727920666f72206e6f60448201526e3732bc34b9ba32b73a103a37b5b2b760891b606482015260840161060c565b6000610de260408051602081019091526000815290565b90506000815111610e025760405180602001604052806000815250610e2d565b80610e0c8461192c565b604051602001610e1d92919061240d565b6040516020818303038152906040525b9392505050565b60c9546001600160a01b03163314610e5e5760405162461bcd60e51b815260040161060c906125c4565b6001600160a01b038116610ec35760405162461bcd60e51b815260206004820152602660248201527f4f776e61626c653a206e6577206f776e657220697320746865207a65726f206160448201526564647265737360d01b606482015260840161060c565b61089c816116b4565b600081815260696020526040902080546001600160a01b0319166001600160a01b0384169081179091558190610f01826109ff565b6001600160a01b03167f8c5be1e5ebec7d5bd14f71427d1e84f3dd0314c0f7b2291e5b200ac8c7c3b92560405160405180910390a45050565b6109e7828260405180602001604052806000815250611a47565b6040516331a9108f60e11b8152600481018290526001600160a01b03841690636352211e9060240160206040518083038186803b158015610f9457600080fd5b505afa158015610fa8573d6000803e3d6000fd5b505050506040513d601f19601f82011682018060405250810190610fcc9190612188565b6001600160a01b0316336001600160a01b0316146110525760405162461bcd60e51b815260206004820152603f60248201527f44616e6b20467573696f6e3a20796f7520646f206e6f742068617665206d696e60448201527f74696e672072696768747320666f72207468697320667573696f6e206e667400606482015260840161060c565b610161546040516331a9108f60e11b8152600481018490526001600160a01b0390911690636352211e9060240160206040518083038186803b15801561109757600080fd5b505afa1580156110ab573d6000803e3d6000fd5b505050506040513d601f19601f820116820180604052508101906110cf9190612188565b6001600160a01b0316336001600160a01b0316146111555760405162461bcd60e51b815260206004820152603d60248201527f44616e6b20467573696f6e3a20796f7520646f206e6f742068617665206d696e60448201527f74696e672072696768747320666f7220746869732064616e6b206e6674000000606482015260840161060c565b82610162600061116561015f5490565b815260200190815260200160002060006101000a8154816001600160a01b0302191690836001600160a01b031602179055508161016360006111a761015f5490565b8152602001908152602001600020819055508061016460006111c961015f5490565b8152602081019190915260400160002055505050565b6000818152606760205260408120546001600160a01b03166112585760405162461bcd60e51b815260206004820152602c60248201527f4552433732313a206f70657261746f7220717565727920666f72206e6f6e657860448201526b34b9ba32b73a103a37b5b2b760a11b606482015260840161060c565b6000611263836109ff565b9050806001600160a01b0316846001600160a01b0316148061129e5750836001600160a01b031661129384610597565b6001600160a01b0316145b806112ce57506001600160a01b038082166000908152606a602090815260408083209388168352929052205460ff165b949350505050565b826001600160a01b03166112e9826109ff565b6001600160a01b0316146113515760405162461bcd60e51b815260206004820152602960248201527f4552433732313a207472616e73666572206f6620746f6b656e2074686174206960448201526839903737ba1037bbb760b91b606482015260840161060c565b6001600160a01b0382166113b35760405162461bcd60e51b8152602060048201526024808201527f4552433732313a207472616e7366657220746f20746865207a65726f206164646044820152637265737360e01b606482015260840161060c565b6113be600082610ecc565b6001600160a01b03831660009081526068602052604081208054600192906113e7908490612676565b90915550506001600160a01b038216600090815260686020526040812080546001929061141590849061264a565b909155505060008181526067602052604080822080546001600160a01b0319166001600160a01b0386811691821790925591518493918716917fddf252ad1be2c89b69c2b068fc378daa952ba7f163c4a11628f55a4df523b3ef91a4505050565b7f360894a13ba1a3210667c828492db98dca3e2076cc3735a920a3ca505d382bbc546001600160a01b031690565b60c9546001600160a01b0316331461089c5760405162461bcd60e51b815260040161060c906125c4565b60006114d8611476565b90506114e384611a7a565b6000835111806114f05750815b15611501576114ff8484611b1f565b505b7f4910fdfa16fed3260ed0e7147f7cc6da11a60208b5b9406d12a635614ffd9143805460ff1661161257805460ff191660011781556040516001600160a01b038316602482015261158090869060440160408051601f198184030181529190526020810180516001600160e01b0316631b2ce7f360e11b179052611b1f565b50805460ff19168155611591611476565b6001600160a01b0316826001600160a01b0316146116095760405162461bcd60e51b815260206004820152602f60248201527f45524331393637557067726164653a207570677261646520627265616b73206660448201526e75727468657220757067726164657360881b606482015260840161060c565b61161285611c0a565b5050505050565b6000611624826109ff565b9050611631600083610ecc565b6001600160a01b038116600090815260686020526040812080546001929061165a908490612676565b909155505060008281526067602052604080822080546001600160a01b0319169055518391906001600160a01b038416907fddf252ad1be2c89b69c2b068fc378daa952ba7f163c4a11628f55a4df523b3ef908390a45050565b60c980546001600160a01b038381166001600160a01b0319831681179093556040519116919082907f8be0079c531659141344cd1fd0a4f28419497f9722a3daafe3b4186f6b6457e090600090a35050565b6117118484846112d6565b61171d84848484611c4a565b61079e5760405162461bcd60e51b815260040161060c9061248c565b600054610100900460ff1680611752575060005460ff16155b61176e5760405162461bcd60e51b815260040161060c90612576565b600054610100900460ff16158015611799576000805460ff1961ff0019909116610100171660011790555b6117a1611d57565b6117a9611d57565b6117b38383611dca565b8015610742576000805461ff0019169055505050565b600054610100900460ff16806117e2575060005460ff16155b6117fe5760405162461bcd60e51b815260040161060c90612576565b600054610100900460ff16158015611829576000805460ff1961ff0019909116610100171660011790555b611831611d57565b611839611d57565b611841611d57565b801561089c576000805461ff001916905550565b600054610100900460ff168061186e575060005460ff16155b61188a5760405162461bcd60e51b815260040161060c90612576565b600054610100900460ff161580156118b5576000805460ff1961ff0019909116610100171660011790555b6118bd611d57565b611841611e68565b600054610100900460ff16806118de575060005460ff16155b6118fa5760405162461bcd60e51b815260040161060c90612576565b600054610100900460ff16158015611831576000805460ff1961ff001990911661010017166001179055611839611d57565b60608161195157506040805180820190915260018152600360fc1b6020820152610500565b8160005b811561197b5780611965816126f4565b91506119749050600a83612662565b9150611955565b60008167ffffffffffffffff8111156119a457634e487b7160e01b600052604160045260246000fd5b6040519080825280601f01601f1916602001820160405280156119ce576020820181803683370190505b5090505b84156112ce576119e3600183612676565b91506119f0600a8661270f565b6119fb90603061264a565b60f81b818381518110611a1e57634e487b7160e01b600052603260045260246000fd5b60200101906001600160f81b031916908160001a905350611a40600a86612662565b94506119d2565b611a518383611ed1565b611a5e6000848484611c4a565b6107425760405162461bcd60e51b815260040161060c9061248c565b803b611ade5760405162461bcd60e51b815260206004820152602d60248201527f455243313936373a206e657720696d706c656d656e746174696f6e206973206e60448201526c1bdd08184818dbdb9d1c9858dd609a1b606482015260840161060c565b7f360894a13ba1a3210667c828492db98dca3e2076cc3735a920a3ca505d382bbc80546001600160a01b0319166001600160a01b0392909216919091179055565b6060823b611b7e5760405162461bcd60e51b815260206004820152602660248201527f416464726573733a2064656c65676174652063616c6c20746f206e6f6e2d636f6044820152651b9d1c9858dd60d21b606482015260840161060c565b600080846001600160a01b031684604051611b9991906123f1565b600060405180830381855af49150503d8060008114611bd4576040519150601f19603f3d011682016040523d82523d6000602084013e611bd9565b606091505b5091509150611c01828260405180606001604052806027815260200161279160279139612013565b95945050505050565b611c1381611a7a565b6040516001600160a01b038216907fbc7cd75a20ee27fd9adebab32041f755214dbc6bffa90cc0225b39da2e5c2d3b90600090a250565b60006001600160a01b0384163b15611d4c57604051630a85bd0160e11b81526001600160a01b0385169063150b7a0290611c8e90339089908890889060040161243c565b602060405180830381600087803b158015611ca857600080fd5b505af1925050508015611cd8575060408051601f3d908101601f19168201909252611cd591810190612391565b60015b611d32573d808015611d06576040519150601f19603f3d011682016040523d82523d6000602084013e611d0b565b606091505b508051611d2a5760405162461bcd60e51b815260040161060c9061248c565b805181602001fd5b6001600160e01b031916630a85bd0160e11b1490506112ce565b506001949350505050565b600054610100900460ff1680611d70575060005460ff16155b611d8c5760405162461bcd60e51b815260040161060c90612576565b600054610100900460ff16158015611841576000805460ff1961ff001990911661010017166001179055801561089c576000805461ff001916905550565b600054610100900460ff1680611de3575060005460ff16155b611dff5760405162461bcd60e51b815260040161060c90612576565b600054610100900460ff16158015611e2a576000805460ff1961ff0019909116610100171660011790555b8251611e3d90606590602086019061204c565b508151611e5190606690602085019061204c565b508015610742576000805461ff0019169055505050565b600054610100900460ff1680611e81575060005460ff16155b611e9d5760405162461bcd60e51b815260040161060c90612576565b600054610100900460ff16158015611ec8576000805460ff1961ff0019909116610100171660011790555b611841336116b4565b6001600160a01b038216611f275760405162461bcd60e51b815260206004820181905260248201527f4552433732313a206d696e7420746f20746865207a65726f2061646472657373604482015260640161060c565b6000818152606760205260409020546001600160a01b031615611f8c5760405162461bcd60e51b815260206004820152601c60248201527f4552433732313a20746f6b656e20616c7265616479206d696e74656400000000604482015260640161060c565b6001600160a01b0382166000908152606860205260408120805460019290611fb590849061264a565b909155505060008181526067602052604080822080546001600160a01b0319166001600160a01b03861690811790915590518392907fddf252ad1be2c89b69c2b068fc378daa952ba7f163c4a11628f55a4df523b3ef908290a45050565b60608315612022575081610e2d565b8251156120325782518084602001fd5b8160405162461bcd60e51b815260040161060c9190612479565b828054612058906126b9565b90600052602060002090601f01602090048101928261207a57600085556120c0565b82601f1061209357805160ff19168380011785556120c0565b828001600101855582156120c0579182015b828111156120c05782518255916020019190600101906120a5565b506120cc9291506120d0565b5090565b5b808211156120cc57600081556001016120d1565b600082601f8301126120f5578081fd5b813567ffffffffffffffff808211156121105761211061274f565b604051601f8301601f19908116603f011681019082821181831017156121385761213861274f565b81604052838152866020858801011115612150578485fd5b8360208701602083013792830160200193909352509392505050565b60006020828403121561217d578081fd5b8135610e2d81612765565b600060208284031215612199578081fd5b8151610e2d81612765565b600080604083850312156121b6578081fd5b82356121c181612765565b915060208301356121d181612765565b809150509250929050565b6000806000606084860312156121f0578081fd5b83356121fb81612765565b9250602084013561220b81612765565b929592945050506040919091013590565b60008060008060808587031215612231578081fd5b843561223c81612765565b9350602085013561224c81612765565b925060408501359150606085013567ffffffffffffffff81111561226e578182fd5b61227a878288016120e5565b91505092959194509250565b60008060408385031215612298578182fd5b82356122a381612765565b9150602083013580151581146121d1578182fd5b600080604083850312156122c9578182fd5b82356122d481612765565b9150602083013567ffffffffffffffff8111156122ef578182fd5b6122fb858286016120e5565b9150509250929050565b6000806000806080858703121561231a578384fd5b843561232581612765565b9350602085013561233581612765565b93969395505050506040820135916060013590565b6000806040838503121561235c578182fd5b823561236781612765565b946020939093013593505050565b600060208284031215612386578081fd5b8135610e2d8161277a565b6000602082840312156123a2578081fd5b8151610e2d8161277a565b6000602082840312156123be578081fd5b5035919050565b600081518084526123dd81602086016020860161268d565b601f01601f19169290920160200192915050565b6000825161240381846020870161268d565b9190910192915050565b6000835161241f81846020880161268d565b83519083019061243381836020880161268d565b01949350505050565b6001600160a01b038581168252841660208201526040810183905260806060820181905260009061246f908301846123c5565b9695505050505050565b600060208252610e2d60208301846123c5565b60208082526032908201527f4552433732313a207472616e7366657220746f206e6f6e20455243373231526560408201527131b2b4bb32b91034b6b83632b6b2b73a32b960711b606082015260800190565b6020808252602c908201527f46756e6374696f6e206d7573742062652063616c6c6564207468726f7567682060408201526b19195b1959d85d1958d85b1b60a21b606082015260800190565b6020808252602c908201527f46756e6374696f6e206d7573742062652063616c6c6564207468726f7567682060408201526b6163746976652070726f787960a01b606082015260800190565b6020808252602e908201527f496e697469616c697a61626c653a20636f6e747261637420697320616c72656160408201526d191e481a5b9a5d1a585b1a5e995960921b606082015260800190565b6020808252818101527f4f776e61626c653a2063616c6c6572206973206e6f7420746865206f776e6572604082015260600190565b60208082526031908201527f4552433732313a207472616e736665722063616c6c6572206973206e6f74206f6040820152701ddb995c881b9bdc88185c1c1c9bdd9959607a1b606082015260800190565b6000821982111561265d5761265d612723565b500190565b60008261267157612671612739565b500490565b60008282101561268857612688612723565b500390565b60005b838110156126a8578181015183820152602001612690565b8381111561079e5750506000910152565b6002810460018216806126cd57607f821691505b602082108114156126ee57634e487b7160e01b600052602260045260246000fd5b50919050565b600060001982141561270857612708612723565b5060010190565b60008261271e5761271e612739565b500690565b634e487b7160e01b600052601160045260246000fd5b634e487b7160e01b600052601260045260246000fd5b634e487b7160e01b600052604160045260246000fd5b6001600160a01b038116811461089c57600080fd5b6001600160e01b03198116811461089c57600080fdfe416464726573733a206c6f772d6c6576656c2064656c65676174652063616c6c206661696c6564a26469706673582212200be7d44ea35e03fa22d85bdfcfc127e90f5fc48b2dc13834acfdfbf1d6e8274e64736f6c63430008020033",
  "immutableReferences": {
    "612": [
      {
        "length": 32,
        "start": 2017
      },
      {
        "length": 32,
        "start": 2081
      },
      {
        "length": 32,
        "start": 2364
      },
      {
        "length": 32,
        "start": 2428
      }
    ]
  },
  "source": "// SPDX-License-Identifier: MIT\npragma solidity ^0.8.2;\n\nimport \"@openzeppelin/contracts/token/ERC721/ERC721.sol\";\nimport \"@openzeppelin/contracts-upgradeable/token/ERC721/ERC721Upgradeable.sol\";\nimport \"@openzeppelin/contracts-upgradeable/token/ERC721/extensions/ERC721BurnableUpgradeable.sol\";\nimport \"@openzeppelin/contracts-upgradeable/access/OwnableUpgradeable.sol\";\nimport \"@openzeppelin/contracts-upgradeable/proxy/utils/Initializable.sol\";\nimport \"@openzeppelin/contracts-upgradeable/proxy/utils/UUPSUpgradeable.sol\";\nimport \"@openzeppelin/contracts-upgradeable/utils/CountersUpgradeable.sol\";\n\ncontract DankFusion is Initializable, ERC721Upgradeable, ERC721BurnableUpgradeable, OwnableUpgradeable, UUPSUpgradeable {\n    using CountersUpgradeable for CountersUpgradeable.Counter;\n\n    CountersUpgradeable.Counter private _tokenIdCounter;\n\n    address private banker;\n    ERC721 private _dankContract;\n\n    // The contract to fuse the NFT with\n    mapping(uint256 => ERC721) private _fusionContract;\n    // The dank flair token id\n    mapping(uint256 => uint256) private _dankId;\n    // The token id of the reference NFT\n    mapping(uint256 => uint256) private _fusionId;\n\n    /// @custom:oz-upgrades-unsafe-allow constructor\n    constructor() initializer {}\n\n    function initialize(ERC721 dankContract) initializer public {\n        __ERC721_init(\"Dank Fusion NFTs\", \"DANK\");\n        __ERC721Burnable_init();\n        __Ownable_init();\n        __UUPSUpgradeable_init();\n        _dankContract = dankContract;\n        banker = msg.sender;\n    }\n\n    // Dank Fusion specific function to map contract and ids to each other for the mint.\n    function _fusion(ERC721 fusionContract, uint256 dankId, uint256 fusionId) internal {\n        // Ensure Minter has approval to mint said fused NFT.\n        require(msg.sender == fusionContract.ownerOf(fusionId), \"Dank Fusion: you do not have minting rights for this fusion nft\");\n        require(msg.sender == _dankContract.ownerOf(dankId), \"Dank Fusion: you do not have minting rights for this dank nft\");\n\n        // Map contract and ids to Dank Fusion\n        _fusionContract[_tokenIdCounter.current()] = fusionContract;\n        _dankId[_tokenIdCounter.current()] = dankId;\n        _fusionId[_tokenIdCounter.current()] = fusionId;\n    }\n\n    function safeMint(address to, ERC721 fusionContract, uint256 dankId, uint256 fusionId) public onlyOwner {\n        _safeMint(to, _tokenIdCounter.current());\n        _fusion(fusionContract, dankId, fusionId);\n        _tokenIdCounter.increment();\n    }\n\n    function safeMintFusion(address to, ERC721 fusionContract, uint256 dankId, uint256 fusionId) public payable {\n        if (msg.value < 10000000000000000) {\n            revert();\n        }\n\n        _safeMint(to, _tokenIdCounter.current());\n        _fusion(fusionContract, dankId, fusionId);\n        _tokenIdCounter.increment();\n    }\n\n    /*\n        fusionInfo() displays info about the Fusion NFT.\n        It will return the following:\n\n        1. Fusion contract address\n        2. Dank Flair NFT id\n        3. Fusion NFT ID\n    */\n    function fusionInfo(uint256 tokenId) public view virtual returns (ERC721, uint256, uint256) {\n        ERC721 fusionContract = _fusionContract[tokenId];\n        uint256 dankId = _dankId[tokenId];\n        uint256 fusionId = _fusionId[tokenId];\n\n        return (fusionContract, dankId, fusionId);\n    }\n\n    function _authorizeUpgrade(address newImplementation)\n        internal\n        onlyOwner\n        override\n    {}\n}\n",
  "sourcePath": "/home/fortytwo/Projects/dankflair/solidity/contracts/DankFusion.sol",
  "compiler": {
    "name": "solc",
    "version": "0.8.2+commit.661d1103.Emscripten.clang"
  },
  "schemaVersion": "3.4.3",
  "updatedAt": "2021-11-04T19:03:55.918Z",
  "devdoc": {
    "kind": "dev",
    "methods": {
      "approve(address,uint256)": {
        "details": "See {IERC721-approve}."
      },
      "balanceOf(address)": {
        "details": "See {IERC721-balanceOf}."
      },
      "burn(uint256)": {
        "details": "Burns `tokenId`. See {ERC721-_burn}. Requirements: - The caller must own `tokenId` or be an approved operator."
      },
      "constructor": {
        "custom:oz-upgrades-unsafe-allow": "constructor"
      },
      "getApproved(uint256)": {
        "details": "See {IERC721-getApproved}."
      },
      "isApprovedForAll(address,address)": {
        "details": "See {IERC721-isApprovedForAll}."
      },
      "name()": {
        "details": "See {IERC721Metadata-name}."
      },
      "owner()": {
        "details": "Returns the address of the current owner."
      },
      "ownerOf(uint256)": {
        "details": "See {IERC721-ownerOf}."
      },
      "renounceOwnership()": {
        "details": "Leaves the contract without owner. It will not be possible to call `onlyOwner` functions anymore. Can only be called by the current owner. NOTE: Renouncing ownership will leave the contract without an owner, thereby removing any functionality that is only available to the owner."
      },
      "safeTransferFrom(address,address,uint256)": {
        "details": "See {IERC721-safeTransferFrom}."
      },
      "safeTransferFrom(address,address,uint256,bytes)": {
        "details": "See {IERC721-safeTransferFrom}."
      },
      "setApprovalForAll(address,bool)": {
        "details": "See {IERC721-setApprovalForAll}."
      },
      "supportsInterface(bytes4)": {
        "details": "See {IERC165-supportsInterface}."
      },
      "symbol()": {
        "details": "See {IERC721Metadata-symbol}."
      },
      "tokenURI(uint256)": {
        "details": "See {IERC721Metadata-tokenURI}."
      },
      "transferFrom(address,address,uint256)": {
        "details": "See {IERC721-transferFrom}."
      },
      "transferOwnership(address)": {
        "details": "Transfers ownership of the contract to a new account (`newOwner`). Can only be called by the current owner."
      },
      "upgradeTo(address)": {
        "details": "Upgrade the implementation of the proxy to `newImplementation`. Calls {_authorizeUpgrade}. Emits an {Upgraded} event."
      },
      "upgradeToAndCall(address,bytes)": {
        "details": "Upgrade the implementation of the proxy to `newImplementation`, and subsequently execute the function call encoded in `data`. Calls {_authorizeUpgrade}. Emits an {Upgraded} event."
      }
    },
    "version": 1
  },
  "userdoc": {
    "kind": "user",
    "methods": {},
    "version": 1
  }
}