{
  "contractName": "DankFlair",
  "abi": [
    {
      "inputs": [],
      "stateMutability": "nonpayable",
      "type": "constructor"
    },
    {
      "anonymous": false,
      "inputs": [
        {
          "indexed": false,
          "internalType": "address",
          "name": "previousAdmin",
          "type": "address"
        },
        {
          "indexed": false,
          "internalType": "address",
          "name": "newAdmin",
          "type": "address"
        }
      ],
      "name": "AdminChanged",
      "type": "event"
    },
    {
      "anonymous": false,
      "inputs": [
        {
          "indexed": true,
          "internalType": "address",
          "name": "owner",
          "type": "address"
        },
        {
          "indexed": true,
          "internalType": "address",
          "name": "approved",
          "type": "address"
        },
        {
          "indexed": true,
          "internalType": "uint256",
          "name": "tokenId",
          "type": "uint256"
        }
      ],
      "name": "Approval",
      "type": "event"
    },
    {
      "anonymous": false,
      "inputs": [
        {
          "indexed": true,
          "internalType": "address",
          "name": "owner",
          "type": "address"
        },
        {
          "indexed": true,
          "internalType": "address",
          "name": "operator",
          "type": "address"
        },
        {
          "indexed": false,
          "internalType": "bool",
          "name": "approved",
          "type": "bool"
        }
      ],
      "name": "ApprovalForAll",
      "type": "event"
    },
    {
      "anonymous": false,
      "inputs": [
        {
          "indexed": true,
          "internalType": "address",
          "name": "beacon",
          "type": "address"
        }
      ],
      "name": "BeaconUpgraded",
      "type": "event"
    },
    {
      "anonymous": false,
      "inputs": [
        {
          "indexed": true,
          "internalType": "address",
          "name": "previousOwner",
          "type": "address"
        },
        {
          "indexed": true,
          "internalType": "address",
          "name": "newOwner",
          "type": "address"
        }
      ],
      "name": "OwnershipTransferred",
      "type": "event"
    },
    {
      "anonymous": false,
      "inputs": [
        {
          "indexed": true,
          "internalType": "address",
          "name": "from",
          "type": "address"
        },
        {
          "indexed": true,
          "internalType": "address",
          "name": "to",
          "type": "address"
        },
        {
          "indexed": true,
          "internalType": "uint256",
          "name": "tokenId",
          "type": "uint256"
        }
      ],
      "name": "Transfer",
      "type": "event"
    },
    {
      "anonymous": false,
      "inputs": [
        {
          "indexed": true,
          "internalType": "address",
          "name": "implementation",
          "type": "address"
        }
      ],
      "name": "Upgraded",
      "type": "event"
    },
    {
      "inputs": [
        {
          "internalType": "address",
          "name": "to",
          "type": "address"
        },
        {
          "internalType": "uint256",
          "name": "tokenId",
          "type": "uint256"
        }
      ],
      "name": "approve",
      "outputs": [],
      "stateMutability": "nonpayable",
      "type": "function"
    },
    {
      "inputs": [
        {
          "internalType": "address",
          "name": "owner",
          "type": "address"
        }
      ],
      "name": "balanceOf",
      "outputs": [
        {
          "internalType": "uint256",
          "name": "",
          "type": "uint256"
        }
      ],
      "stateMutability": "view",
      "type": "function"
    },
    {
      "inputs": [
        {
          "internalType": "uint256",
          "name": "tokenId",
          "type": "uint256"
        }
      ],
      "name": "burn",
      "outputs": [],
      "stateMutability": "nonpayable",
      "type": "function"
    },
    {
      "inputs": [
        {
          "internalType": "uint256",
          "name": "tokenId",
          "type": "uint256"
        }
      ],
      "name": "getApproved",
      "outputs": [
        {
          "internalType": "address",
          "name": "",
          "type": "address"
        }
      ],
      "stateMutability": "view",
      "type": "function"
    },
    {
      "inputs": [
        {
          "internalType": "address",
          "name": "owner",
          "type": "address"
        },
        {
          "internalType": "address",
          "name": "operator",
          "type": "address"
        }
      ],
      "name": "isApprovedForAll",
      "outputs": [
        {
          "internalType": "bool",
          "name": "",
          "type": "bool"
        }
      ],
      "stateMutability": "view",
      "type": "function"
    },
    {
      "inputs": [],
      "name": "name",
      "outputs": [
        {
          "internalType": "string",
          "name": "",
          "type": "string"
        }
      ],
      "stateMutability": "view",
      "type": "function"
    },
    {
      "inputs": [],
      "name": "owner",
      "outputs": [
        {
          "internalType": "address",
          "name": "",
          "type": "address"
        }
      ],
      "stateMutability": "view",
      "type": "function"
    },
    {
      "inputs": [
        {
          "internalType": "uint256",
          "name": "tokenId",
          "type": "uint256"
        }
      ],
      "name": "ownerOf",
      "outputs": [
        {
          "internalType": "address",
          "name": "",
          "type": "address"
        }
      ],
      "stateMutability": "view",
      "type": "function"
    },
    {
      "inputs": [],
      "name": "renounceOwnership",
      "outputs": [],
      "stateMutability": "nonpayable",
      "type": "function"
    },
    {
      "inputs": [
        {
          "internalType": "address",
          "name": "from",
          "type": "address"
        },
        {
          "internalType": "address",
          "name": "to",
          "type": "address"
        },
        {
          "internalType": "uint256",
          "name": "tokenId",
          "type": "uint256"
        }
      ],
      "name": "safeTransferFrom",
      "outputs": [],
      "stateMutability": "nonpayable",
      "type": "function"
    },
    {
      "inputs": [
        {
          "internalType": "address",
          "name": "from",
          "type": "address"
        },
        {
          "internalType": "address",
          "name": "to",
          "type": "address"
        },
        {
          "internalType": "uint256",
          "name": "tokenId",
          "type": "uint256"
        },
        {
          "internalType": "bytes",
          "name": "_data",
          "type": "bytes"
        }
      ],
      "name": "safeTransferFrom",
      "outputs": [],
      "stateMutability": "nonpayable",
      "type": "function"
    },
    {
      "inputs": [
        {
          "internalType": "address",
          "name": "operator",
          "type": "address"
        },
        {
          "internalType": "bool",
          "name": "approved",
          "type": "bool"
        }
      ],
      "name": "setApprovalForAll",
      "outputs": [],
      "stateMutability": "nonpayable",
      "type": "function"
    },
    {
      "inputs": [
        {
          "internalType": "bytes4",
          "name": "interfaceId",
          "type": "bytes4"
        }
      ],
      "name": "supportsInterface",
      "outputs": [
        {
          "internalType": "bool",
          "name": "",
          "type": "bool"
        }
      ],
      "stateMutability": "view",
      "type": "function"
    },
    {
      "inputs": [],
      "name": "symbol",
      "outputs": [
        {
          "internalType": "string",
          "name": "",
          "type": "string"
        }
      ],
      "stateMutability": "view",
      "type": "function"
    },
    {
      "inputs": [
        {
          "internalType": "uint256",
          "name": "tokenId",
          "type": "uint256"
        }
      ],
      "name": "tokenURI",
      "outputs": [
        {
          "internalType": "string",
          "name": "",
          "type": "string"
        }
      ],
      "stateMutability": "view",
      "type": "function"
    },
    {
      "inputs": [
        {
          "internalType": "address",
          "name": "from",
          "type": "address"
        },
        {
          "internalType": "address",
          "name": "to",
          "type": "address"
        },
        {
          "internalType": "uint256",
          "name": "tokenId",
          "type": "uint256"
        }
      ],
      "name": "transferFrom",
      "outputs": [],
      "stateMutability": "nonpayable",
      "type": "function"
    },
    {
      "inputs": [
        {
          "internalType": "address",
          "name": "newOwner",
          "type": "address"
        }
      ],
      "name": "transferOwnership",
      "outputs": [],
      "stateMutability": "nonpayable",
      "type": "function"
    },
    {
      "inputs": [
        {
          "internalType": "address",
          "name": "newImplementation",
          "type": "address"
        }
      ],
      "name": "upgradeTo",
      "outputs": [],
      "stateMutability": "nonpayable",
      "type": "function"
    },
    {
      "inputs": [
        {
          "internalType": "address",
          "name": "newImplementation",
          "type": "address"
        },
        {
          "internalType": "bytes",
          "name": "data",
          "type": "bytes"
        }
      ],
      "name": "upgradeToAndCall",
      "outputs": [],
      "stateMutability": "payable",
      "type": "function"
    },
    {
      "inputs": [],
      "name": "initialize",
      "outputs": [],
      "stateMutability": "nonpayable",
      "type": "function"
    },
    {
      "inputs": [
        {
          "internalType": "address",
          "name": "to",
          "type": "address"
        }
      ],
      "name": "safeMint",
      "outputs": [],
      "stateMutability": "nonpayable",
      "type": "function"
    }
  ],
  "bytecode": "0x60a06040523060601b60805234801561001757600080fd5b50600054610100900460ff1680610031575060005460ff16155b6100985760405162461bcd60e51b815260206004820152602e60248201527f496e697469616c697a61626c653a20636f6e747261637420697320616c72656160448201526d191e481a5b9a5d1a585b1a5e995960921b606482015260840160405180910390fd5b600054610100900460ff161580156100c3576000805460ff1961ff0019909116610100171660011790555b80156100d5576000805461ff00191690555b5060805160601c61241e610109600039600081816106da0152818161071a0152818161088101526108c1015261241e6000f3fe60806040526004361061012a5760003560e01c80636352211e116100ab57806395d89b411161006f57806395d89b4114610329578063a22cb4651461033e578063b88d4fde1461035e578063c87b56dd1461037e578063e985e9c51461039e578063f2fde38b146103e75761012a565b80636352211e1461029357806370a08231146102b3578063715018a6146102e15780638129fc1c146102f65780638da5cb5b1461030b5761012a565b80633659cfe6116100f25780633659cfe61461020057806340d097c31461022057806342842e0e1461024057806342966c68146102605780634f1ef286146102805761012a565b806301ffc9a71461012f57806306fdde0314610164578063081812fc14610186578063095ea7b3146101be57806323b872dd146101e0575b600080fd5b34801561013b57600080fd5b5061014f61014a366004611f97565b610407565b60405190151581526020015b60405180910390f35b34801561017057600080fd5b5061017961045b565b60405161015b919061209b565b34801561019257600080fd5b506101a66101a1366004611fcf565b6104ed565b6040516001600160a01b03909116815260200161015b565b3480156101ca57600080fd5b506101de6101d9366004611f6e565b610587565b005b3480156101ec57600080fd5b506101de6101fb366004611e47565b61069d565b34801561020c57600080fd5b506101de61021b366004611dfb565b6106cf565b34801561022c57600080fd5b506101de61023b366004611dfb565b610798565b34801561024c57600080fd5b506101de61025b366004611e47565b6107e4565b34801561026c57600080fd5b506101de61027b366004611fcf565b6107ff565b6101de61028e366004611f22565b610876565b34801561029f57600080fd5b506101a66102ae366004611fcf565b610930565b3480156102bf57600080fd5b506102d36102ce366004611dfb565b6109a7565b60405190815260200161015b565b3480156102ed57600080fd5b506101de610a2e565b34801561030257600080fd5b506101de610a64565b34801561031757600080fd5b5060c9546001600160a01b03166101a6565b34801561033557600080fd5b50610179610b37565b34801561034a57600080fd5b506101de610359366004611ee8565b610b46565b34801561036a57600080fd5b506101de610379366004611e82565b610c18565b34801561038a57600080fd5b50610179610399366004611fcf565b610c50565b3480156103aa57600080fd5b5061014f6103b9366004611e15565b6001600160a01b039182166000908152606a6020908152604080832093909416825291909152205460ff1690565b3480156103f357600080fd5b506101de610402366004611dfb565b610d2b565b60006001600160e01b031982166380ac58cd60e01b148061043857506001600160e01b03198216635b5e139f60e01b145b8061045357506301ffc9a760e01b6001600160e01b03198316145b90505b919050565b60606065805461046a906122db565b80601f0160208091040260200160405190810160405280929190818152602001828054610496906122db565b80156104e35780601f106104b8576101008083540402835291602001916104e3565b820191906000526020600020905b8154815290600101906020018083116104c657829003601f168201915b5050505050905090565b6000818152606760205260408120546001600160a01b031661056b5760405162461bcd60e51b815260206004820152602c60248201527f4552433732313a20617070726f76656420717565727920666f72206e6f6e657860448201526b34b9ba32b73a103a37b5b2b760a11b60648201526084015b60405180910390fd5b506000908152606960205260409020546001600160a01b031690565b600061059282610930565b9050806001600160a01b0316836001600160a01b031614156106005760405162461bcd60e51b815260206004820152602160248201527f4552433732313a20617070726f76616c20746f2063757272656e74206f776e656044820152603960f91b6064820152608401610562565b336001600160a01b038216148061061c575061061c81336103b9565b61068e5760405162461bcd60e51b815260206004820152603860248201527f4552433732313a20617070726f76652063616c6c6572206973206e6f74206f7760448201527f6e6572206e6f7220617070726f76656420666f7220616c6c00000000000000006064820152608401610562565b6106988383610dc3565b505050565b6106a8335b82610e31565b6106c45760405162461bcd60e51b81526004016105629061221b565b610698838383610f28565b306001600160a01b037f00000000000000000000000000000000000000000000000000000000000000001614156107185760405162461bcd60e51b815260040161056290612100565b7f00000000000000000000000000000000000000000000000000000000000000006001600160a01b031661074a6110c8565b6001600160a01b0316146107705760405162461bcd60e51b81526004016105629061214c565b610779816110f6565b6040805160008082526020820190925261079591839190611120565b50565b60c9546001600160a01b031633146107c25760405162461bcd60e51b8152600401610562906121e6565b6107d5816107d061015f5490565b61126b565b61079561015f80546001019055565b61069883838360405180602001604052806000815250610c18565b610808336106a2565b61086d5760405162461bcd60e51b815260206004820152603060248201527f4552433732314275726e61626c653a2063616c6c6572206973206e6f74206f7760448201526f1b995c881b9bdc88185c1c1c9bdd995960821b6064820152608401610562565b61079581611285565b306001600160a01b037f00000000000000000000000000000000000000000000000000000000000000001614156108bf5760405162461bcd60e51b815260040161056290612100565b7f00000000000000000000000000000000000000000000000000000000000000006001600160a01b03166108f16110c8565b6001600160a01b0316146109175760405162461bcd60e51b81526004016105629061214c565b610920826110f6565b61092c82826001611120565b5050565b6000818152606760205260408120546001600160a01b0316806104535760405162461bcd60e51b815260206004820152602960248201527f4552433732313a206f776e657220717565727920666f72206e6f6e657869737460448201526832b73a103a37b5b2b760b91b6064820152608401610562565b60006001600160a01b038216610a125760405162461bcd60e51b815260206004820152602a60248201527f4552433732313a2062616c616e636520717565727920666f7220746865207a65604482015269726f206164647265737360b01b6064820152608401610562565b506001600160a01b031660009081526068602052604090205490565b60c9546001600160a01b03163314610a585760405162461bcd60e51b8152600401610562906121e6565b610a626000611320565b565b600054610100900460ff1680610a7d575060005460ff16155b610a995760405162461bcd60e51b815260040161056290612198565b600054610100900460ff16158015610ac4576000805460ff1961ff0019909116610100171660011790555b610b0b604051806040016040528060098152602001682230b735a33630b4b960b91b8152506040518060400160405280600481526020016344414e4b60e01b815250611372565b610b13611402565b610b1b61147a565b610b236114ea565b8015610795576000805461ff001916905550565b60606066805461046a906122db565b6001600160a01b038216331415610b9f5760405162461bcd60e51b815260206004820152601960248201527f4552433732313a20617070726f766520746f2063616c6c6572000000000000006044820152606401610562565b336000818152606a602090815260408083206001600160a01b0387168085529252909120805460ff1916841515179055906001600160a01b03167f17307eab39ab6107e8899845ad3d59bd9653f200f220920489ca2b5937696c3183604051610c0c911515815260200190565b60405180910390a35050565b610c223383610e31565b610c3e5760405162461bcd60e51b81526004016105629061221b565b610c4a84848484611551565b50505050565b6000818152606760205260409020546060906001600160a01b0316610ccf5760405162461bcd60e51b815260206004820152602f60248201527f4552433732314d657461646174613a2055524920717565727920666f72206e6f60448201526e3732bc34b9ba32b73a103a37b5b2b760891b6064820152608401610562565b6000610cd9611584565b90506000815111610cf95760405180602001604052806000815250610d24565b80610d03846115a4565b604051602001610d1492919061202f565b6040516020818303038152906040525b9392505050565b60c9546001600160a01b03163314610d555760405162461bcd60e51b8152600401610562906121e6565b6001600160a01b038116610dba5760405162461bcd60e51b815260206004820152602660248201527f4f776e61626c653a206e6577206f776e657220697320746865207a65726f206160448201526564647265737360d01b6064820152608401610562565b61079581611320565b600081815260696020526040902080546001600160a01b0319166001600160a01b0384169081179091558190610df882610930565b6001600160a01b03167f8c5be1e5ebec7d5bd14f71427d1e84f3dd0314c0f7b2291e5b200ac8c7c3b92560405160405180910390a45050565b6000818152606760205260408120546001600160a01b0316610eaa5760405162461bcd60e51b815260206004820152602c60248201527f4552433732313a206f70657261746f7220717565727920666f72206e6f6e657860448201526b34b9ba32b73a103a37b5b2b760a11b6064820152608401610562565b6000610eb583610930565b9050806001600160a01b0316846001600160a01b03161480610ef05750836001600160a01b0316610ee5846104ed565b6001600160a01b0316145b80610f2057506001600160a01b038082166000908152606a602090815260408083209388168352929052205460ff165b949350505050565b826001600160a01b0316610f3b82610930565b6001600160a01b031614610fa35760405162461bcd60e51b815260206004820152602960248201527f4552433732313a207472616e73666572206f6620746f6b656e2074686174206960448201526839903737ba1037bbb760b91b6064820152608401610562565b6001600160a01b0382166110055760405162461bcd60e51b8152602060048201526024808201527f4552433732313a207472616e7366657220746f20746865207a65726f206164646044820152637265737360e01b6064820152608401610562565b611010600082610dc3565b6001600160a01b0383166000908152606860205260408120805460019290611039908490612298565b90915550506001600160a01b038216600090815260686020526040812080546001929061106790849061226c565b909155505060008181526067602052604080822080546001600160a01b0319166001600160a01b0386811691821790925591518493918716917fddf252ad1be2c89b69c2b068fc378daa952ba7f163c4a11628f55a4df523b3ef91a4505050565b7f360894a13ba1a3210667c828492db98dca3e2076cc3735a920a3ca505d382bbc546001600160a01b031690565b60c9546001600160a01b031633146107955760405162461bcd60e51b8152600401610562906121e6565b600061112a6110c8565b9050611135846116bf565b6000835111806111425750815b15611153576111518484611764565b505b7f4910fdfa16fed3260ed0e7147f7cc6da11a60208b5b9406d12a635614ffd9143805460ff1661126457805460ff191660011781556040516001600160a01b03831660248201526111d290869060440160408051601f198184030181529190526020810180516001600160e01b0316631b2ce7f360e11b179052611764565b50805460ff191681556111e36110c8565b6001600160a01b0316826001600160a01b03161461125b5760405162461bcd60e51b815260206004820152602f60248201527f45524331393637557067726164653a207570677261646520627265616b73206660448201526e75727468657220757067726164657360881b6064820152608401610562565b6112648561184f565b5050505050565b61092c82826040518060200160405280600081525061188f565b600061129082610930565b905061129d600083610dc3565b6001600160a01b03811660009081526068602052604081208054600192906112c6908490612298565b909155505060008281526067602052604080822080546001600160a01b0319169055518391906001600160a01b038416907fddf252ad1be2c89b69c2b068fc378daa952ba7f163c4a11628f55a4df523b3ef908390a45050565b60c980546001600160a01b038381166001600160a01b0319831681179093556040519116919082907f8be0079c531659141344cd1fd0a4f28419497f9722a3daafe3b4186f6b6457e090600090a35050565b600054610100900460ff168061138b575060005460ff16155b6113a75760405162461bcd60e51b815260040161056290612198565b600054610100900460ff161580156113d2576000805460ff1961ff0019909116610100171660011790555b6113da6118c2565b6113e26118c2565b6113ec8383611935565b8015610698576000805461ff0019169055505050565b600054610100900460ff168061141b575060005460ff16155b6114375760405162461bcd60e51b815260040161056290612198565b600054610100900460ff16158015611462576000805460ff1961ff0019909116610100171660011790555b61146a6118c2565b6114726118c2565b610b236118c2565b600054610100900460ff1680611493575060005460ff16155b6114af5760405162461bcd60e51b815260040161056290612198565b600054610100900460ff161580156114da576000805460ff1961ff0019909116610100171660011790555b6114e26118c2565b610b236119d3565b600054610100900460ff1680611503575060005460ff16155b61151f5760405162461bcd60e51b815260040161056290612198565b600054610100900460ff1615801561146a576000805460ff1961ff0019909116610100171660011790556114726118c2565b61155c848484610f28565b61156884848484611a3c565b610c4a5760405162461bcd60e51b8152600401610562906120ae565b606060405180606001604052806024815260200161239e60249139905090565b6060816115c957506040805180820190915260018152600360fc1b6020820152610456565b8160005b81156115f357806115dd81612316565b91506115ec9050600a83612284565b91506115cd565b60008167ffffffffffffffff81111561161c57634e487b7160e01b600052604160045260246000fd5b6040519080825280601f01601f191660200182016040528015611646576020820181803683370190505b5090505b8415610f205761165b600183612298565b9150611668600a86612331565b61167390603061226c565b60f81b81838151811061169657634e487b7160e01b600052603260045260246000fd5b60200101906001600160f81b031916908160001a9053506116b8600a86612284565b945061164a565b803b6117235760405162461bcd60e51b815260206004820152602d60248201527f455243313936373a206e657720696d706c656d656e746174696f6e206973206e60448201526c1bdd08184818dbdb9d1c9858dd609a1b6064820152608401610562565b7f360894a13ba1a3210667c828492db98dca3e2076cc3735a920a3ca505d382bbc80546001600160a01b0319166001600160a01b0392909216919091179055565b6060823b6117c35760405162461bcd60e51b815260206004820152602660248201527f416464726573733a2064656c65676174652063616c6c20746f206e6f6e2d636f6044820152651b9d1c9858dd60d21b6064820152608401610562565b600080846001600160a01b0316846040516117de9190612013565b600060405180830381855af49150503d8060008114611819576040519150601f19603f3d011682016040523d82523d6000602084013e61181e565b606091505b509150915061184682826040518060600160405280602781526020016123c260279139611b49565b95945050505050565b611858816116bf565b6040516001600160a01b038216907fbc7cd75a20ee27fd9adebab32041f755214dbc6bffa90cc0225b39da2e5c2d3b90600090a250565b6118998383611b82565b6118a66000848484611a3c565b6106985760405162461bcd60e51b8152600401610562906120ae565b600054610100900460ff16806118db575060005460ff16155b6118f75760405162461bcd60e51b815260040161056290612198565b600054610100900460ff16158015610b23576000805460ff1961ff0019909116610100171660011790558015610795576000805461ff001916905550565b600054610100900460ff168061194e575060005460ff16155b61196a5760405162461bcd60e51b815260040161056290612198565b600054610100900460ff16158015611995576000805460ff1961ff0019909116610100171660011790555b82516119a8906065906020860190611cc4565b5081516119bc906066906020850190611cc4565b508015610698576000805461ff0019169055505050565b600054610100900460ff16806119ec575060005460ff16155b611a085760405162461bcd60e51b815260040161056290612198565b600054610100900460ff16158015611a33576000805460ff1961ff0019909116610100171660011790555b610b2333611320565b60006001600160a01b0384163b15611b3e57604051630a85bd0160e11b81526001600160a01b0385169063150b7a0290611a8090339089908890889060040161205e565b602060405180830381600087803b158015611a9a57600080fd5b505af1925050508015611aca575060408051601f3d908101601f19168201909252611ac791810190611fb3565b60015b611b24573d808015611af8576040519150601f19603f3d011682016040523d82523d6000602084013e611afd565b606091505b508051611b1c5760405162461bcd60e51b8152600401610562906120ae565b805181602001fd5b6001600160e01b031916630a85bd0160e11b149050610f20565b506001949350505050565b60608315611b58575081610d24565b825115611b685782518084602001fd5b8160405162461bcd60e51b8152600401610562919061209b565b6001600160a01b038216611bd85760405162461bcd60e51b815260206004820181905260248201527f4552433732313a206d696e7420746f20746865207a65726f20616464726573736044820152606401610562565b6000818152606760205260409020546001600160a01b031615611c3d5760405162461bcd60e51b815260206004820152601c60248201527f4552433732313a20746f6b656e20616c7265616479206d696e746564000000006044820152606401610562565b6001600160a01b0382166000908152606860205260408120805460019290611c6690849061226c565b909155505060008181526067602052604080822080546001600160a01b0319166001600160a01b03861690811790915590518392907fddf252ad1be2c89b69c2b068fc378daa952ba7f163c4a11628f55a4df523b3ef908290a45050565b828054611cd0906122db565b90600052602060002090601f016020900481019282611cf25760008555611d38565b82601f10611d0b57805160ff1916838001178555611d38565b82800160010185558215611d38579182015b82811115611d38578251825591602001919060010190611d1d565b50611d44929150611d48565b5090565b5b80821115611d445760008155600101611d49565b80356001600160a01b038116811461045657600080fd5b600082601f830112611d84578081fd5b813567ffffffffffffffff80821115611d9f57611d9f612371565b604051601f8301601f19908116603f01168101908282118183101715611dc757611dc7612371565b81604052838152866020858801011115611ddf578485fd5b8360208701602083013792830160200193909352509392505050565b600060208284031215611e0c578081fd5b610d2482611d5d565b60008060408385031215611e27578081fd5b611e3083611d5d565b9150611e3e60208401611d5d565b90509250929050565b600080600060608486031215611e5b578081fd5b611e6484611d5d565b9250611e7260208501611d5d565b9150604084013590509250925092565b60008060008060808587031215611e97578081fd5b611ea085611d5d565b9350611eae60208601611d5d565b925060408501359150606085013567ffffffffffffffff811115611ed0578182fd5b611edc87828801611d74565b91505092959194509250565b60008060408385031215611efa578182fd5b611f0383611d5d565b915060208301358015158114611f17578182fd5b809150509250929050565b60008060408385031215611f34578182fd5b611f3d83611d5d565b9150602083013567ffffffffffffffff811115611f58578182fd5b611f6485828601611d74565b9150509250929050565b60008060408385031215611f80578182fd5b611f8983611d5d565b946020939093013593505050565b600060208284031215611fa8578081fd5b8135610d2481612387565b600060208284031215611fc4578081fd5b8151610d2481612387565b600060208284031215611fe0578081fd5b5035919050565b60008151808452611fff8160208601602086016122af565b601f01601f19169290920160200192915050565b600082516120258184602087016122af565b9190910192915050565b600083516120418184602088016122af565b8351908301906120558183602088016122af565b01949350505050565b6001600160a01b038581168252841660208201526040810183905260806060820181905260009061209190830184611fe7565b9695505050505050565b600060208252610d246020830184611fe7565b60208082526032908201527f4552433732313a207472616e7366657220746f206e6f6e20455243373231526560408201527131b2b4bb32b91034b6b83632b6b2b73a32b960711b606082015260800190565b6020808252602c908201527f46756e6374696f6e206d7573742062652063616c6c6564207468726f7567682060408201526b19195b1959d85d1958d85b1b60a21b606082015260800190565b6020808252602c908201527f46756e6374696f6e206d7573742062652063616c6c6564207468726f7567682060408201526b6163746976652070726f787960a01b606082015260800190565b6020808252602e908201527f496e697469616c697a61626c653a20636f6e747261637420697320616c72656160408201526d191e481a5b9a5d1a585b1a5e995960921b606082015260800190565b6020808252818101527f4f776e61626c653a2063616c6c6572206973206e6f7420746865206f776e6572604082015260600190565b60208082526031908201527f4552433732313a207472616e736665722063616c6c6572206973206e6f74206f6040820152701ddb995c881b9bdc88185c1c1c9bdd9959607a1b606082015260800190565b6000821982111561227f5761227f612345565b500190565b6000826122935761229361235b565b500490565b6000828210156122aa576122aa612345565b500390565b60005b838110156122ca5781810151838201526020016122b2565b83811115610c4a5750506000910152565b6002810460018216806122ef57607f821691505b6020821081141561231057634e487b7160e01b600052602260045260246000fd5b50919050565b600060001982141561232a5761232a612345565b5060010190565b6000826123405761234061235b565b500690565b634e487b7160e01b600052601160045260246000fd5b634e487b7160e01b600052601260045260246000fd5b634e487b7160e01b600052604160045260246000fd5b6001600160e01b03198116811461079557600080fdfe687474703a2f2f64616e6b666c6169722e636c6f75642f6e66742d6d657461646174612f416464726573733a206c6f772d6c6576656c2064656c65676174652063616c6c206661696c6564a2646970667358221220bd0a15885359d3f124d1a5b69615271e7bafd435a1fa9e7f356ae15b96e2b4b964736f6c63430008020033",
  "immutableReferences": {
    "612": [
      {
        "length": 32,
        "start": 1754
      },
      {
        "length": 32,
        "start": 1818
      },
      {
        "length": 32,
        "start": 2177
      },
      {
        "length": 32,
        "start": 2241
      }
    ]
  },
  "source": "// SPDX-License-Identifier: MIT\npragma solidity ^0.8.2;\n\nimport \"@openzeppelin/contracts-upgradeable/token/ERC721/ERC721Upgradeable.sol\";\nimport \"@openzeppelin/contracts-upgradeable/token/ERC721/extensions/ERC721BurnableUpgradeable.sol\";\nimport \"@openzeppelin/contracts-upgradeable/access/OwnableUpgradeable.sol\";\nimport \"@openzeppelin/contracts-upgradeable/proxy/utils/Initializable.sol\";\nimport \"@openzeppelin/contracts-upgradeable/proxy/utils/UUPSUpgradeable.sol\";\nimport \"@openzeppelin/contracts-upgradeable/utils/CountersUpgradeable.sol\";\n\ncontract DankFlair is Initializable, ERC721Upgradeable, ERC721BurnableUpgradeable, OwnableUpgradeable, UUPSUpgradeable {\n    using CountersUpgradeable for CountersUpgradeable.Counter;\n\n    CountersUpgradeable.Counter private _tokenIdCounter;\n\n    /// @custom:oz-upgrades-unsafe-allow constructor\n    constructor() initializer {}\n\n    function initialize() initializer public {\n        __ERC721_init(\"DankFlair\", \"DANK\");\n        __ERC721Burnable_init();\n        __Ownable_init();\n        __UUPSUpgradeable_init();\n    }\n\n    function _baseURI() internal pure override returns (string memory) {\n        return \"http://dankflair.cloud/nft-metadata/\";\n    }\n\n    function safeMint(address to) public onlyOwner {\n        _safeMint(to, _tokenIdCounter.current());\n        _tokenIdCounter.increment();\n    }\n\n    function _authorizeUpgrade(address newImplementation)\n        internal\n        onlyOwner\n        override\n    {}\n}\n",
  "sourcePath": "/home/fortytwo/Projects/dankflair/solidity/contracts/DankFlair.sol",
  "compiler": {
    "name": "solc",
    "version": "0.8.2+commit.661d1103.Emscripten.clang"
  },
  "schemaVersion": "3.4.3",
  "updatedAt": "2021-11-01T14:09:54.021Z",
  "devdoc": {
    "kind": "dev",
    "methods": {
      "approve(address,uint256)": {
        "details": "See {IERC721-approve}."
      },
      "balanceOf(address)": {
        "details": "See {IERC721-balanceOf}."
      },
      "burn(uint256)": {
        "details": "Burns `tokenId`. See {ERC721-_burn}. Requirements: - The caller must own `tokenId` or be an approved operator."
      },
      "constructor": {
        "custom:oz-upgrades-unsafe-allow": "constructor"
      },
      "getApproved(uint256)": {
        "details": "See {IERC721-getApproved}."
      },
      "isApprovedForAll(address,address)": {
        "details": "See {IERC721-isApprovedForAll}."
      },
      "name()": {
        "details": "See {IERC721Metadata-name}."
      },
      "owner()": {
        "details": "Returns the address of the current owner."
      },
      "ownerOf(uint256)": {
        "details": "See {IERC721-ownerOf}."
      },
      "renounceOwnership()": {
        "details": "Leaves the contract without owner. It will not be possible to call `onlyOwner` functions anymore. Can only be called by the current owner. NOTE: Renouncing ownership will leave the contract without an owner, thereby removing any functionality that is only available to the owner."
      },
      "safeTransferFrom(address,address,uint256)": {
        "details": "See {IERC721-safeTransferFrom}."
      },
      "safeTransferFrom(address,address,uint256,bytes)": {
        "details": "See {IERC721-safeTransferFrom}."
      },
      "setApprovalForAll(address,bool)": {
        "details": "See {IERC721-setApprovalForAll}."
      },
      "supportsInterface(bytes4)": {
        "details": "See {IERC165-supportsInterface}."
      },
      "symbol()": {
        "details": "See {IERC721Metadata-symbol}."
      },
      "tokenURI(uint256)": {
        "details": "See {IERC721Metadata-tokenURI}."
      },
      "transferFrom(address,address,uint256)": {
        "details": "See {IERC721-transferFrom}."
      },
      "transferOwnership(address)": {
        "details": "Transfers ownership of the contract to a new account (`newOwner`). Can only be called by the current owner."
      },
      "upgradeTo(address)": {
        "details": "Upgrade the implementation of the proxy to `newImplementation`. Calls {_authorizeUpgrade}. Emits an {Upgraded} event."
      },
      "upgradeToAndCall(address,bytes)": {
        "details": "Upgrade the implementation of the proxy to `newImplementation`, and subsequently execute the function call encoded in `data`. Calls {_authorizeUpgrade}. Emits an {Upgraded} event."
      }
    },
    "version": 1
  },
  "userdoc": {
    "kind": "user",
    "methods": {},
    "version": 1
  }
}