{
  "_format": "hh-sol-artifact-1",
  "contractName": "DankFlair",
  "sourceName": "contracts/DankFlair.sol",
  "abi": [
    {
      "inputs": [],
      "stateMutability": "nonpayable",
      "type": "constructor"
    },
    {
      "anonymous": false,
      "inputs": [
        {
          "indexed": false,
          "internalType": "address",
          "name": "previousAdmin",
          "type": "address"
        },
        {
          "indexed": false,
          "internalType": "address",
          "name": "newAdmin",
          "type": "address"
        }
      ],
      "name": "AdminChanged",
      "type": "event"
    },
    {
      "anonymous": false,
      "inputs": [
        {
          "indexed": true,
          "internalType": "address",
          "name": "owner",
          "type": "address"
        },
        {
          "indexed": true,
          "internalType": "address",
          "name": "approved",
          "type": "address"
        },
        {
          "indexed": true,
          "internalType": "uint256",
          "name": "tokenId",
          "type": "uint256"
        }
      ],
      "name": "Approval",
      "type": "event"
    },
    {
      "anonymous": false,
      "inputs": [
        {
          "indexed": true,
          "internalType": "address",
          "name": "owner",
          "type": "address"
        },
        {
          "indexed": true,
          "internalType": "address",
          "name": "operator",
          "type": "address"
        },
        {
          "indexed": false,
          "internalType": "bool",
          "name": "approved",
          "type": "bool"
        }
      ],
      "name": "ApprovalForAll",
      "type": "event"
    },
    {
      "anonymous": false,
      "inputs": [
        {
          "indexed": true,
          "internalType": "address",
          "name": "beacon",
          "type": "address"
        }
      ],
      "name": "BeaconUpgraded",
      "type": "event"
    },
    {
      "anonymous": false,
      "inputs": [
        {
          "indexed": true,
          "internalType": "address",
          "name": "previousOwner",
          "type": "address"
        },
        {
          "indexed": true,
          "internalType": "address",
          "name": "newOwner",
          "type": "address"
        }
      ],
      "name": "OwnershipTransferred",
      "type": "event"
    },
    {
      "anonymous": false,
      "inputs": [
        {
          "indexed": true,
          "internalType": "address",
          "name": "from",
          "type": "address"
        },
        {
          "indexed": true,
          "internalType": "address",
          "name": "to",
          "type": "address"
        },
        {
          "indexed": true,
          "internalType": "uint256",
          "name": "tokenId",
          "type": "uint256"
        }
      ],
      "name": "Transfer",
      "type": "event"
    },
    {
      "anonymous": false,
      "inputs": [
        {
          "indexed": true,
          "internalType": "address",
          "name": "implementation",
          "type": "address"
        }
      ],
      "name": "Upgraded",
      "type": "event"
    },
    {
      "inputs": [
        {
          "internalType": "address",
          "name": "to",
          "type": "address"
        },
        {
          "internalType": "uint256",
          "name": "tokenId",
          "type": "uint256"
        }
      ],
      "name": "approve",
      "outputs": [],
      "stateMutability": "nonpayable",
      "type": "function"
    },
    {
      "inputs": [
        {
          "internalType": "address",
          "name": "owner",
          "type": "address"
        }
      ],
      "name": "balanceOf",
      "outputs": [
        {
          "internalType": "uint256",
          "name": "",
          "type": "uint256"
        }
      ],
      "stateMutability": "view",
      "type": "function"
    },
    {
      "inputs": [
        {
          "internalType": "uint256",
          "name": "tokenId",
          "type": "uint256"
        }
      ],
      "name": "burn",
      "outputs": [],
      "stateMutability": "nonpayable",
      "type": "function"
    },
    {
      "inputs": [
        {
          "internalType": "uint256",
          "name": "tokenId",
          "type": "uint256"
        }
      ],
      "name": "getApproved",
      "outputs": [
        {
          "internalType": "address",
          "name": "",
          "type": "address"
        }
      ],
      "stateMutability": "view",
      "type": "function"
    },
    {
      "inputs": [],
      "name": "initialize",
      "outputs": [],
      "stateMutability": "nonpayable",
      "type": "function"
    },
    {
      "inputs": [
        {
          "internalType": "address",
          "name": "owner",
          "type": "address"
        },
        {
          "internalType": "address",
          "name": "operator",
          "type": "address"
        }
      ],
      "name": "isApprovedForAll",
      "outputs": [
        {
          "internalType": "bool",
          "name": "",
          "type": "bool"
        }
      ],
      "stateMutability": "view",
      "type": "function"
    },
    {
      "inputs": [],
      "name": "name",
      "outputs": [
        {
          "internalType": "string",
          "name": "",
          "type": "string"
        }
      ],
      "stateMutability": "view",
      "type": "function"
    },
    {
      "inputs": [],
      "name": "owner",
      "outputs": [
        {
          "internalType": "address",
          "name": "",
          "type": "address"
        }
      ],
      "stateMutability": "view",
      "type": "function"
    },
    {
      "inputs": [
        {
          "internalType": "uint256",
          "name": "tokenId",
          "type": "uint256"
        }
      ],
      "name": "ownerOf",
      "outputs": [
        {
          "internalType": "address",
          "name": "",
          "type": "address"
        }
      ],
      "stateMutability": "view",
      "type": "function"
    },
    {
      "inputs": [],
      "name": "renounceOwnership",
      "outputs": [],
      "stateMutability": "nonpayable",
      "type": "function"
    },
    {
      "inputs": [
        {
          "internalType": "address",
          "name": "to",
          "type": "address"
        }
      ],
      "name": "safeMint",
      "outputs": [],
      "stateMutability": "nonpayable",
      "type": "function"
    },
    {
      "inputs": [
        {
          "internalType": "address",
          "name": "from",
          "type": "address"
        },
        {
          "internalType": "address",
          "name": "to",
          "type": "address"
        },
        {
          "internalType": "uint256",
          "name": "tokenId",
          "type": "uint256"
        }
      ],
      "name": "safeTransferFrom",
      "outputs": [],
      "stateMutability": "nonpayable",
      "type": "function"
    },
    {
      "inputs": [
        {
          "internalType": "address",
          "name": "from",
          "type": "address"
        },
        {
          "internalType": "address",
          "name": "to",
          "type": "address"
        },
        {
          "internalType": "uint256",
          "name": "tokenId",
          "type": "uint256"
        },
        {
          "internalType": "bytes",
          "name": "_data",
          "type": "bytes"
        }
      ],
      "name": "safeTransferFrom",
      "outputs": [],
      "stateMutability": "nonpayable",
      "type": "function"
    },
    {
      "inputs": [
        {
          "internalType": "address",
          "name": "operator",
          "type": "address"
        },
        {
          "internalType": "bool",
          "name": "approved",
          "type": "bool"
        }
      ],
      "name": "setApprovalForAll",
      "outputs": [],
      "stateMutability": "nonpayable",
      "type": "function"
    },
    {
      "inputs": [
        {
          "internalType": "bytes4",
          "name": "interfaceId",
          "type": "bytes4"
        }
      ],
      "name": "supportsInterface",
      "outputs": [
        {
          "internalType": "bool",
          "name": "",
          "type": "bool"
        }
      ],
      "stateMutability": "view",
      "type": "function"
    },
    {
      "inputs": [],
      "name": "symbol",
      "outputs": [
        {
          "internalType": "string",
          "name": "",
          "type": "string"
        }
      ],
      "stateMutability": "view",
      "type": "function"
    },
    {
      "inputs": [
        {
          "internalType": "uint256",
          "name": "tokenId",
          "type": "uint256"
        }
      ],
      "name": "tokenURI",
      "outputs": [
        {
          "internalType": "string",
          "name": "",
          "type": "string"
        }
      ],
      "stateMutability": "view",
      "type": "function"
    },
    {
      "inputs": [
        {
          "internalType": "address",
          "name": "from",
          "type": "address"
        },
        {
          "internalType": "address",
          "name": "to",
          "type": "address"
        },
        {
          "internalType": "uint256",
          "name": "tokenId",
          "type": "uint256"
        }
      ],
      "name": "transferFrom",
      "outputs": [],
      "stateMutability": "nonpayable",
      "type": "function"
    },
    {
      "inputs": [
        {
          "internalType": "address",
          "name": "newOwner",
          "type": "address"
        }
      ],
      "name": "transferOwnership",
      "outputs": [],
      "stateMutability": "nonpayable",
      "type": "function"
    },
    {
      "inputs": [
        {
          "internalType": "address",
          "name": "newImplementation",
          "type": "address"
        }
      ],
      "name": "upgradeTo",
      "outputs": [],
      "stateMutability": "nonpayable",
      "type": "function"
    },
    {
      "inputs": [
        {
          "internalType": "address",
          "name": "newImplementation",
          "type": "address"
        },
        {
          "internalType": "bytes",
          "name": "data",
          "type": "bytes"
        }
      ],
      "name": "upgradeToAndCall",
      "outputs": [],
      "stateMutability": "payable",
      "type": "function"
    }
  ],
  "bytecode": "0x60a06040523073ffffffffffffffffffffffffffffffffffffffff1660809073ffffffffffffffffffffffffffffffffffffffff1660601b8152503480156200004757600080fd5b50600060019054906101000a900460ff16806200006f575060008054906101000a900460ff16155b620000b1576040517f08c379a0000000000000000000000000000000000000000000000000000000008152600401620000a89062000152565b60405180910390fd5b60008060019054906101000a900460ff16159050801562000102576001600060016101000a81548160ff02191690831515021790555060016000806101000a81548160ff0219169083151502179055505b8015620001245760008060016101000a81548160ff0219169083151502179055505b50620001d4565b60006200013a602e8362000174565b9150620001478262000185565b604082019050919050565b600060208201905081810360008301526200016d816200012b565b9050919050565b600082825260208201905092915050565b7f496e697469616c697a61626c653a20636f6e747261637420697320616c72656160008201527f647920696e697469616c697a6564000000000000000000000000000000000000602082015250565b60805160601c614760620002086000396000818161084c015281816108db01528181610b150152610ba401526147606000f3fe60806040526004361061012a5760003560e01c80636352211e116100ab57806395d89b411161006f57806395d89b41146103b9578063a22cb465146103e4578063b88d4fde1461040d578063c87b56dd14610436578063e985e9c514610473578063f2fde38b146104b05761012a565b80636352211e146102e657806370a0823114610323578063715018a6146103605780638129fc1c146103775780638da5cb5b1461038e5761012a565b80633659cfe6116100f25780633659cfe61461022657806340d097c31461024f57806342842e0e1461027857806342966c68146102a15780634f1ef286146102ca5761012a565b806301ffc9a71461012f57806306fdde031461016c578063081812fc14610197578063095ea7b3146101d457806323b872dd146101fd575b600080fd5b34801561013b57600080fd5b50610156600480360381019061015191906133c8565b6104d9565b604051610163919061390b565b60405180910390f35b34801561017857600080fd5b506101816105bb565b60405161018e9190613926565b60405180910390f35b3480156101a357600080fd5b506101be60048036038101906101b9919061341a565b61064d565b6040516101cb91906138a4565b60405180910390f35b3480156101e057600080fd5b506101fb60048036038101906101f6919061338c565b6106d2565b005b34801561020957600080fd5b50610224600480360381019061021f9190613232565b6107ea565b005b34801561023257600080fd5b5061024d600480360381019061024891906131cd565b61084a565b005b34801561025b57600080fd5b50610276600480360381019061027191906131cd565b6109f9565b005b34801561028457600080fd5b5061029f600480360381019061029a9190613232565b610a97565b005b3480156102ad57600080fd5b506102c860048036038101906102c3919061341a565b610ab7565b005b6102e460048036038101906102df9190613338565b610b13565b005b3480156102f257600080fd5b5061030d6004803603810190610308919061341a565b610c50565b60405161031a91906138a4565b60405180910390f35b34801561032f57600080fd5b5061034a600480360381019061034591906131cd565b610d02565b6040516103579190613c28565b60405180910390f35b34801561036c57600080fd5b50610375610dba565b005b34801561038357600080fd5b5061038c610e42565b005b34801561039a57600080fd5b506103a3610fa7565b6040516103b091906138a4565b60405180910390f35b3480156103c557600080fd5b506103ce610fd1565b6040516103db9190613926565b60405180910390f35b3480156103f057600080fd5b5061040b600480360381019061040691906132fc565b611063565b005b34801561041957600080fd5b50610434600480360381019061042f9190613281565b6111e4565b005b34801561044257600080fd5b5061045d6004803603810190610458919061341a565b611246565b60405161046a9190613926565b60405180910390f35b34801561047f57600080fd5b5061049a600480360381019061049591906131f6565b6112ed565b6040516104a7919061390b565b60405180910390f35b3480156104bc57600080fd5b506104d760048036038101906104d291906131cd565b611381565b005b60007f80ac58cd000000000000000000000000000000000000000000000000000000007bffffffffffffffffffffffffffffffffffffffffffffffffffffffff1916827bffffffffffffffffffffffffffffffffffffffffffffffffffffffff191614806105a457507f5b5e139f000000000000000000000000000000000000000000000000000000007bffffffffffffffffffffffffffffffffffffffffffffffffffffffff1916827bffffffffffffffffffffffffffffffffffffffffffffffffffffffff1916145b806105b457506105b382611479565b5b9050919050565b6060606580546105ca90613e58565b80601f01602080910402602001604051908101604052809291908181526020018280546105f690613e58565b80156106435780601f1061061857610100808354040283529160200191610643565b820191906000526020600020905b81548152906001019060200180831161062657829003601f168201915b5050505050905090565b6000610658826114e3565b610697576040517f08c379a000000000000000000000000000000000000000000000000000000000815260040161068e90613b08565b60405180910390fd5b6069600083815260200190815260200160002060009054906101000a900473ffffffffffffffffffffffffffffffffffffffff169050919050565b60006106dd82610c50565b90508073ffffffffffffffffffffffffffffffffffffffff168373ffffffffffffffffffffffffffffffffffffffff16141561074e576040517f08c379a000000000000000000000000000000000000000000000000000000000815260040161074590613ba8565b60405180910390fd5b8073ffffffffffffffffffffffffffffffffffffffff1661076d61154f565b73ffffffffffffffffffffffffffffffffffffffff16148061079c575061079b8161079661154f565b6112ed565b5b6107db576040517f08c379a00000000000000000000000000000000000000000000000000000000081526004016107d290613a68565b60405180910390fd5b6107e58383611557565b505050565b6107fb6107f561154f565b82611610565b61083a576040517f08c379a000000000000000000000000000000000000000000000000000000000815260040161083190613be8565b60405180910390fd5b6108458383836116ee565b505050565b7f000000000000000000000000000000000000000000000000000000000000000073ffffffffffffffffffffffffffffffffffffffff163073ffffffffffffffffffffffffffffffffffffffff1614156108d9576040517f08c379a00000000000000000000000000000000000000000000000000000000081526004016108d0906139c8565b60405180910390fd5b7f000000000000000000000000000000000000000000000000000000000000000073ffffffffffffffffffffffffffffffffffffffff1661091861194a565b73ffffffffffffffffffffffffffffffffffffffff161461096e576040517f08c379a000000000000000000000000000000000000000000000000000000000815260040161096590613a28565b60405180910390fd5b610977816119a1565b6109f681600067ffffffffffffffff8111156109bc577f4e487b7100000000000000000000000000000000000000000000000000000000600052604160045260246000fd5b6040519080825280601f01601f1916602001820160405280156109ee5781602001600182028036833780820191505090505b506000611a20565b50565b610a0161154f565b73ffffffffffffffffffffffffffffffffffffffff16610a1f610fa7565b73ffffffffffffffffffffffffffffffffffffffff1614610a75576040517f08c379a0000000000000000000000000000000000000000000000000000000008152600401610a6c90613b48565b60405180910390fd5b610a8981610a8461015f611bf1565b611bff565b610a9461015f611c1d565b50565b610ab2838383604051806020016040528060008152506111e4565b505050565b610ac8610ac261154f565b82611610565b610b07576040517f08c379a0000000000000000000000000000000000000000000000000000000008152600401610afe90613c08565b60405180910390fd5b610b1081611c33565b50565b7f000000000000000000000000000000000000000000000000000000000000000073ffffffffffffffffffffffffffffffffffffffff163073ffffffffffffffffffffffffffffffffffffffff161415610ba2576040517f08c379a0000000000000000000000000000000000000000000000000000000008152600401610b99906139c8565b60405180910390fd5b7f000000000000000000000000000000000000000000000000000000000000000073ffffffffffffffffffffffffffffffffffffffff16610be161194a565b73ffffffffffffffffffffffffffffffffffffffff1614610c37576040517f08c379a0000000000000000000000000000000000000000000000000000000008152600401610c2e90613a28565b60405180910390fd5b610c40826119a1565b610c4c82826001611a20565b5050565b6000806067600084815260200190815260200160002060009054906101000a900473ffffffffffffffffffffffffffffffffffffffff169050600073ffffffffffffffffffffffffffffffffffffffff168173ffffffffffffffffffffffffffffffffffffffff161415610cf9576040517f08c379a0000000000000000000000000000000000000000000000000000000008152600401610cf090613aa8565b60405180910390fd5b80915050919050565b60008073ffffffffffffffffffffffffffffffffffffffff168273ffffffffffffffffffffffffffffffffffffffff161415610d73576040517f08c379a0000000000000000000000000000000000000000000000000000000008152600401610d6a90613a88565b60405180910390fd5b606860008373ffffffffffffffffffffffffffffffffffffffff1673ffffffffffffffffffffffffffffffffffffffff168152602001908152602001600020549050919050565b610dc261154f565b73ffffffffffffffffffffffffffffffffffffffff16610de0610fa7565b73ffffffffffffffffffffffffffffffffffffffff1614610e36576040517f08c379a0000000000000000000000000000000000000000000000000000000008152600401610e2d90613b48565b60405180910390fd5b610e406000611d44565b565b600060019054906101000a900460ff1680610e68575060008054906101000a900460ff16155b610ea7576040517f08c379a0000000000000000000000000000000000000000000000000000000008152600401610e9e90613ac8565b60405180910390fd5b60008060019054906101000a900460ff161590508015610ef7576001600060016101000a81548160ff02191690831515021790555060016000806101000a81548160ff0219169083151502179055505b610f6b6040518060400160405280600981526020017f44616e6b466c61697200000000000000000000000000000000000000000000008152506040518060400160405280600481526020017f44414e4b00000000000000000000000000000000000000000000000000000000815250611e0a565b610f73611eff565b610f7b611ff0565b610f836120d9565b8015610fa45760008060016101000a81548160ff0219169083151502179055505b50565b600060c960009054906101000a900473ffffffffffffffffffffffffffffffffffffffff16905090565b606060668054610fe090613e58565b80601f016020809104026020016040519081016040528092919081815260200182805461100c90613e58565b80156110595780601f1061102e57610100808354040283529160200191611059565b820191906000526020600020905b81548152906001019060200180831161103c57829003601f168201915b5050505050905090565b61106b61154f565b73ffffffffffffffffffffffffffffffffffffffff168273ffffffffffffffffffffffffffffffffffffffff1614156110d9576040517f08c379a00000000000000000000000000000000000000000000000000000000081526004016110d090613a08565b60405180910390fd5b80606a60006110e661154f565b73ffffffffffffffffffffffffffffffffffffffff1673ffffffffffffffffffffffffffffffffffffffff16815260200190815260200160002060008473ffffffffffffffffffffffffffffffffffffffff1673ffffffffffffffffffffffffffffffffffffffff16815260200190815260200160002060006101000a81548160ff0219169083151502179055508173ffffffffffffffffffffffffffffffffffffffff1661119361154f565b73ffffffffffffffffffffffffffffffffffffffff167f17307eab39ab6107e8899845ad3d59bd9653f200f220920489ca2b5937696c31836040516111d8919061390b565b60405180910390a35050565b6111f56111ef61154f565b83611610565b611234576040517f08c379a000000000000000000000000000000000000000000000000000000000815260040161122b90613be8565b60405180910390fd5b611240848484846121c2565b50505050565b6060611251826114e3565b611290576040517f08c379a000000000000000000000000000000000000000000000000000000000815260040161128790613b88565b60405180910390fd5b600061129a61221e565b905060008151116112ba57604051806020016040528060008152506112e5565b806112c48461223e565b6040516020016112d5929190613880565b6040516020818303038152906040525b915050919050565b6000606a60008473ffffffffffffffffffffffffffffffffffffffff1673ffffffffffffffffffffffffffffffffffffffff16815260200190815260200160002060008373ffffffffffffffffffffffffffffffffffffffff1673ffffffffffffffffffffffffffffffffffffffff16815260200190815260200160002060009054906101000a900460ff16905092915050565b61138961154f565b73ffffffffffffffffffffffffffffffffffffffff166113a7610fa7565b73ffffffffffffffffffffffffffffffffffffffff16146113fd576040517f08c379a00000000000000000000000000000000000000000000000000000000081526004016113f490613b48565b60405180910390fd5b600073ffffffffffffffffffffffffffffffffffffffff168173ffffffffffffffffffffffffffffffffffffffff16141561146d576040517f08c379a000000000000000000000000000000000000000000000000000000000815260040161146490613988565b60405180910390fd5b61147681611d44565b50565b60007f01ffc9a7000000000000000000000000000000000000000000000000000000007bffffffffffffffffffffffffffffffffffffffffffffffffffffffff1916827bffffffffffffffffffffffffffffffffffffffffffffffffffffffff1916149050919050565b60008073ffffffffffffffffffffffffffffffffffffffff166067600084815260200190815260200160002060009054906101000a900473ffffffffffffffffffffffffffffffffffffffff1673ffffffffffffffffffffffffffffffffffffffff1614159050919050565b600033905090565b816069600083815260200190815260200160002060006101000a81548173ffffffffffffffffffffffffffffffffffffffff021916908373ffffffffffffffffffffffffffffffffffffffff160217905550808273ffffffffffffffffffffffffffffffffffffffff166115ca83610c50565b73ffffffffffffffffffffffffffffffffffffffff167f8c5be1e5ebec7d5bd14f71427d1e84f3dd0314c0f7b2291e5b200ac8c7c3b92560405160405180910390a45050565b600061161b826114e3565b61165a576040517f08c379a000000000000000000000000000000000000000000000000000000000815260040161165190613a48565b60405180910390fd5b600061166583610c50565b90508073ffffffffffffffffffffffffffffffffffffffff168473ffffffffffffffffffffffffffffffffffffffff1614806116d457508373ffffffffffffffffffffffffffffffffffffffff166116bc8461064d565b73ffffffffffffffffffffffffffffffffffffffff16145b806116e557506116e481856112ed565b5b91505092915050565b8273ffffffffffffffffffffffffffffffffffffffff1661170e82610c50565b73ffffffffffffffffffffffffffffffffffffffff1614611764576040517f08c379a000000000000000000000000000000000000000000000000000000000815260040161175b90613b68565b60405180910390fd5b600073ffffffffffffffffffffffffffffffffffffffff168273ffffffffffffffffffffffffffffffffffffffff1614156117d4576040517f08c379a00000000000000000000000000000000000000000000000000000000081526004016117cb906139e8565b60405180910390fd5b6117df8383836123eb565b6117ea600082611557565b6001606860008573ffffffffffffffffffffffffffffffffffffffff1673ffffffffffffffffffffffffffffffffffffffff168152602001908152602001600020600082825461183a9190613d6e565b925050819055506001606860008473ffffffffffffffffffffffffffffffffffffffff1673ffffffffffffffffffffffffffffffffffffffff16815260200190815260200160002060008282546118919190613ce7565b92505081905550816067600083815260200190815260200160002060006101000a81548173ffffffffffffffffffffffffffffffffffffffff021916908373ffffffffffffffffffffffffffffffffffffffff160217905550808273ffffffffffffffffffffffffffffffffffffffff168473ffffffffffffffffffffffffffffffffffffffff167fddf252ad1be2c89b69c2b068fc378daa952ba7f163c4a11628f55a4df523b3ef60405160405180910390a4505050565b60006119787f360894a13ba1a3210667c828492db98dca3e2076cc3735a920a3ca505d382bbc60001b6123f0565b60000160009054906101000a900473ffffffffffffffffffffffffffffffffffffffff16905090565b6119a961154f565b73ffffffffffffffffffffffffffffffffffffffff166119c7610fa7565b73ffffffffffffffffffffffffffffffffffffffff1614611a1d576040517f08c379a0000000000000000000000000000000000000000000000000000000008152600401611a1490613b48565b60405180910390fd5b50565b6000611a2a61194a565b9050611a35846123fa565b600083511180611a425750815b15611a5357611a5184846124b3565b505b6000611a817f4910fdfa16fed3260ed0e7147f7cc6da11a60208b5b9406d12a635614ffd914360001b612597565b90508060000160009054906101000a900460ff16611bea5760018160000160006101000a81548160ff021916908315150217905550611b4d8583604051602401611acb91906138a4565b6040516020818303038152906040527f3659cfe6000000000000000000000000000000000000000000000000000000007bffffffffffffffffffffffffffffffffffffffffffffffffffffffff19166020820180517bffffffffffffffffffffffffffffffffffffffffffffffffffffffff83818316178352505050506124b3565b5060008160000160006101000a81548160ff021916908315150217905550611b7361194a565b73ffffffffffffffffffffffffffffffffffffffff168273ffffffffffffffffffffffffffffffffffffffff1614611be0576040517f08c379a0000000000000000000000000000000000000000000000000000000008152600401611bd790613968565b60405180910390fd5b611be9856125a1565b5b5050505050565b600081600001549050919050565b611c198282604051806020016040528060008152506125f0565b5050565b6001816000016000828254019250508190555050565b6000611c3e82610c50565b9050611c4c816000846123eb565b611c57600083611557565b6001606860008373ffffffffffffffffffffffffffffffffffffffff1673ffffffffffffffffffffffffffffffffffffffff1681526020019081526020016000206000828254611ca79190613d6e565b925050819055506067600083815260200190815260200160002060006101000a81549073ffffffffffffffffffffffffffffffffffffffff021916905581600073ffffffffffffffffffffffffffffffffffffffff168273ffffffffffffffffffffffffffffffffffffffff167fddf252ad1be2c89b69c2b068fc378daa952ba7f163c4a11628f55a4df523b3ef60405160405180910390a45050565b600060c960009054906101000a900473ffffffffffffffffffffffffffffffffffffffff1690508160c960006101000a81548173ffffffffffffffffffffffffffffffffffffffff021916908373ffffffffffffffffffffffffffffffffffffffff1602179055508173ffffffffffffffffffffffffffffffffffffffff168173ffffffffffffffffffffffffffffffffffffffff167f8be0079c531659141344cd1fd0a4f28419497f9722a3daafe3b4186f6b6457e060405160405180910390a35050565b600060019054906101000a900460ff1680611e30575060008054906101000a900460ff16155b611e6f576040517f08c379a0000000000000000000000000000000000000000000000000000000008152600401611e6690613ac8565b60405180910390fd5b60008060019054906101000a900460ff161590508015611ebf576001600060016101000a81548160ff02191690831515021790555060016000806101000a81548160ff0219169083151502179055505b611ec761264b565b611ecf612724565b611ed983836127fd565b8015611efa5760008060016101000a81548160ff0219169083151502179055505b505050565b600060019054906101000a900460ff1680611f25575060008054906101000a900460ff16155b611f64576040517f08c379a0000000000000000000000000000000000000000000000000000000008152600401611f5b90613ac8565b60405180910390fd5b60008060019054906101000a900460ff161590508015611fb4576001600060016101000a81548160ff02191690831515021790555060016000806101000a81548160ff0219169083151502179055505b611fbc61264b565b611fc4612724565b611fcc612906565b8015611fed5760008060016101000a81548160ff0219169083151502179055505b50565b600060019054906101000a900460ff1680612016575060008054906101000a900460ff16155b612055576040517f08c379a000000000000000000000000000000000000000000000000000000000815260040161204c90613ac8565b60405180910390fd5b60008060019054906101000a900460ff1615905080156120a5576001600060016101000a81548160ff02191690831515021790555060016000806101000a81548160ff0219169083151502179055505b6120ad61264b565b6120b56129df565b80156120d65760008060016101000a81548160ff0219169083151502179055505b50565b600060019054906101000a900460ff16806120ff575060008054906101000a900460ff16155b61213e576040517f08c379a000000000000000000000000000000000000000000000000000000000815260040161213590613ac8565b60405180910390fd5b60008060019054906101000a900460ff16159050801561218e576001600060016101000a81548160ff02191690831515021790555060016000806101000a81548160ff0219169083151502179055505b612196612ac8565b61219e612ba1565b80156121bf5760008060016101000a81548160ff0219169083151502179055505b50565b6121cd8484846116ee565b6121d984848484612c7a565b612218576040517f08c379a000000000000000000000000000000000000000000000000000000000815260040161220f90613948565b60405180910390fd5b50505050565b60606040518060600160405280602481526020016146e060249139905090565b60606000821415612286576040518060400160405280600181526020017f300000000000000000000000000000000000000000000000000000000000000081525090506123e6565b600082905060005b600082146122b85780806122a190613ebb565b915050600a826122b19190613d3d565b915061228e565b60008167ffffffffffffffff8111156122fa577f4e487b7100000000000000000000000000000000000000000000000000000000600052604160045260246000fd5b6040519080825280601f01601f19166020018201604052801561232c5781602001600182028036833780820191505090505b5090505b600085146123df576001826123459190613d6e565b9150600a856123549190613f04565b60306123609190613ce7565b60f81b81838151811061239c577f4e487b7100000000000000000000000000000000000000000000000000000000600052603260045260246000fd5b60200101907effffffffffffffffffffffffffffffffffffffffffffffffffffffffffffff1916908160001a905350600a856123d89190613d3d565b9450612330565b8093505050505b919050565b505050565b6000819050919050565b61240381612e11565b612442576040517f08c379a000000000000000000000000000000000000000000000000000000000815260040161243990613b28565b60405180910390fd5b8061246f7f360894a13ba1a3210667c828492db98dca3e2076cc3735a920a3ca505d382bbc60001b6123f0565b60000160006101000a81548173ffffffffffffffffffffffffffffffffffffffff021916908373ffffffffffffffffffffffffffffffffffffffff16021790555050565b60606124be83612e11565b6124fd576040517f08c379a00000000000000000000000000000000000000000000000000000000081526004016124f490613bc8565b60405180910390fd5b6000808473ffffffffffffffffffffffffffffffffffffffff16846040516125259190613869565b600060405180830381855af49150503d8060008114612560576040519150601f19603f3d011682016040523d82523d6000602084013e612565565b606091505b509150915061258d828260405180606001604052806027815260200161470460279139612e24565b9250505092915050565b6000819050919050565b6125aa816123fa565b8073ffffffffffffffffffffffffffffffffffffffff167fbc7cd75a20ee27fd9adebab32041f755214dbc6bffa90cc0225b39da2e5c2d3b60405160405180910390a250565b6125fa8383612e8b565b6126076000848484612c7a565b612646576040517f08c379a000000000000000000000000000000000000000000000000000000000815260040161263d90613948565b60405180910390fd5b505050565b600060019054906101000a900460ff1680612671575060008054906101000a900460ff16155b6126b0576040517f08c379a00000000000000000000000000000000000000000000000000000000081526004016126a790613ac8565b60405180910390fd5b60008060019054906101000a900460ff161590508015612700576001600060016101000a81548160ff02191690831515021790555060016000806101000a81548160ff0219169083151502179055505b80156127215760008060016101000a81548160ff0219169083151502179055505b50565b600060019054906101000a900460ff168061274a575060008054906101000a900460ff16155b612789576040517f08c379a000000000000000000000000000000000000000000000000000000000815260040161278090613ac8565b60405180910390fd5b60008060019054906101000a900460ff1615905080156127d9576001600060016101000a81548160ff02191690831515021790555060016000806101000a81548160ff0219169083151502179055505b80156127fa5760008060016101000a81548160ff0219169083151502179055505b50565b600060019054906101000a900460ff1680612823575060008054906101000a900460ff16155b612862576040517f08c379a000000000000000000000000000000000000000000000000000000000815260040161285990613ac8565b60405180910390fd5b60008060019054906101000a900460ff1615905080156128b2576001600060016101000a81548160ff02191690831515021790555060016000806101000a81548160ff0219169083151502179055505b82606590805190602001906128c8929190613059565b5081606690805190602001906128df929190613059565b5080156129015760008060016101000a81548160ff0219169083151502179055505b505050565b600060019054906101000a900460ff168061292c575060008054906101000a900460ff16155b61296b576040517f08c379a000000000000000000000000000000000000000000000000000000000815260040161296290613ac8565b60405180910390fd5b60008060019054906101000a900460ff1615905080156129bb576001600060016101000a81548160ff02191690831515021790555060016000806101000a81548160ff0219169083151502179055505b80156129dc5760008060016101000a81548160ff0219169083151502179055505b50565b600060019054906101000a900460ff1680612a05575060008054906101000a900460ff16155b612a44576040517f08c379a0000000000000000000000000000000000000000000000000000000008152600401612a3b90613ac8565b60405180910390fd5b60008060019054906101000a900460ff161590508015612a94576001600060016101000a81548160ff02191690831515021790555060016000806101000a81548160ff0219169083151502179055505b612aa4612a9f61154f565b611d44565b8015612ac55760008060016101000a81548160ff0219169083151502179055505b50565b600060019054906101000a900460ff1680612aee575060008054906101000a900460ff16155b612b2d576040517f08c379a0000000000000000000000000000000000000000000000000000000008152600401612b2490613ac8565b60405180910390fd5b60008060019054906101000a900460ff161590508015612b7d576001600060016101000a81548160ff02191690831515021790555060016000806101000a81548160ff0219169083151502179055505b8015612b9e5760008060016101000a81548160ff0219169083151502179055505b50565b600060019054906101000a900460ff1680612bc7575060008054906101000a900460ff16155b612c06576040517f08c379a0000000000000000000000000000000000000000000000000000000008152600401612bfd90613ac8565b60405180910390fd5b60008060019054906101000a900460ff161590508015612c56576001600060016101000a81548160ff02191690831515021790555060016000806101000a81548160ff0219169083151502179055505b8015612c775760008060016101000a81548160ff0219169083151502179055505b50565b6000612c9b8473ffffffffffffffffffffffffffffffffffffffff16612e11565b15612e04578373ffffffffffffffffffffffffffffffffffffffff1663150b7a02612cc461154f565b8786866040518563ffffffff1660e01b8152600401612ce694939291906138bf565b602060405180830381600087803b158015612d0057600080fd5b505af1925050508015612d3157506040513d601f19601f82011682018060405250810190612d2e91906133f1565b60015b612db4573d8060008114612d61576040519150601f19603f3d011682016040523d82523d6000602084013e612d66565b606091505b50600081511415612dac576040517f08c379a0000000000000000000000000000000000000000000000000000000008152600401612da390613948565b60405180910390fd5b805181602001fd5b63150b7a0260e01b7bffffffffffffffffffffffffffffffffffffffffffffffffffffffff1916817bffffffffffffffffffffffffffffffffffffffffffffffffffffffff191614915050612e09565b600190505b949350505050565b600080823b905060008111915050919050565b60608315612e3457829050612e84565b600083511115612e475782518084602001fd5b816040517f08c379a0000000000000000000000000000000000000000000000000000000008152600401612e7b9190613926565b60405180910390fd5b9392505050565b600073ffffffffffffffffffffffffffffffffffffffff168273ffffffffffffffffffffffffffffffffffffffff161415612efb576040517f08c379a0000000000000000000000000000000000000000000000000000000008152600401612ef290613ae8565b60405180910390fd5b612f04816114e3565b15612f44576040517f08c379a0000000000000000000000000000000000000000000000000000000008152600401612f3b906139a8565b60405180910390fd5b612f50600083836123eb565b6001606860008473ffffffffffffffffffffffffffffffffffffffff1673ffffffffffffffffffffffffffffffffffffffff1681526020019081526020016000206000828254612fa09190613ce7565b92505081905550816067600083815260200190815260200160002060006101000a81548173ffffffffffffffffffffffffffffffffffffffff021916908373ffffffffffffffffffffffffffffffffffffffff160217905550808273ffffffffffffffffffffffffffffffffffffffff16600073ffffffffffffffffffffffffffffffffffffffff167fddf252ad1be2c89b69c2b068fc378daa952ba7f163c4a11628f55a4df523b3ef60405160405180910390a45050565b82805461306590613e58565b90600052602060002090601f01602090048101928261308757600085556130ce565b82601f106130a057805160ff19168380011785556130ce565b828001600101855582156130ce579182015b828111156130cd5782518255916020019190600101906130b2565b5b5090506130db91906130df565b5090565b5b808211156130f85760008160009055506001016130e0565b5090565b600061310f61310a84613c68565b613c43565b90508281526020810184848401111561312757600080fd5b613132848285613e16565b509392505050565b60008135905061314981614683565b92915050565b60008135905061315e8161469a565b92915050565b600081359050613173816146b1565b92915050565b600081519050613188816146b1565b92915050565b600082601f83011261319f57600080fd5b81356131af8482602086016130fc565b91505092915050565b6000813590506131c7816146c8565b92915050565b6000602082840312156131df57600080fd5b60006131ed8482850161313a565b91505092915050565b6000806040838503121561320957600080fd5b60006132178582860161313a565b92505060206132288582860161313a565b9150509250929050565b60008060006060848603121561324757600080fd5b60006132558682870161313a565b93505060206132668682870161313a565b9250506040613277868287016131b8565b9150509250925092565b6000806000806080858703121561329757600080fd5b60006132a58782880161313a565b94505060206132b68782880161313a565b93505060406132c7878288016131b8565b925050606085013567ffffffffffffffff8111156132e457600080fd5b6132f08782880161318e565b91505092959194509250565b6000806040838503121561330f57600080fd5b600061331d8582860161313a565b925050602061332e8582860161314f565b9150509250929050565b6000806040838503121561334b57600080fd5b60006133598582860161313a565b925050602083013567ffffffffffffffff81111561337657600080fd5b6133828582860161318e565b9150509250929050565b6000806040838503121561339f57600080fd5b60006133ad8582860161313a565b92505060206133be858286016131b8565b9150509250929050565b6000602082840312156133da57600080fd5b60006133e884828501613164565b91505092915050565b60006020828403121561340357600080fd5b600061341184828501613179565b91505092915050565b60006020828403121561342c57600080fd5b600061343a848285016131b8565b91505092915050565b61344c81613da2565b82525050565b61345b81613db4565b82525050565b600061346c82613c99565b6134768185613caf565b9350613486818560208601613e25565b61348f81613ff1565b840191505092915050565b60006134a582613c99565b6134af8185613cc0565b93506134bf818560208601613e25565b80840191505092915050565b60006134d682613ca4565b6134e08185613ccb565b93506134f0818560208601613e25565b6134f981613ff1565b840191505092915050565b600061350f82613ca4565b6135198185613cdc565b9350613529818560208601613e25565b80840191505092915050565b6000613542603283613ccb565b915061354d82614002565b604082019050919050565b6000613565602f83613ccb565b915061357082614051565b604082019050919050565b6000613588602683613ccb565b9150613593826140a0565b604082019050919050565b60006135ab601c83613ccb565b91506135b6826140ef565b602082019050919050565b60006135ce602c83613ccb565b91506135d982614118565b604082019050919050565b60006135f1602483613ccb565b91506135fc82614167565b604082019050919050565b6000613614601983613ccb565b915061361f826141b6565b602082019050919050565b6000613637602c83613ccb565b9150613642826141df565b604082019050919050565b600061365a602c83613ccb565b91506136658261422e565b604082019050919050565b600061367d603883613ccb565b91506136888261427d565b604082019050919050565b60006136a0602a83613ccb565b91506136ab826142cc565b604082019050919050565b60006136c3602983613ccb565b91506136ce8261431b565b604082019050919050565b60006136e6602e83613ccb565b91506136f18261436a565b604082019050919050565b6000613709602083613ccb565b9150613714826143b9565b602082019050919050565b600061372c602c83613ccb565b9150613737826143e2565b604082019050919050565b600061374f602d83613ccb565b915061375a82614431565b604082019050919050565b6000613772602083613ccb565b915061377d82614480565b602082019050919050565b6000613795602983613ccb565b91506137a0826144a9565b604082019050919050565b60006137b8602f83613ccb565b91506137c3826144f8565b604082019050919050565b60006137db602183613ccb565b91506137e682614547565b604082019050919050565b60006137fe602683613ccb565b915061380982614596565b604082019050919050565b6000613821603183613ccb565b915061382c826145e5565b604082019050919050565b6000613844603083613ccb565b915061384f82614634565b604082019050919050565b61386381613e0c565b82525050565b6000613875828461349a565b915081905092915050565b600061388c8285613504565b91506138988284613504565b91508190509392505050565b60006020820190506138b96000830184613443565b92915050565b60006080820190506138d46000830187613443565b6138e16020830186613443565b6138ee604083018561385a565b81810360608301526139008184613461565b905095945050505050565b60006020820190506139206000830184613452565b92915050565b6000602082019050818103600083015261394081846134cb565b905092915050565b6000602082019050818103600083015261396181613535565b9050919050565b6000602082019050818103600083015261398181613558565b9050919050565b600060208201905081810360008301526139a18161357b565b9050919050565b600060208201905081810360008301526139c18161359e565b9050919050565b600060208201905081810360008301526139e1816135c1565b9050919050565b60006020820190508181036000830152613a01816135e4565b9050919050565b60006020820190508181036000830152613a2181613607565b9050919050565b60006020820190508181036000830152613a418161362a565b9050919050565b60006020820190508181036000830152613a618161364d565b9050919050565b60006020820190508181036000830152613a8181613670565b9050919050565b60006020820190508181036000830152613aa181613693565b9050919050565b60006020820190508181036000830152613ac1816136b6565b9050919050565b60006020820190508181036000830152613ae1816136d9565b9050919050565b60006020820190508181036000830152613b01816136fc565b9050919050565b60006020820190508181036000830152613b218161371f565b9050919050565b60006020820190508181036000830152613b4181613742565b9050919050565b60006020820190508181036000830152613b6181613765565b9050919050565b60006020820190508181036000830152613b8181613788565b9050919050565b60006020820190508181036000830152613ba1816137ab565b9050919050565b60006020820190508181036000830152613bc1816137ce565b9050919050565b60006020820190508181036000830152613be1816137f1565b9050919050565b60006020820190508181036000830152613c0181613814565b9050919050565b60006020820190508181036000830152613c2181613837565b9050919050565b6000602082019050613c3d600083018461385a565b92915050565b6000613c4d613c5e565b9050613c598282613e8a565b919050565b6000604051905090565b600067ffffffffffffffff821115613c8357613c82613fc2565b5b613c8c82613ff1565b9050602081019050919050565b600081519050919050565b600081519050919050565b600082825260208201905092915050565b600081905092915050565b600082825260208201905092915050565b600081905092915050565b6000613cf282613e0c565b9150613cfd83613e0c565b9250827fffffffffffffffffffffffffffffffffffffffffffffffffffffffffffffffff03821115613d3257613d31613f35565b5b828201905092915050565b6000613d4882613e0c565b9150613d5383613e0c565b925082613d6357613d62613f64565b5b828204905092915050565b6000613d7982613e0c565b9150613d8483613e0c565b925082821015613d9757613d96613f35565b5b828203905092915050565b6000613dad82613dec565b9050919050565b60008115159050919050565b60007fffffffff0000000000000000000000000000000000000000000000000000000082169050919050565b600073ffffffffffffffffffffffffffffffffffffffff82169050919050565b6000819050919050565b82818337600083830152505050565b60005b83811015613e43578082015181840152602081019050613e28565b83811115613e52576000848401525b50505050565b60006002820490506001821680613e7057607f821691505b60208210811415613e8457613e83613f93565b5b50919050565b613e9382613ff1565b810181811067ffffffffffffffff82111715613eb257613eb1613fc2565b5b80604052505050565b6000613ec682613e0c565b91507fffffffffffffffffffffffffffffffffffffffffffffffffffffffffffffffff821415613ef957613ef8613f35565b5b600182019050919050565b6000613f0f82613e0c565b9150613f1a83613e0c565b925082613f2a57613f29613f64565b5b828206905092915050565b7f4e487b7100000000000000000000000000000000000000000000000000000000600052601160045260246000fd5b7f4e487b7100000000000000000000000000000000000000000000000000000000600052601260045260246000fd5b7f4e487b7100000000000000000000000000000000000000000000000000000000600052602260045260246000fd5b7f4e487b7100000000000000000000000000000000000000000000000000000000600052604160045260246000fd5b6000601f19601f8301169050919050565b7f4552433732313a207472616e7366657220746f206e6f6e20455243373231526560008201527f63656976657220696d706c656d656e7465720000000000000000000000000000602082015250565b7f45524331393637557067726164653a207570677261646520627265616b73206660008201527f7572746865722075706772616465730000000000000000000000000000000000602082015250565b7f4f776e61626c653a206e6577206f776e657220697320746865207a65726f206160008201527f6464726573730000000000000000000000000000000000000000000000000000602082015250565b7f4552433732313a20746f6b656e20616c7265616479206d696e74656400000000600082015250565b7f46756e6374696f6e206d7573742062652063616c6c6564207468726f7567682060008201527f64656c656761746563616c6c0000000000000000000000000000000000000000602082015250565b7f4552433732313a207472616e7366657220746f20746865207a65726f2061646460008201527f7265737300000000000000000000000000000000000000000000000000000000602082015250565b7f4552433732313a20617070726f766520746f2063616c6c657200000000000000600082015250565b7f46756e6374696f6e206d7573742062652063616c6c6564207468726f7567682060008201527f6163746976652070726f78790000000000000000000000000000000000000000602082015250565b7f4552433732313a206f70657261746f7220717565727920666f72206e6f6e657860008201527f697374656e7420746f6b656e0000000000000000000000000000000000000000602082015250565b7f4552433732313a20617070726f76652063616c6c6572206973206e6f74206f7760008201527f6e6572206e6f7220617070726f76656420666f7220616c6c0000000000000000602082015250565b7f4552433732313a2062616c616e636520717565727920666f7220746865207a6560008201527f726f206164647265737300000000000000000000000000000000000000000000602082015250565b7f4552433732313a206f776e657220717565727920666f72206e6f6e657869737460008201527f656e7420746f6b656e0000000000000000000000000000000000000000000000602082015250565b7f496e697469616c697a61626c653a20636f6e747261637420697320616c72656160008201527f647920696e697469616c697a6564000000000000000000000000000000000000602082015250565b7f4552433732313a206d696e7420746f20746865207a65726f2061646472657373600082015250565b7f4552433732313a20617070726f76656420717565727920666f72206e6f6e657860008201527f697374656e7420746f6b656e0000000000000000000000000000000000000000602082015250565b7f455243313936373a206e657720696d706c656d656e746174696f6e206973206e60008201527f6f74206120636f6e747261637400000000000000000000000000000000000000602082015250565b7f4f776e61626c653a2063616c6c6572206973206e6f7420746865206f776e6572600082015250565b7f4552433732313a207472616e73666572206f6620746f6b656e2074686174206960008201527f73206e6f74206f776e0000000000000000000000000000000000000000000000602082015250565b7f4552433732314d657461646174613a2055524920717565727920666f72206e6f60008201527f6e6578697374656e7420746f6b656e0000000000000000000000000000000000602082015250565b7f4552433732313a20617070726f76616c20746f2063757272656e74206f776e6560008201527f7200000000000000000000000000000000000000000000000000000000000000602082015250565b7f416464726573733a2064656c65676174652063616c6c20746f206e6f6e2d636f60008201527f6e74726163740000000000000000000000000000000000000000000000000000602082015250565b7f4552433732313a207472616e736665722063616c6c6572206973206e6f74206f60008201527f776e6572206e6f7220617070726f766564000000000000000000000000000000602082015250565b7f4552433732314275726e61626c653a2063616c6c6572206973206e6f74206f7760008201527f6e6572206e6f7220617070726f76656400000000000000000000000000000000602082015250565b61468c81613da2565b811461469757600080fd5b50565b6146a381613db4565b81146146ae57600080fd5b50565b6146ba81613dc0565b81146146c557600080fd5b50565b6146d181613e0c565b81146146dc57600080fd5b5056fe687474703a2f2f64616e6b666c6169722e636c6f75642f6e66742d6d657461646174612f416464726573733a206c6f772d6c6576656c2064656c65676174652063616c6c206661696c6564a2646970667358221220c0c410eb2d92fdf959ca18740047ba3afc251df41e5b898054f27a29e88fa1d664736f6c63430008020033",
  "linkReferences": {},
  "deployedLinkReferences": {}
}