{
  "_format": "hh-sol-artifact-1",
  "contractName": "DankFlair",
  "sourceName": "contracts/DankFlair.sol",
  "abi": [
    {
      "inputs": [],
      "stateMutability": "nonpayable",
      "type": "constructor"
    },
    {
      "anonymous": false,
      "inputs": [
        {
          "indexed": false,
          "internalType": "address",
          "name": "previousAdmin",
          "type": "address"
        },
        {
          "indexed": false,
          "internalType": "address",
          "name": "newAdmin",
          "type": "address"
        }
      ],
      "name": "AdminChanged",
      "type": "event"
    },
    {
      "anonymous": false,
      "inputs": [
        {
          "indexed": true,
          "internalType": "address",
          "name": "owner",
          "type": "address"
        },
        {
          "indexed": true,
          "internalType": "address",
          "name": "approved",
          "type": "address"
        },
        {
          "indexed": true,
          "internalType": "uint256",
          "name": "tokenId",
          "type": "uint256"
        }
      ],
      "name": "Approval",
      "type": "event"
    },
    {
      "anonymous": false,
      "inputs": [
        {
          "indexed": true,
          "internalType": "address",
          "name": "owner",
          "type": "address"
        },
        {
          "indexed": true,
          "internalType": "address",
          "name": "operator",
          "type": "address"
        },
        {
          "indexed": false,
          "internalType": "bool",
          "name": "approved",
          "type": "bool"
        }
      ],
      "name": "ApprovalForAll",
      "type": "event"
    },
    {
      "anonymous": false,
      "inputs": [
        {
          "indexed": true,
          "internalType": "address",
          "name": "beacon",
          "type": "address"
        }
      ],
      "name": "BeaconUpgraded",
      "type": "event"
    },
    {
      "anonymous": false,
      "inputs": [
        {
          "indexed": true,
          "internalType": "address",
          "name": "previousOwner",
          "type": "address"
        },
        {
          "indexed": true,
          "internalType": "address",
          "name": "newOwner",
          "type": "address"
        }
      ],
      "name": "OwnershipTransferred",
      "type": "event"
    },
    {
      "anonymous": false,
      "inputs": [
        {
          "indexed": true,
          "internalType": "address",
          "name": "from",
          "type": "address"
        },
        {
          "indexed": true,
          "internalType": "address",
          "name": "to",
          "type": "address"
        },
        {
          "indexed": true,
          "internalType": "uint256",
          "name": "tokenId",
          "type": "uint256"
        }
      ],
      "name": "Transfer",
      "type": "event"
    },
    {
      "anonymous": false,
      "inputs": [
        {
          "indexed": true,
          "internalType": "address",
          "name": "implementation",
          "type": "address"
        }
      ],
      "name": "Upgraded",
      "type": "event"
    },
    {
      "inputs": [
        {
          "internalType": "address",
          "name": "to",
          "type": "address"
        },
        {
          "internalType": "uint256",
          "name": "tokenId",
          "type": "uint256"
        }
      ],
      "name": "approve",
      "outputs": [],
      "stateMutability": "nonpayable",
      "type": "function"
    },
    {
      "inputs": [
        {
          "internalType": "address",
          "name": "owner",
          "type": "address"
        }
      ],
      "name": "balanceOf",
      "outputs": [
        {
          "internalType": "uint256",
          "name": "",
          "type": "uint256"
        }
      ],
      "stateMutability": "view",
      "type": "function"
    },
    {
      "inputs": [
        {
          "internalType": "uint256",
          "name": "tokenId",
          "type": "uint256"
        }
      ],
      "name": "burn",
      "outputs": [],
      "stateMutability": "nonpayable",
      "type": "function"
    },
    {
      "inputs": [
        {
          "internalType": "uint256",
          "name": "tokenId",
          "type": "uint256"
        }
      ],
      "name": "getApproved",
      "outputs": [
        {
          "internalType": "address",
          "name": "",
          "type": "address"
        }
      ],
      "stateMutability": "view",
      "type": "function"
    },
    {
      "inputs": [],
      "name": "initialize",
      "outputs": [],
      "stateMutability": "nonpayable",
      "type": "function"
    },
    {
      "inputs": [
        {
          "internalType": "address",
          "name": "owner",
          "type": "address"
        },
        {
          "internalType": "address",
          "name": "operator",
          "type": "address"
        }
      ],
      "name": "isApprovedForAll",
      "outputs": [
        {
          "internalType": "bool",
          "name": "",
          "type": "bool"
        }
      ],
      "stateMutability": "view",
      "type": "function"
    },
    {
      "inputs": [],
      "name": "name",
      "outputs": [
        {
          "internalType": "string",
          "name": "",
          "type": "string"
        }
      ],
      "stateMutability": "view",
      "type": "function"
    },
    {
      "inputs": [],
      "name": "owner",
      "outputs": [
        {
          "internalType": "address",
          "name": "",
          "type": "address"
        }
      ],
      "stateMutability": "view",
      "type": "function"
    },
    {
      "inputs": [
        {
          "internalType": "uint256",
          "name": "tokenId",
          "type": "uint256"
        }
      ],
      "name": "ownerOf",
      "outputs": [
        {
          "internalType": "address",
          "name": "",
          "type": "address"
        }
      ],
      "stateMutability": "view",
      "type": "function"
    },
    {
      "inputs": [],
      "name": "renounceOwnership",
      "outputs": [],
      "stateMutability": "nonpayable",
      "type": "function"
    },
    {
      "inputs": [
        {
          "internalType": "address",
          "name": "to",
          "type": "address"
        }
      ],
      "name": "safeMint",
      "outputs": [],
      "stateMutability": "nonpayable",
      "type": "function"
    },
    {
      "inputs": [
        {
          "internalType": "address",
          "name": "to",
          "type": "address"
        },
        {
          "internalType": "uint64",
          "name": "iterations",
          "type": "uint64"
        }
      ],
      "name": "safeMintBatch",
      "outputs": [],
      "stateMutability": "nonpayable",
      "type": "function"
    },
    {
      "inputs": [
        {
          "internalType": "address",
          "name": "from",
          "type": "address"
        },
        {
          "internalType": "address",
          "name": "to",
          "type": "address"
        },
        {
          "internalType": "uint256",
          "name": "tokenId",
          "type": "uint256"
        }
      ],
      "name": "safeTransferFrom",
      "outputs": [],
      "stateMutability": "nonpayable",
      "type": "function"
    },
    {
      "inputs": [
        {
          "internalType": "address",
          "name": "from",
          "type": "address"
        },
        {
          "internalType": "address",
          "name": "to",
          "type": "address"
        },
        {
          "internalType": "uint256",
          "name": "tokenId",
          "type": "uint256"
        },
        {
          "internalType": "bytes",
          "name": "_data",
          "type": "bytes"
        }
      ],
      "name": "safeTransferFrom",
      "outputs": [],
      "stateMutability": "nonpayable",
      "type": "function"
    },
    {
      "inputs": [
        {
          "internalType": "address",
          "name": "operator",
          "type": "address"
        },
        {
          "internalType": "bool",
          "name": "approved",
          "type": "bool"
        }
      ],
      "name": "setApprovalForAll",
      "outputs": [],
      "stateMutability": "nonpayable",
      "type": "function"
    },
    {
      "inputs": [
        {
          "internalType": "bytes4",
          "name": "interfaceId",
          "type": "bytes4"
        }
      ],
      "name": "supportsInterface",
      "outputs": [
        {
          "internalType": "bool",
          "name": "",
          "type": "bool"
        }
      ],
      "stateMutability": "view",
      "type": "function"
    },
    {
      "inputs": [],
      "name": "symbol",
      "outputs": [
        {
          "internalType": "string",
          "name": "",
          "type": "string"
        }
      ],
      "stateMutability": "view",
      "type": "function"
    },
    {
      "inputs": [
        {
          "internalType": "uint256",
          "name": "tokenId",
          "type": "uint256"
        }
      ],
      "name": "tokenURI",
      "outputs": [
        {
          "internalType": "string",
          "name": "",
          "type": "string"
        }
      ],
      "stateMutability": "view",
      "type": "function"
    },
    {
      "inputs": [
        {
          "internalType": "address",
          "name": "from",
          "type": "address"
        },
        {
          "internalType": "address",
          "name": "to",
          "type": "address"
        },
        {
          "internalType": "uint256",
          "name": "tokenId",
          "type": "uint256"
        }
      ],
      "name": "transferFrom",
      "outputs": [],
      "stateMutability": "nonpayable",
      "type": "function"
    },
    {
      "inputs": [
        {
          "internalType": "address",
          "name": "newOwner",
          "type": "address"
        }
      ],
      "name": "transferOwnership",
      "outputs": [],
      "stateMutability": "nonpayable",
      "type": "function"
    },
    {
      "inputs": [
        {
          "internalType": "address",
          "name": "newImplementation",
          "type": "address"
        }
      ],
      "name": "upgradeTo",
      "outputs": [],
      "stateMutability": "nonpayable",
      "type": "function"
    },
    {
      "inputs": [
        {
          "internalType": "address",
          "name": "newImplementation",
          "type": "address"
        },
        {
          "internalType": "bytes",
          "name": "data",
          "type": "bytes"
        }
      ],
      "name": "upgradeToAndCall",
      "outputs": [],
      "stateMutability": "payable",
      "type": "function"
    }
  ],
  "bytecode": "0x60a06040523073ffffffffffffffffffffffffffffffffffffffff1660809073ffffffffffffffffffffffffffffffffffffffff1660601b8152503480156200004757600080fd5b50600060019054906101000a900460ff16806200006f575060008054906101000a900460ff16155b620000b1576040517f08c379a0000000000000000000000000000000000000000000000000000000008152600401620000a89062000152565b60405180910390fd5b60008060019054906101000a900460ff16159050801562000102576001600060016101000a81548160ff02191690831515021790555060016000806101000a81548160ff0219169083151502179055505b8015620001245760008060016101000a81548160ff0219169083151502179055505b50620001d4565b60006200013a602e8362000174565b9150620001478262000185565b604082019050919050565b600060208201905081810360008301526200016d816200012b565b9050919050565b600082825260208201905092915050565b7f496e697469616c697a61626c653a20636f6e747261637420697320616c72656160008201527f647920696e697469616c697a6564000000000000000000000000000000000000602082015250565b60805160601c61490c62000208600039600081816108800152818161090f01528181610b490152610bd8015261490c6000f3fe6080604052600436106101355760003560e01c806370a08231116100ab578063a22cb4651161006f578063a22cb465146103ef578063b88d4fde14610418578063c87b56dd14610441578063e985e9c51461047e578063ebb10cd0146104bb578063f2fde38b146104e457610135565b806370a082311461032e578063715018a61461036b5780638129fc1c146103825780638da5cb5b1461039957806395d89b41146103c457610135565b80633659cfe6116100fd5780633659cfe61461023157806340d097c31461025a57806342842e0e1461028357806342966c68146102ac5780634f1ef286146102d55780636352211e146102f157610135565b806301ffc9a71461013a57806306fdde0314610177578063081812fc146101a2578063095ea7b3146101df57806323b872dd14610208575b600080fd5b34801561014657600080fd5b50610161600480360381019061015c919061353c565b61050d565b60405161016e9190613a7f565b60405180910390f35b34801561018357600080fd5b5061018c6105ef565b6040516101999190613a9a565b60405180910390f35b3480156101ae57600080fd5b506101c960048036038101906101c4919061358e565b610681565b6040516101d69190613a18565b60405180910390f35b3480156101eb57600080fd5b50610206600480360381019061020191906134c4565b610706565b005b34801561021457600080fd5b5061022f600480360381019061022a919061336a565b61081e565b005b34801561023d57600080fd5b5061025860048036038101906102539190613305565b61087e565b005b34801561026657600080fd5b50610281600480360381019061027c9190613305565b610a2d565b005b34801561028f57600080fd5b506102aa60048036038101906102a5919061336a565b610acb565b005b3480156102b857600080fd5b506102d360048036038101906102ce919061358e565b610aeb565b005b6102ef60048036038101906102ea9190613470565b610b47565b005b3480156102fd57600080fd5b506103186004803603810190610313919061358e565b610c84565b6040516103259190613a18565b60405180910390f35b34801561033a57600080fd5b5061035560048036038101906103509190613305565b610d36565b6040516103629190613d9c565b60405180910390f35b34801561037757600080fd5b50610380610dee565b005b34801561038e57600080fd5b50610397610e76565b005b3480156103a557600080fd5b506103ae610fdb565b6040516103bb9190613a18565b60405180910390f35b3480156103d057600080fd5b506103d9611005565b6040516103e69190613a9a565b60405180910390f35b3480156103fb57600080fd5b5061041660048036038101906104119190613434565b611097565b005b34801561042457600080fd5b5061043f600480360381019061043a91906133b9565b611218565b005b34801561044d57600080fd5b506104686004803603810190610463919061358e565b61127a565b6040516104759190613a9a565b60405180910390f35b34801561048a57600080fd5b506104a560048036038101906104a0919061332e565b611321565b6040516104b29190613a7f565b60405180910390f35b3480156104c757600080fd5b506104e260048036038101906104dd9190613500565b6113b5565b005b3480156104f057600080fd5b5061050b60048036038101906105069190613305565b611487565b005b60007f80ac58cd000000000000000000000000000000000000000000000000000000007bffffffffffffffffffffffffffffffffffffffffffffffffffffffff1916827bffffffffffffffffffffffffffffffffffffffffffffffffffffffff191614806105d857507f5b5e139f000000000000000000000000000000000000000000000000000000007bffffffffffffffffffffffffffffffffffffffffffffffffffffffff1916827bffffffffffffffffffffffffffffffffffffffffffffffffffffffff1916145b806105e857506105e78261157f565b5b9050919050565b6060606580546105fe90613fe0565b80601f016020809104026020016040519081016040528092919081815260200182805461062a90613fe0565b80156106775780601f1061064c57610100808354040283529160200191610677565b820191906000526020600020905b81548152906001019060200180831161065a57829003601f168201915b5050505050905090565b600061068c826115e9565b6106cb576040517f08c379a00000000000000000000000000000000000000000000000000000000081526004016106c290613c7c565b60405180910390fd5b6069600083815260200190815260200160002060009054906101000a900473ffffffffffffffffffffffffffffffffffffffff169050919050565b600061071182610c84565b90508073ffffffffffffffffffffffffffffffffffffffff168373ffffffffffffffffffffffffffffffffffffffff161415610782576040517f08c379a000000000000000000000000000000000000000000000000000000000815260040161077990613d1c565b60405180910390fd5b8073ffffffffffffffffffffffffffffffffffffffff166107a1611655565b73ffffffffffffffffffffffffffffffffffffffff1614806107d057506107cf816107ca611655565b611321565b5b61080f576040517f08c379a000000000000000000000000000000000000000000000000000000000815260040161080690613bdc565b60405180910390fd5b610819838361165d565b505050565b61082f610829611655565b82611716565b61086e576040517f08c379a000000000000000000000000000000000000000000000000000000000815260040161086590613d5c565b60405180910390fd5b6108798383836117f4565b505050565b7f000000000000000000000000000000000000000000000000000000000000000073ffffffffffffffffffffffffffffffffffffffff163073ffffffffffffffffffffffffffffffffffffffff16141561090d576040517f08c379a000000000000000000000000000000000000000000000000000000000815260040161090490613b3c565b60405180910390fd5b7f000000000000000000000000000000000000000000000000000000000000000073ffffffffffffffffffffffffffffffffffffffff1661094c611a50565b73ffffffffffffffffffffffffffffffffffffffff16146109a2576040517f08c379a000000000000000000000000000000000000000000000000000000000815260040161099990613b9c565b60405180910390fd5b6109ab81611aa7565b610a2a81600067ffffffffffffffff8111156109f0577f4e487b7100000000000000000000000000000000000000000000000000000000600052604160045260246000fd5b6040519080825280601f01601f191660200182016040528015610a225781602001600182028036833780820191505090505b506000611b26565b50565b610a35611655565b73ffffffffffffffffffffffffffffffffffffffff16610a53610fdb565b73ffffffffffffffffffffffffffffffffffffffff1614610aa9576040517f08c379a0000000000000000000000000000000000000000000000000000000008152600401610aa090613cbc565b60405180910390fd5b610abd81610ab861015f611cf7565b611d05565b610ac861015f611d23565b50565b610ae683838360405180602001604052806000815250611218565b505050565b610afc610af6611655565b82611716565b610b3b576040517f08c379a0000000000000000000000000000000000000000000000000000000008152600401610b3290613d7c565b60405180910390fd5b610b4481611d39565b50565b7f000000000000000000000000000000000000000000000000000000000000000073ffffffffffffffffffffffffffffffffffffffff163073ffffffffffffffffffffffffffffffffffffffff161415610bd6576040517f08c379a0000000000000000000000000000000000000000000000000000000008152600401610bcd90613b3c565b60405180910390fd5b7f000000000000000000000000000000000000000000000000000000000000000073ffffffffffffffffffffffffffffffffffffffff16610c15611a50565b73ffffffffffffffffffffffffffffffffffffffff1614610c6b576040517f08c379a0000000000000000000000000000000000000000000000000000000008152600401610c6290613b9c565b60405180910390fd5b610c7482611aa7565b610c8082826001611b26565b5050565b6000806067600084815260200190815260200160002060009054906101000a900473ffffffffffffffffffffffffffffffffffffffff169050600073ffffffffffffffffffffffffffffffffffffffff168173ffffffffffffffffffffffffffffffffffffffff161415610d2d576040517f08c379a0000000000000000000000000000000000000000000000000000000008152600401610d2490613c1c565b60405180910390fd5b80915050919050565b60008073ffffffffffffffffffffffffffffffffffffffff168273ffffffffffffffffffffffffffffffffffffffff161415610da7576040517f08c379a0000000000000000000000000000000000000000000000000000000008152600401610d9e90613bfc565b60405180910390fd5b606860008373ffffffffffffffffffffffffffffffffffffffff1673ffffffffffffffffffffffffffffffffffffffff168152602001908152602001600020549050919050565b610df6611655565b73ffffffffffffffffffffffffffffffffffffffff16610e14610fdb565b73ffffffffffffffffffffffffffffffffffffffff1614610e6a576040517f08c379a0000000000000000000000000000000000000000000000000000000008152600401610e6190613cbc565b60405180910390fd5b610e746000611e4a565b565b600060019054906101000a900460ff1680610e9c575060008054906101000a900460ff16155b610edb576040517f08c379a0000000000000000000000000000000000000000000000000000000008152600401610ed290613c3c565b60405180910390fd5b60008060019054906101000a900460ff161590508015610f2b576001600060016101000a81548160ff02191690831515021790555060016000806101000a81548160ff0219169083151502179055505b610f9f6040518060400160405280600a81526020017f44616e6b20466c616972000000000000000000000000000000000000000000008152506040518060400160405280600481526020017f44414e4b00000000000000000000000000000000000000000000000000000000815250611f10565b610fa7612005565b610faf6120f6565b610fb76121df565b8015610fd85760008060016101000a81548160ff0219169083151502179055505b50565b600060c960009054906101000a900473ffffffffffffffffffffffffffffffffffffffff16905090565b60606066805461101490613fe0565b80601f016020809104026020016040519081016040528092919081815260200182805461104090613fe0565b801561108d5780601f106110625761010080835404028352916020019161108d565b820191906000526020600020905b81548152906001019060200180831161107057829003601f168201915b5050505050905090565b61109f611655565b73ffffffffffffffffffffffffffffffffffffffff168273ffffffffffffffffffffffffffffffffffffffff16141561110d576040517f08c379a000000000000000000000000000000000000000000000000000000000815260040161110490613b7c565b60405180910390fd5b80606a600061111a611655565b73ffffffffffffffffffffffffffffffffffffffff1673ffffffffffffffffffffffffffffffffffffffff16815260200190815260200160002060008473ffffffffffffffffffffffffffffffffffffffff1673ffffffffffffffffffffffffffffffffffffffff16815260200190815260200160002060006101000a81548160ff0219169083151502179055508173ffffffffffffffffffffffffffffffffffffffff166111c7611655565b73ffffffffffffffffffffffffffffffffffffffff167f17307eab39ab6107e8899845ad3d59bd9653f200f220920489ca2b5937696c318360405161120c9190613a7f565b60405180910390a35050565b611229611223611655565b83611716565b611268576040517f08c379a000000000000000000000000000000000000000000000000000000000815260040161125f90613d5c565b60405180910390fd5b611274848484846122c8565b50505050565b6060611285826115e9565b6112c4576040517f08c379a00000000000000000000000000000000000000000000000000000000081526004016112bb90613cfc565b60405180910390fd5b60006112ce612324565b905060008151116112ee5760405180602001604052806000815250611319565b806112f884612361565b6040516020016113099291906139f4565b6040516020818303038152906040525b915050919050565b6000606a60008473ffffffffffffffffffffffffffffffffffffffff1673ffffffffffffffffffffffffffffffffffffffff16815260200190815260200160002060008373ffffffffffffffffffffffffffffffffffffffff1673ffffffffffffffffffffffffffffffffffffffff16815260200190815260200160002060009054906101000a900460ff16905092915050565b6113bd611655565b73ffffffffffffffffffffffffffffffffffffffff166113db610fdb565b73ffffffffffffffffffffffffffffffffffffffff1614611431576040517f08c379a000000000000000000000000000000000000000000000000000000000815260040161142890613cbc565b60405180910390fd5b60005b8167ffffffffffffffff168167ffffffffffffffff161015611482576114648361145f61015f611cf7565b611d05565b61146f61015f611d23565b808061147a9061408c565b915050611434565b505050565b61148f611655565b73ffffffffffffffffffffffffffffffffffffffff166114ad610fdb565b73ffffffffffffffffffffffffffffffffffffffff1614611503576040517f08c379a00000000000000000000000000000000000000000000000000000000081526004016114fa90613cbc565b60405180910390fd5b600073ffffffffffffffffffffffffffffffffffffffff168173ffffffffffffffffffffffffffffffffffffffff161415611573576040517f08c379a000000000000000000000000000000000000000000000000000000000815260040161156a90613afc565b60405180910390fd5b61157c81611e4a565b50565b60007f01ffc9a7000000000000000000000000000000000000000000000000000000007bffffffffffffffffffffffffffffffffffffffffffffffffffffffff1916827bffffffffffffffffffffffffffffffffffffffffffffffffffffffff1916149050919050565b60008073ffffffffffffffffffffffffffffffffffffffff166067600084815260200190815260200160002060009054906101000a900473ffffffffffffffffffffffffffffffffffffffff1673ffffffffffffffffffffffffffffffffffffffff1614159050919050565b600033905090565b816069600083815260200190815260200160002060006101000a81548173ffffffffffffffffffffffffffffffffffffffff021916908373ffffffffffffffffffffffffffffffffffffffff160217905550808273ffffffffffffffffffffffffffffffffffffffff166116d083610c84565b73ffffffffffffffffffffffffffffffffffffffff167f8c5be1e5ebec7d5bd14f71427d1e84f3dd0314c0f7b2291e5b200ac8c7c3b92560405160405180910390a45050565b6000611721826115e9565b611760576040517f08c379a000000000000000000000000000000000000000000000000000000000815260040161175790613bbc565b60405180910390fd5b600061176b83610c84565b90508073ffffffffffffffffffffffffffffffffffffffff168473ffffffffffffffffffffffffffffffffffffffff1614806117da57508373ffffffffffffffffffffffffffffffffffffffff166117c284610681565b73ffffffffffffffffffffffffffffffffffffffff16145b806117eb57506117ea8185611321565b5b91505092915050565b8273ffffffffffffffffffffffffffffffffffffffff1661181482610c84565b73ffffffffffffffffffffffffffffffffffffffff161461186a576040517f08c379a000000000000000000000000000000000000000000000000000000000815260040161186190613cdc565b60405180910390fd5b600073ffffffffffffffffffffffffffffffffffffffff168273ffffffffffffffffffffffffffffffffffffffff1614156118da576040517f08c379a00000000000000000000000000000000000000000000000000000000081526004016118d190613b5c565b60405180910390fd5b6118e583838361250e565b6118f060008261165d565b6001606860008573ffffffffffffffffffffffffffffffffffffffff1673ffffffffffffffffffffffffffffffffffffffff16815260200190815260200160002060008282546119409190613ee2565b925050819055506001606860008473ffffffffffffffffffffffffffffffffffffffff1673ffffffffffffffffffffffffffffffffffffffff16815260200190815260200160002060008282546119979190613e5b565b92505081905550816067600083815260200190815260200160002060006101000a81548173ffffffffffffffffffffffffffffffffffffffff021916908373ffffffffffffffffffffffffffffffffffffffff160217905550808273ffffffffffffffffffffffffffffffffffffffff168473ffffffffffffffffffffffffffffffffffffffff167fddf252ad1be2c89b69c2b068fc378daa952ba7f163c4a11628f55a4df523b3ef60405160405180910390a4505050565b6000611a7e7f360894a13ba1a3210667c828492db98dca3e2076cc3735a920a3ca505d382bbc60001b612513565b60000160009054906101000a900473ffffffffffffffffffffffffffffffffffffffff16905090565b611aaf611655565b73ffffffffffffffffffffffffffffffffffffffff16611acd610fdb565b73ffffffffffffffffffffffffffffffffffffffff1614611b23576040517f08c379a0000000000000000000000000000000000000000000000000000000008152600401611b1a90613cbc565b60405180910390fd5b50565b6000611b30611a50565b9050611b3b8461251d565b600083511180611b485750815b15611b5957611b5784846125d6565b505b6000611b877f4910fdfa16fed3260ed0e7147f7cc6da11a60208b5b9406d12a635614ffd914360001b6126ba565b90508060000160009054906101000a900460ff16611cf05760018160000160006101000a81548160ff021916908315150217905550611c538583604051602401611bd19190613a18565b6040516020818303038152906040527f3659cfe6000000000000000000000000000000000000000000000000000000007bffffffffffffffffffffffffffffffffffffffffffffffffffffffff19166020820180517bffffffffffffffffffffffffffffffffffffffffffffffffffffffff83818316178352505050506125d6565b5060008160000160006101000a81548160ff021916908315150217905550611c79611a50565b73ffffffffffffffffffffffffffffffffffffffff168273ffffffffffffffffffffffffffffffffffffffff1614611ce6576040517f08c379a0000000000000000000000000000000000000000000000000000000008152600401611cdd90613adc565b60405180910390fd5b611cef856126c4565b5b5050505050565b600081600001549050919050565b611d1f828260405180602001604052806000815250612713565b5050565b6001816000016000828254019250508190555050565b6000611d4482610c84565b9050611d528160008461250e565b611d5d60008361165d565b6001606860008373ffffffffffffffffffffffffffffffffffffffff1673ffffffffffffffffffffffffffffffffffffffff1681526020019081526020016000206000828254611dad9190613ee2565b925050819055506067600083815260200190815260200160002060006101000a81549073ffffffffffffffffffffffffffffffffffffffff021916905581600073ffffffffffffffffffffffffffffffffffffffff168273ffffffffffffffffffffffffffffffffffffffff167fddf252ad1be2c89b69c2b068fc378daa952ba7f163c4a11628f55a4df523b3ef60405160405180910390a45050565b600060c960009054906101000a900473ffffffffffffffffffffffffffffffffffffffff1690508160c960006101000a81548173ffffffffffffffffffffffffffffffffffffffff021916908373ffffffffffffffffffffffffffffffffffffffff1602179055508173ffffffffffffffffffffffffffffffffffffffff168173ffffffffffffffffffffffffffffffffffffffff167f8be0079c531659141344cd1fd0a4f28419497f9722a3daafe3b4186f6b6457e060405160405180910390a35050565b600060019054906101000a900460ff1680611f36575060008054906101000a900460ff16155b611f75576040517f08c379a0000000000000000000000000000000000000000000000000000000008152600401611f6c90613c3c565b60405180910390fd5b60008060019054906101000a900460ff161590508015611fc5576001600060016101000a81548160ff02191690831515021790555060016000806101000a81548160ff0219169083151502179055505b611fcd61276e565b611fd5612847565b611fdf8383612920565b80156120005760008060016101000a81548160ff0219169083151502179055505b505050565b600060019054906101000a900460ff168061202b575060008054906101000a900460ff16155b61206a576040517f08c379a000000000000000000000000000000000000000000000000000000000815260040161206190613c3c565b60405180910390fd5b60008060019054906101000a900460ff1615905080156120ba576001600060016101000a81548160ff02191690831515021790555060016000806101000a81548160ff0219169083151502179055505b6120c261276e565b6120ca612847565b6120d2612a29565b80156120f35760008060016101000a81548160ff0219169083151502179055505b50565b600060019054906101000a900460ff168061211c575060008054906101000a900460ff16155b61215b576040517f08c379a000000000000000000000000000000000000000000000000000000000815260040161215290613c3c565b60405180910390fd5b60008060019054906101000a900460ff1615905080156121ab576001600060016101000a81548160ff02191690831515021790555060016000806101000a81548160ff0219169083151502179055505b6121b361276e565b6121bb612b02565b80156121dc5760008060016101000a81548160ff0219169083151502179055505b50565b600060019054906101000a900460ff1680612205575060008054906101000a900460ff16155b612244576040517f08c379a000000000000000000000000000000000000000000000000000000000815260040161223b90613c3c565b60405180910390fd5b60008060019054906101000a900460ff161590508015612294576001600060016101000a81548160ff02191690831515021790555060016000806101000a81548160ff0219169083151502179055505b61229c612beb565b6122a4612cc4565b80156122c55760008060016101000a81548160ff0219169083151502179055505b50565b6122d38484846117f4565b6122df84848484612d9d565b61231e576040517f08c379a000000000000000000000000000000000000000000000000000000000815260040161231590613abc565b60405180910390fd5b50505050565b60606040518060400160405280602081526020017f68747470733a2f2f64616e6b666c6169722e636c6f75642f6170692f6e66742f815250905090565b606060008214156123a9576040518060400160405280600181526020017f30000000000000000000000000000000000000000000000000000000000000008152509050612509565b600082905060005b600082146123db5780806123c490614043565b915050600a826123d49190613eb1565b91506123b1565b60008167ffffffffffffffff81111561241d577f4e487b7100000000000000000000000000000000000000000000000000000000600052604160045260246000fd5b6040519080825280601f01601f19166020018201604052801561244f5781602001600182028036833780820191505090505b5090505b60008514612502576001826124689190613ee2565b9150600a8561247791906140bd565b60306124839190613e5b565b60f81b8183815181106124bf577f4e487b7100000000000000000000000000000000000000000000000000000000600052603260045260246000fd5b60200101907effffffffffffffffffffffffffffffffffffffffffffffffffffffffffffff1916908160001a905350600a856124fb9190613eb1565b9450612453565b8093505050505b919050565b505050565b6000819050919050565b61252681612f34565b612565576040517f08c379a000000000000000000000000000000000000000000000000000000000815260040161255c90613c9c565b60405180910390fd5b806125927f360894a13ba1a3210667c828492db98dca3e2076cc3735a920a3ca505d382bbc60001b612513565b60000160006101000a81548173ffffffffffffffffffffffffffffffffffffffff021916908373ffffffffffffffffffffffffffffffffffffffff16021790555050565b60606125e183612f34565b612620576040517f08c379a000000000000000000000000000000000000000000000000000000000815260040161261790613d3c565b60405180910390fd5b6000808473ffffffffffffffffffffffffffffffffffffffff168460405161264891906139dd565b600060405180830381855af49150503d8060008114612683576040519150601f19603f3d011682016040523d82523d6000602084013e612688565b606091505b50915091506126b082826040518060600160405280602781526020016148b060279139612f47565b9250505092915050565b6000819050919050565b6126cd8161251d565b8073ffffffffffffffffffffffffffffffffffffffff167fbc7cd75a20ee27fd9adebab32041f755214dbc6bffa90cc0225b39da2e5c2d3b60405160405180910390a250565b61271d8383612fae565b61272a6000848484612d9d565b612769576040517f08c379a000000000000000000000000000000000000000000000000000000000815260040161276090613abc565b60405180910390fd5b505050565b600060019054906101000a900460ff1680612794575060008054906101000a900460ff16155b6127d3576040517f08c379a00000000000000000000000000000000000000000000000000000000081526004016127ca90613c3c565b60405180910390fd5b60008060019054906101000a900460ff161590508015612823576001600060016101000a81548160ff02191690831515021790555060016000806101000a81548160ff0219169083151502179055505b80156128445760008060016101000a81548160ff0219169083151502179055505b50565b600060019054906101000a900460ff168061286d575060008054906101000a900460ff16155b6128ac576040517f08c379a00000000000000000000000000000000000000000000000000000000081526004016128a390613c3c565b60405180910390fd5b60008060019054906101000a900460ff1615905080156128fc576001600060016101000a81548160ff02191690831515021790555060016000806101000a81548160ff0219169083151502179055505b801561291d5760008060016101000a81548160ff0219169083151502179055505b50565b600060019054906101000a900460ff1680612946575060008054906101000a900460ff16155b612985576040517f08c379a000000000000000000000000000000000000000000000000000000000815260040161297c90613c3c565b60405180910390fd5b60008060019054906101000a900460ff1615905080156129d5576001600060016101000a81548160ff02191690831515021790555060016000806101000a81548160ff0219169083151502179055505b82606590805190602001906129eb92919061317c565b508160669080519060200190612a0292919061317c565b508015612a245760008060016101000a81548160ff0219169083151502179055505b505050565b600060019054906101000a900460ff1680612a4f575060008054906101000a900460ff16155b612a8e576040517f08c379a0000000000000000000000000000000000000000000000000000000008152600401612a8590613c3c565b60405180910390fd5b60008060019054906101000a900460ff161590508015612ade576001600060016101000a81548160ff02191690831515021790555060016000806101000a81548160ff0219169083151502179055505b8015612aff5760008060016101000a81548160ff0219169083151502179055505b50565b600060019054906101000a900460ff1680612b28575060008054906101000a900460ff16155b612b67576040517f08c379a0000000000000000000000000000000000000000000000000000000008152600401612b5e90613c3c565b60405180910390fd5b60008060019054906101000a900460ff161590508015612bb7576001600060016101000a81548160ff02191690831515021790555060016000806101000a81548160ff0219169083151502179055505b612bc7612bc2611655565b611e4a565b8015612be85760008060016101000a81548160ff0219169083151502179055505b50565b600060019054906101000a900460ff1680612c11575060008054906101000a900460ff16155b612c50576040517f08c379a0000000000000000000000000000000000000000000000000000000008152600401612c4790613c3c565b60405180910390fd5b60008060019054906101000a900460ff161590508015612ca0576001600060016101000a81548160ff02191690831515021790555060016000806101000a81548160ff0219169083151502179055505b8015612cc15760008060016101000a81548160ff0219169083151502179055505b50565b600060019054906101000a900460ff1680612cea575060008054906101000a900460ff16155b612d29576040517f08c379a0000000000000000000000000000000000000000000000000000000008152600401612d2090613c3c565b60405180910390fd5b60008060019054906101000a900460ff161590508015612d79576001600060016101000a81548160ff02191690831515021790555060016000806101000a81548160ff0219169083151502179055505b8015612d9a5760008060016101000a81548160ff0219169083151502179055505b50565b6000612dbe8473ffffffffffffffffffffffffffffffffffffffff16612f34565b15612f27578373ffffffffffffffffffffffffffffffffffffffff1663150b7a02612de7611655565b8786866040518563ffffffff1660e01b8152600401612e099493929190613a33565b602060405180830381600087803b158015612e2357600080fd5b505af1925050508015612e5457506040513d601f19601f82011682018060405250810190612e519190613565565b60015b612ed7573d8060008114612e84576040519150601f19603f3d011682016040523d82523d6000602084013e612e89565b606091505b50600081511415612ecf576040517f08c379a0000000000000000000000000000000000000000000000000000000008152600401612ec690613abc565b60405180910390fd5b805181602001fd5b63150b7a0260e01b7bffffffffffffffffffffffffffffffffffffffffffffffffffffffff1916817bffffffffffffffffffffffffffffffffffffffffffffffffffffffff191614915050612f2c565b600190505b949350505050565b600080823b905060008111915050919050565b60608315612f5757829050612fa7565b600083511115612f6a5782518084602001fd5b816040517f08c379a0000000000000000000000000000000000000000000000000000000008152600401612f9e9190613a9a565b60405180910390fd5b9392505050565b600073ffffffffffffffffffffffffffffffffffffffff168273ffffffffffffffffffffffffffffffffffffffff16141561301e576040517f08c379a000000000000000000000000000000000000000000000000000000000815260040161301590613c5c565b60405180910390fd5b613027816115e9565b15613067576040517f08c379a000000000000000000000000000000000000000000000000000000000815260040161305e90613b1c565b60405180910390fd5b6130736000838361250e565b6001606860008473ffffffffffffffffffffffffffffffffffffffff1673ffffffffffffffffffffffffffffffffffffffff16815260200190815260200160002060008282546130c39190613e5b565b92505081905550816067600083815260200190815260200160002060006101000a81548173ffffffffffffffffffffffffffffffffffffffff021916908373ffffffffffffffffffffffffffffffffffffffff160217905550808273ffffffffffffffffffffffffffffffffffffffff16600073ffffffffffffffffffffffffffffffffffffffff167fddf252ad1be2c89b69c2b068fc378daa952ba7f163c4a11628f55a4df523b3ef60405160405180910390a45050565b82805461318890613fe0565b90600052602060002090601f0160209004810192826131aa57600085556131f1565b82601f106131c357805160ff19168380011785556131f1565b828001600101855582156131f1579182015b828111156131f05782518255916020019190600101906131d5565b5b5090506131fe9190613202565b5090565b5b8082111561321b576000816000905550600101613203565b5090565b600061323261322d84613ddc565b613db7565b90508281526020810184848401111561324a57600080fd5b613255848285613f9e565b509392505050565b60008135905061326c8161483c565b92915050565b60008135905061328181614853565b92915050565b6000813590506132968161486a565b92915050565b6000815190506132ab8161486a565b92915050565b600082601f8301126132c257600080fd5b81356132d284826020860161321f565b91505092915050565b6000813590506132ea81614881565b92915050565b6000813590506132ff81614898565b92915050565b60006020828403121561331757600080fd5b60006133258482850161325d565b91505092915050565b6000806040838503121561334157600080fd5b600061334f8582860161325d565b92505060206133608582860161325d565b9150509250929050565b60008060006060848603121561337f57600080fd5b600061338d8682870161325d565b935050602061339e8682870161325d565b92505060406133af868287016132db565b9150509250925092565b600080600080608085870312156133cf57600080fd5b60006133dd8782880161325d565b94505060206133ee8782880161325d565b93505060406133ff878288016132db565b925050606085013567ffffffffffffffff81111561341c57600080fd5b613428878288016132b1565b91505092959194509250565b6000806040838503121561344757600080fd5b60006134558582860161325d565b925050602061346685828601613272565b9150509250929050565b6000806040838503121561348357600080fd5b60006134918582860161325d565b925050602083013567ffffffffffffffff8111156134ae57600080fd5b6134ba858286016132b1565b9150509250929050565b600080604083850312156134d757600080fd5b60006134e58582860161325d565b92505060206134f6858286016132db565b9150509250929050565b6000806040838503121561351357600080fd5b60006135218582860161325d565b9250506020613532858286016132f0565b9150509250929050565b60006020828403121561354e57600080fd5b600061355c84828501613287565b91505092915050565b60006020828403121561357757600080fd5b60006135858482850161329c565b91505092915050565b6000602082840312156135a057600080fd5b60006135ae848285016132db565b91505092915050565b6135c081613f16565b82525050565b6135cf81613f28565b82525050565b60006135e082613e0d565b6135ea8185613e23565b93506135fa818560208601613fad565b613603816141aa565b840191505092915050565b600061361982613e0d565b6136238185613e34565b9350613633818560208601613fad565b80840191505092915050565b600061364a82613e18565b6136548185613e3f565b9350613664818560208601613fad565b61366d816141aa565b840191505092915050565b600061368382613e18565b61368d8185613e50565b935061369d818560208601613fad565b80840191505092915050565b60006136b6603283613e3f565b91506136c1826141bb565b604082019050919050565b60006136d9602f83613e3f565b91506136e48261420a565b604082019050919050565b60006136fc602683613e3f565b915061370782614259565b604082019050919050565b600061371f601c83613e3f565b915061372a826142a8565b602082019050919050565b6000613742602c83613e3f565b915061374d826142d1565b604082019050919050565b6000613765602483613e3f565b915061377082614320565b604082019050919050565b6000613788601983613e3f565b91506137938261436f565b602082019050919050565b60006137ab602c83613e3f565b91506137b682614398565b604082019050919050565b60006137ce602c83613e3f565b91506137d9826143e7565b604082019050919050565b60006137f1603883613e3f565b91506137fc82614436565b604082019050919050565b6000613814602a83613e3f565b915061381f82614485565b604082019050919050565b6000613837602983613e3f565b9150613842826144d4565b604082019050919050565b600061385a602e83613e3f565b915061386582614523565b604082019050919050565b600061387d602083613e3f565b915061388882614572565b602082019050919050565b60006138a0602c83613e3f565b91506138ab8261459b565b604082019050919050565b60006138c3602d83613e3f565b91506138ce826145ea565b604082019050919050565b60006138e6602083613e3f565b91506138f182614639565b602082019050919050565b6000613909602983613e3f565b915061391482614662565b604082019050919050565b600061392c602f83613e3f565b9150613937826146b1565b604082019050919050565b600061394f602183613e3f565b915061395a82614700565b604082019050919050565b6000613972602683613e3f565b915061397d8261474f565b604082019050919050565b6000613995603183613e3f565b91506139a08261479e565b604082019050919050565b60006139b8603083613e3f565b91506139c3826147ed565b604082019050919050565b6139d781613f80565b82525050565b60006139e9828461360e565b915081905092915050565b6000613a008285613678565b9150613a0c8284613678565b91508190509392505050565b6000602082019050613a2d60008301846135b7565b92915050565b6000608082019050613a4860008301876135b7565b613a5560208301866135b7565b613a6260408301856139ce565b8181036060830152613a7481846135d5565b905095945050505050565b6000602082019050613a9460008301846135c6565b92915050565b60006020820190508181036000830152613ab4818461363f565b905092915050565b60006020820190508181036000830152613ad5816136a9565b9050919050565b60006020820190508181036000830152613af5816136cc565b9050919050565b60006020820190508181036000830152613b15816136ef565b9050919050565b60006020820190508181036000830152613b3581613712565b9050919050565b60006020820190508181036000830152613b5581613735565b9050919050565b60006020820190508181036000830152613b7581613758565b9050919050565b60006020820190508181036000830152613b958161377b565b9050919050565b60006020820190508181036000830152613bb58161379e565b9050919050565b60006020820190508181036000830152613bd5816137c1565b9050919050565b60006020820190508181036000830152613bf5816137e4565b9050919050565b60006020820190508181036000830152613c1581613807565b9050919050565b60006020820190508181036000830152613c358161382a565b9050919050565b60006020820190508181036000830152613c558161384d565b9050919050565b60006020820190508181036000830152613c7581613870565b9050919050565b60006020820190508181036000830152613c9581613893565b9050919050565b60006020820190508181036000830152613cb5816138b6565b9050919050565b60006020820190508181036000830152613cd5816138d9565b9050919050565b60006020820190508181036000830152613cf5816138fc565b9050919050565b60006020820190508181036000830152613d158161391f565b9050919050565b60006020820190508181036000830152613d3581613942565b9050919050565b60006020820190508181036000830152613d5581613965565b9050919050565b60006020820190508181036000830152613d7581613988565b9050919050565b60006020820190508181036000830152613d95816139ab565b9050919050565b6000602082019050613db160008301846139ce565b92915050565b6000613dc1613dd2565b9050613dcd8282614012565b919050565b6000604051905090565b600067ffffffffffffffff821115613df757613df661417b565b5b613e00826141aa565b9050602081019050919050565b600081519050919050565b600081519050919050565b600082825260208201905092915050565b600081905092915050565b600082825260208201905092915050565b600081905092915050565b6000613e6682613f80565b9150613e7183613f80565b9250827fffffffffffffffffffffffffffffffffffffffffffffffffffffffffffffffff03821115613ea657613ea56140ee565b5b828201905092915050565b6000613ebc82613f80565b9150613ec783613f80565b925082613ed757613ed661411d565b5b828204905092915050565b6000613eed82613f80565b9150613ef883613f80565b925082821015613f0b57613f0a6140ee565b5b828203905092915050565b6000613f2182613f60565b9050919050565b60008115159050919050565b60007fffffffff0000000000000000000000000000000000000000000000000000000082169050919050565b600073ffffffffffffffffffffffffffffffffffffffff82169050919050565b6000819050919050565b600067ffffffffffffffff82169050919050565b82818337600083830152505050565b60005b83811015613fcb578082015181840152602081019050613fb0565b83811115613fda576000848401525b50505050565b60006002820490506001821680613ff857607f821691505b6020821081141561400c5761400b61414c565b5b50919050565b61401b826141aa565b810181811067ffffffffffffffff8211171561403a5761403961417b565b5b80604052505050565b600061404e82613f80565b91507fffffffffffffffffffffffffffffffffffffffffffffffffffffffffffffffff821415614081576140806140ee565b5b600182019050919050565b600061409782613f8a565b915067ffffffffffffffff8214156140b2576140b16140ee565b5b600182019050919050565b60006140c882613f80565b91506140d383613f80565b9250826140e3576140e261411d565b5b828206905092915050565b7f4e487b7100000000000000000000000000000000000000000000000000000000600052601160045260246000fd5b7f4e487b7100000000000000000000000000000000000000000000000000000000600052601260045260246000fd5b7f4e487b7100000000000000000000000000000000000000000000000000000000600052602260045260246000fd5b7f4e487b7100000000000000000000000000000000000000000000000000000000600052604160045260246000fd5b6000601f19601f8301169050919050565b7f4552433732313a207472616e7366657220746f206e6f6e20455243373231526560008201527f63656976657220696d706c656d656e7465720000000000000000000000000000602082015250565b7f45524331393637557067726164653a207570677261646520627265616b73206660008201527f7572746865722075706772616465730000000000000000000000000000000000602082015250565b7f4f776e61626c653a206e6577206f776e657220697320746865207a65726f206160008201527f6464726573730000000000000000000000000000000000000000000000000000602082015250565b7f4552433732313a20746f6b656e20616c7265616479206d696e74656400000000600082015250565b7f46756e6374696f6e206d7573742062652063616c6c6564207468726f7567682060008201527f64656c656761746563616c6c0000000000000000000000000000000000000000602082015250565b7f4552433732313a207472616e7366657220746f20746865207a65726f2061646460008201527f7265737300000000000000000000000000000000000000000000000000000000602082015250565b7f4552433732313a20617070726f766520746f2063616c6c657200000000000000600082015250565b7f46756e6374696f6e206d7573742062652063616c6c6564207468726f7567682060008201527f6163746976652070726f78790000000000000000000000000000000000000000602082015250565b7f4552433732313a206f70657261746f7220717565727920666f72206e6f6e657860008201527f697374656e7420746f6b656e0000000000000000000000000000000000000000602082015250565b7f4552433732313a20617070726f76652063616c6c6572206973206e6f74206f7760008201527f6e6572206e6f7220617070726f76656420666f7220616c6c0000000000000000602082015250565b7f4552433732313a2062616c616e636520717565727920666f7220746865207a6560008201527f726f206164647265737300000000000000000000000000000000000000000000602082015250565b7f4552433732313a206f776e657220717565727920666f72206e6f6e657869737460008201527f656e7420746f6b656e0000000000000000000000000000000000000000000000602082015250565b7f496e697469616c697a61626c653a20636f6e747261637420697320616c72656160008201527f647920696e697469616c697a6564000000000000000000000000000000000000602082015250565b7f4552433732313a206d696e7420746f20746865207a65726f2061646472657373600082015250565b7f4552433732313a20617070726f76656420717565727920666f72206e6f6e657860008201527f697374656e7420746f6b656e0000000000000000000000000000000000000000602082015250565b7f455243313936373a206e657720696d706c656d656e746174696f6e206973206e60008201527f6f74206120636f6e747261637400000000000000000000000000000000000000602082015250565b7f4f776e61626c653a2063616c6c6572206973206e6f7420746865206f776e6572600082015250565b7f4552433732313a207472616e73666572206f6620746f6b656e2074686174206960008201527f73206e6f74206f776e0000000000000000000000000000000000000000000000602082015250565b7f4552433732314d657461646174613a2055524920717565727920666f72206e6f60008201527f6e6578697374656e7420746f6b656e0000000000000000000000000000000000602082015250565b7f4552433732313a20617070726f76616c20746f2063757272656e74206f776e6560008201527f7200000000000000000000000000000000000000000000000000000000000000602082015250565b7f416464726573733a2064656c65676174652063616c6c20746f206e6f6e2d636f60008201527f6e74726163740000000000000000000000000000000000000000000000000000602082015250565b7f4552433732313a207472616e736665722063616c6c6572206973206e6f74206f60008201527f776e6572206e6f7220617070726f766564000000000000000000000000000000602082015250565b7f4552433732314275726e61626c653a2063616c6c6572206973206e6f74206f7760008201527f6e6572206e6f7220617070726f76656400000000000000000000000000000000602082015250565b61484581613f16565b811461485057600080fd5b50565b61485c81613f28565b811461486757600080fd5b50565b61487381613f34565b811461487e57600080fd5b50565b61488a81613f80565b811461489557600080fd5b50565b6148a181613f8a565b81146148ac57600080fd5b5056fe416464726573733a206c6f772d6c6576656c2064656c65676174652063616c6c206661696c6564a2646970667358221220c5448052483b5ca07262b3312b17ba842259537edc0f711a053c2c241d66b65964736f6c63430008020033",
  "linkReferences": {},
  "deployedLinkReferences": {}
}