{
  "_format": "hh-sol-artifact-1",
  "contractName": "DankFusion",
  "sourceName": "contracts/DankFusion.sol",
  "abi": [
    {
      "inputs": [],
      "stateMutability": "nonpayable",
      "type": "constructor"
    },
    {
      "anonymous": false,
      "inputs": [
        {
          "indexed": false,
          "internalType": "address",
          "name": "previousAdmin",
          "type": "address"
        },
        {
          "indexed": false,
          "internalType": "address",
          "name": "newAdmin",
          "type": "address"
        }
      ],
      "name": "AdminChanged",
      "type": "event"
    },
    {
      "anonymous": false,
      "inputs": [
        {
          "indexed": true,
          "internalType": "address",
          "name": "owner",
          "type": "address"
        },
        {
          "indexed": true,
          "internalType": "address",
          "name": "approved",
          "type": "address"
        },
        {
          "indexed": true,
          "internalType": "uint256",
          "name": "tokenId",
          "type": "uint256"
        }
      ],
      "name": "Approval",
      "type": "event"
    },
    {
      "anonymous": false,
      "inputs": [
        {
          "indexed": true,
          "internalType": "address",
          "name": "owner",
          "type": "address"
        },
        {
          "indexed": true,
          "internalType": "address",
          "name": "operator",
          "type": "address"
        },
        {
          "indexed": false,
          "internalType": "bool",
          "name": "approved",
          "type": "bool"
        }
      ],
      "name": "ApprovalForAll",
      "type": "event"
    },
    {
      "anonymous": false,
      "inputs": [
        {
          "indexed": true,
          "internalType": "address",
          "name": "beacon",
          "type": "address"
        }
      ],
      "name": "BeaconUpgraded",
      "type": "event"
    },
    {
      "anonymous": false,
      "inputs": [
        {
          "indexed": true,
          "internalType": "address",
          "name": "previousOwner",
          "type": "address"
        },
        {
          "indexed": true,
          "internalType": "address",
          "name": "newOwner",
          "type": "address"
        }
      ],
      "name": "OwnershipTransferred",
      "type": "event"
    },
    {
      "anonymous": false,
      "inputs": [
        {
          "indexed": true,
          "internalType": "address",
          "name": "from",
          "type": "address"
        },
        {
          "indexed": true,
          "internalType": "address",
          "name": "to",
          "type": "address"
        },
        {
          "indexed": true,
          "internalType": "uint256",
          "name": "tokenId",
          "type": "uint256"
        }
      ],
      "name": "Transfer",
      "type": "event"
    },
    {
      "anonymous": false,
      "inputs": [
        {
          "indexed": true,
          "internalType": "address",
          "name": "implementation",
          "type": "address"
        }
      ],
      "name": "Upgraded",
      "type": "event"
    },
    {
      "inputs": [
        {
          "internalType": "address",
          "name": "to",
          "type": "address"
        },
        {
          "internalType": "uint256",
          "name": "tokenId",
          "type": "uint256"
        }
      ],
      "name": "approve",
      "outputs": [],
      "stateMutability": "nonpayable",
      "type": "function"
    },
    {
      "inputs": [
        {
          "internalType": "address",
          "name": "owner",
          "type": "address"
        }
      ],
      "name": "balanceOf",
      "outputs": [
        {
          "internalType": "uint256",
          "name": "",
          "type": "uint256"
        }
      ],
      "stateMutability": "view",
      "type": "function"
    },
    {
      "inputs": [
        {
          "internalType": "uint256",
          "name": "tokenId",
          "type": "uint256"
        }
      ],
      "name": "burn",
      "outputs": [],
      "stateMutability": "nonpayable",
      "type": "function"
    },
    {
      "inputs": [],
      "name": "fusionIndex",
      "outputs": [
        {
          "internalType": "uint256",
          "name": "",
          "type": "uint256"
        }
      ],
      "stateMutability": "view",
      "type": "function"
    },
    {
      "inputs": [
        {
          "internalType": "uint256",
          "name": "tokenId",
          "type": "uint256"
        }
      ],
      "name": "fusionInfo",
      "outputs": [
        {
          "internalType": "contract ERC721",
          "name": "",
          "type": "address"
        },
        {
          "internalType": "uint256",
          "name": "",
          "type": "uint256"
        },
        {
          "internalType": "uint256",
          "name": "",
          "type": "uint256"
        }
      ],
      "stateMutability": "view",
      "type": "function"
    },
    {
      "inputs": [
        {
          "internalType": "uint256",
          "name": "tokenId",
          "type": "uint256"
        }
      ],
      "name": "getApproved",
      "outputs": [
        {
          "internalType": "address",
          "name": "",
          "type": "address"
        }
      ],
      "stateMutability": "view",
      "type": "function"
    },
    {
      "inputs": [
        {
          "internalType": "contract ERC721",
          "name": "dankContract",
          "type": "address"
        }
      ],
      "name": "initialize",
      "outputs": [],
      "stateMutability": "nonpayable",
      "type": "function"
    },
    {
      "inputs": [
        {
          "internalType": "address",
          "name": "owner",
          "type": "address"
        },
        {
          "internalType": "address",
          "name": "operator",
          "type": "address"
        }
      ],
      "name": "isApprovedForAll",
      "outputs": [
        {
          "internalType": "bool",
          "name": "",
          "type": "bool"
        }
      ],
      "stateMutability": "view",
      "type": "function"
    },
    {
      "inputs": [],
      "name": "name",
      "outputs": [
        {
          "internalType": "string",
          "name": "",
          "type": "string"
        }
      ],
      "stateMutability": "view",
      "type": "function"
    },
    {
      "inputs": [],
      "name": "owner",
      "outputs": [
        {
          "internalType": "address",
          "name": "",
          "type": "address"
        }
      ],
      "stateMutability": "view",
      "type": "function"
    },
    {
      "inputs": [
        {
          "internalType": "uint256",
          "name": "tokenId",
          "type": "uint256"
        }
      ],
      "name": "ownerOf",
      "outputs": [
        {
          "internalType": "address",
          "name": "",
          "type": "address"
        }
      ],
      "stateMutability": "view",
      "type": "function"
    },
    {
      "inputs": [],
      "name": "renounceOwnership",
      "outputs": [],
      "stateMutability": "nonpayable",
      "type": "function"
    },
    {
      "inputs": [
        {
          "internalType": "address",
          "name": "to",
          "type": "address"
        },
        {
          "internalType": "contract ERC721",
          "name": "fusionContract",
          "type": "address"
        },
        {
          "internalType": "uint256",
          "name": "dankId",
          "type": "uint256"
        },
        {
          "internalType": "uint256",
          "name": "fusionId",
          "type": "uint256"
        }
      ],
      "name": "safeMint",
      "outputs": [],
      "stateMutability": "nonpayable",
      "type": "function"
    },
    {
      "inputs": [
        {
          "internalType": "address",
          "name": "to",
          "type": "address"
        },
        {
          "internalType": "contract ERC721",
          "name": "fusionContract",
          "type": "address"
        },
        {
          "internalType": "uint256",
          "name": "dankId",
          "type": "uint256"
        },
        {
          "internalType": "uint256",
          "name": "fusionId",
          "type": "uint256"
        }
      ],
      "name": "safeMintFusion",
      "outputs": [],
      "stateMutability": "payable",
      "type": "function"
    },
    {
      "inputs": [
        {
          "internalType": "address",
          "name": "from",
          "type": "address"
        },
        {
          "internalType": "address",
          "name": "to",
          "type": "address"
        },
        {
          "internalType": "uint256",
          "name": "tokenId",
          "type": "uint256"
        }
      ],
      "name": "safeTransferFrom",
      "outputs": [],
      "stateMutability": "nonpayable",
      "type": "function"
    },
    {
      "inputs": [
        {
          "internalType": "address",
          "name": "from",
          "type": "address"
        },
        {
          "internalType": "address",
          "name": "to",
          "type": "address"
        },
        {
          "internalType": "uint256",
          "name": "tokenId",
          "type": "uint256"
        },
        {
          "internalType": "bytes",
          "name": "_data",
          "type": "bytes"
        }
      ],
      "name": "safeTransferFrom",
      "outputs": [],
      "stateMutability": "nonpayable",
      "type": "function"
    },
    {
      "inputs": [
        {
          "internalType": "address",
          "name": "operator",
          "type": "address"
        },
        {
          "internalType": "bool",
          "name": "approved",
          "type": "bool"
        }
      ],
      "name": "setApprovalForAll",
      "outputs": [],
      "stateMutability": "nonpayable",
      "type": "function"
    },
    {
      "inputs": [
        {
          "internalType": "bytes4",
          "name": "interfaceId",
          "type": "bytes4"
        }
      ],
      "name": "supportsInterface",
      "outputs": [
        {
          "internalType": "bool",
          "name": "",
          "type": "bool"
        }
      ],
      "stateMutability": "view",
      "type": "function"
    },
    {
      "inputs": [],
      "name": "symbol",
      "outputs": [
        {
          "internalType": "string",
          "name": "",
          "type": "string"
        }
      ],
      "stateMutability": "view",
      "type": "function"
    },
    {
      "inputs": [
        {
          "internalType": "uint256",
          "name": "tokenId",
          "type": "uint256"
        }
      ],
      "name": "tokenURI",
      "outputs": [
        {
          "internalType": "string",
          "name": "",
          "type": "string"
        }
      ],
      "stateMutability": "view",
      "type": "function"
    },
    {
      "inputs": [
        {
          "internalType": "address",
          "name": "from",
          "type": "address"
        },
        {
          "internalType": "address",
          "name": "to",
          "type": "address"
        },
        {
          "internalType": "uint256",
          "name": "tokenId",
          "type": "uint256"
        }
      ],
      "name": "transferFrom",
      "outputs": [],
      "stateMutability": "nonpayable",
      "type": "function"
    },
    {
      "inputs": [
        {
          "internalType": "address",
          "name": "newOwner",
          "type": "address"
        }
      ],
      "name": "transferOwnership",
      "outputs": [],
      "stateMutability": "nonpayable",
      "type": "function"
    },
    {
      "inputs": [
        {
          "internalType": "address",
          "name": "newImplementation",
          "type": "address"
        }
      ],
      "name": "upgradeTo",
      "outputs": [],
      "stateMutability": "nonpayable",
      "type": "function"
    },
    {
      "inputs": [
        {
          "internalType": "address",
          "name": "newImplementation",
          "type": "address"
        },
        {
          "internalType": "bytes",
          "name": "data",
          "type": "bytes"
        }
      ],
      "name": "upgradeToAndCall",
      "outputs": [],
      "stateMutability": "payable",
      "type": "function"
    }
  ],
  "bytecode": "0x60a06040523073ffffffffffffffffffffffffffffffffffffffff1660809073ffffffffffffffffffffffffffffffffffffffff1660601b8152503480156200004757600080fd5b50600060019054906101000a900460ff16806200006f575060008054906101000a900460ff16155b620000b1576040517f08c379a0000000000000000000000000000000000000000000000000000000008152600401620000a89062000152565b60405180910390fd5b60008060019054906101000a900460ff16159050801562000102576001600060016101000a81548160ff02191690831515021790555060016000806101000a81548160ff0219169083151502179055505b8015620001245760008060016101000a81548160ff0219169083151502179055505b50620001d4565b60006200013a602e8362000174565b9150620001478262000185565b604082019050919050565b600060208201905081810360008301526200016d816200012b565b9050919050565b600082825260208201905092915050565b7f496e697469616c697a61626c653a20636f6e747261637420697320616c72656160008201527f647920696e697469616c697a6564000000000000000000000000000000000000602082015250565b60805160601c614ea46200020860003960008181610a3301528181610ac201528181610c5e0152610ced0152614ea46000f3fe60806040526004361061014b5760003560e01c80636352211e116100b6578063b88d4fde1161006f578063b88d4fde14610472578063c4d66de81461049b578063c87b56dd146104c4578063c9826cec14610501578063e985e9c51461052c578063f2fde38b146105695761014b565b80636352211e1461036257806370a082311461039f578063715018a6146103dc5780638da5cb5b146103f357806395d89b411461041e578063a22cb465146104495761014b565b806323b872dd1161010857806323b872dd146102865780633659cfe6146102af57806342842e0e146102d857806342966c68146103015780634f1ef2861461032a578063523dd317146103465761014b565b806301ffc9a71461015057806303321f121461018d57806306fdde03146101cc578063081812fc146101f7578063095ea7b314610234578063149af1ca1461025d575b600080fd5b34801561015c57600080fd5b5061017760048036038101906101729190613950565b610592565b6040516101849190613f11565b60405180910390f35b34801561019957600080fd5b506101b460048036038101906101af91906139cb565b610674565b6040516101c393929190613f2c565b60405180910390f35b3480156101d857600080fd5b506101e16106f6565b6040516101ee9190613f63565b60405180910390f35b34801561020357600080fd5b5061021e600480360381019061021991906139cb565b610788565b60405161022b9190613eaa565b60405180910390f35b34801561024057600080fd5b5061025b60048036038101906102569190613914565b61080d565b005b34801561026957600080fd5b50610284600480360381019061027f91906138b1565b610925565b005b34801561029257600080fd5b506102ad60048036038101906102a89190613757565b6109d1565b005b3480156102bb57600080fd5b506102d660048036038101906102d191906136c9565b610a31565b005b3480156102e457600080fd5b506102ff60048036038101906102fa9190613757565b610be0565b005b34801561030d57600080fd5b50610328600480360381019061032391906139cb565b610c00565b005b610344600480360381019061033f919061385d565b610c5c565b005b610360600480360381019061035b91906138b1565b610d99565b005b34801561036e57600080fd5b50610389600480360381019061038491906139cb565b610ddd565b6040516103969190613eaa565b60405180910390f35b3480156103ab57600080fd5b506103c660048036038101906103c191906136c9565b610e8f565b6040516103d391906142a5565b60405180910390f35b3480156103e857600080fd5b506103f1610f47565b005b3480156103ff57600080fd5b50610408610fcf565b6040516104159190613eaa565b60405180910390f35b34801561042a57600080fd5b50610433610ff9565b6040516104409190613f63565b60405180910390f35b34801561045557600080fd5b50610470600480360381019061046b9190613821565b61108b565b005b34801561047e57600080fd5b50610499600480360381019061049491906137a6565b61120c565b005b3480156104a757600080fd5b506104c260048036038101906104bd91906139a2565b61126e565b005b3480156104d057600080fd5b506104eb60048036038101906104e691906139cb565b611458565b6040516104f89190613f63565b60405180910390f35b34801561050d57600080fd5b506105166114ff565b60405161052391906142a5565b60405180910390f35b34801561053857600080fd5b50610553600480360381019061054e919061371b565b611511565b6040516105609190613f11565b60405180910390f35b34801561057557600080fd5b50610590600480360381019061058b91906136c9565b6115a5565b005b60007f80ac58cd000000000000000000000000000000000000000000000000000000007bffffffffffffffffffffffffffffffffffffffffffffffffffffffff1916827bffffffffffffffffffffffffffffffffffffffffffffffffffffffff1916148061065d57507f5b5e139f000000000000000000000000000000000000000000000000000000007bffffffffffffffffffffffffffffffffffffffffffffffffffffffff1916827bffffffffffffffffffffffffffffffffffffffffffffffffffffffff1916145b8061066d575061066c8261169d565b5b9050919050565b600080600080610162600086815260200190815260200160002060009054906101000a900473ffffffffffffffffffffffffffffffffffffffff16905060006101636000878152602001908152602001600020549050600061016460008881526020019081526020016000205490508282829550955095505050509193909250565b6060606580546107059061450b565b80601f01602080910402602001604051908101604052809291908181526020018280546107319061450b565b801561077e5780601f106107535761010080835404028352916020019161077e565b820191906000526020600020905b81548152906001019060200180831161076157829003601f168201915b5050505050905090565b600061079382611707565b6107d2576040517f08c379a00000000000000000000000000000000000000000000000000000000081526004016107c990614165565b60405180910390fd5b6069600083815260200190815260200160002060009054906101000a900473ffffffffffffffffffffffffffffffffffffffff169050919050565b600061081882610ddd565b90508073ffffffffffffffffffffffffffffffffffffffff168373ffffffffffffffffffffffffffffffffffffffff161415610889576040517f08c379a000000000000000000000000000000000000000000000000000000000815260040161088090614205565b60405180910390fd5b8073ffffffffffffffffffffffffffffffffffffffff166108a8611773565b73ffffffffffffffffffffffffffffffffffffffff1614806108d757506108d6816108d1611773565b611511565b5b610916576040517f08c379a000000000000000000000000000000000000000000000000000000000815260040161090d906140c5565b60405180910390fd5b610920838361177b565b505050565b61092d611773565b73ffffffffffffffffffffffffffffffffffffffff1661094b610fcf565b73ffffffffffffffffffffffffffffffffffffffff16146109a1576040517f08c379a0000000000000000000000000000000000000000000000000000000008152600401610998906141a5565b60405180910390fd5b6109b5846109b061015f611834565b611842565b6109c0838383611860565b6109cb61015f611b17565b50505050565b6109e26109dc611773565b82611b2d565b610a21576040517f08c379a0000000000000000000000000000000000000000000000000000000008152600401610a1890614245565b60405180910390fd5b610a2c838383611c0b565b505050565b7f000000000000000000000000000000000000000000000000000000000000000073ffffffffffffffffffffffffffffffffffffffff163073ffffffffffffffffffffffffffffffffffffffff161415610ac0576040517f08c379a0000000000000000000000000000000000000000000000000000000008152600401610ab790614005565b60405180910390fd5b7f000000000000000000000000000000000000000000000000000000000000000073ffffffffffffffffffffffffffffffffffffffff16610aff611e67565b73ffffffffffffffffffffffffffffffffffffffff1614610b55576040517f08c379a0000000000000000000000000000000000000000000000000000000008152600401610b4c90614085565b60405180910390fd5b610b5e81611ebe565b610bdd81600067ffffffffffffffff811115610ba3577f4e487b7100000000000000000000000000000000000000000000000000000000600052604160045260246000fd5b6040519080825280601f01601f191660200182016040528015610bd55781602001600182028036833780820191505090505b506000611f3d565b50565b610bfb8383836040518060200160405280600081525061120c565b505050565b610c11610c0b611773565b82611b2d565b610c50576040517f08c379a0000000000000000000000000000000000000000000000000000000008152600401610c4790614285565b60405180910390fd5b610c598161210e565b50565b7f000000000000000000000000000000000000000000000000000000000000000073ffffffffffffffffffffffffffffffffffffffff163073ffffffffffffffffffffffffffffffffffffffff161415610ceb576040517f08c379a0000000000000000000000000000000000000000000000000000000008152600401610ce290614005565b60405180910390fd5b7f000000000000000000000000000000000000000000000000000000000000000073ffffffffffffffffffffffffffffffffffffffff16610d2a611e67565b73ffffffffffffffffffffffffffffffffffffffff1614610d80576040517f08c379a0000000000000000000000000000000000000000000000000000000008152600401610d7790614085565b60405180910390fd5b610d8982611ebe565b610d9582826001611f3d565b5050565b662386f26fc10000341015610dad57600080fd5b610dc184610dbc61015f611834565b611842565b610dcc838383611860565b610dd761015f611b17565b50505050565b6000806067600084815260200190815260200160002060009054906101000a900473ffffffffffffffffffffffffffffffffffffffff169050600073ffffffffffffffffffffffffffffffffffffffff168173ffffffffffffffffffffffffffffffffffffffff161415610e86576040517f08c379a0000000000000000000000000000000000000000000000000000000008152600401610e7d90614105565b60405180910390fd5b80915050919050565b60008073ffffffffffffffffffffffffffffffffffffffff168273ffffffffffffffffffffffffffffffffffffffff161415610f00576040517f08c379a0000000000000000000000000000000000000000000000000000000008152600401610ef7906140e5565b60405180910390fd5b606860008373ffffffffffffffffffffffffffffffffffffffff1673ffffffffffffffffffffffffffffffffffffffff168152602001908152602001600020549050919050565b610f4f611773565b73ffffffffffffffffffffffffffffffffffffffff16610f6d610fcf565b73ffffffffffffffffffffffffffffffffffffffff1614610fc3576040517f08c379a0000000000000000000000000000000000000000000000000000000008152600401610fba906141a5565b60405180910390fd5b610fcd600061221f565b565b600060c960009054906101000a900473ffffffffffffffffffffffffffffffffffffffff16905090565b6060606680546110089061450b565b80601f01602080910402602001604051908101604052809291908181526020018280546110349061450b565b80156110815780601f1061105657610100808354040283529160200191611081565b820191906000526020600020905b81548152906001019060200180831161106457829003601f168201915b5050505050905090565b611093611773565b73ffffffffffffffffffffffffffffffffffffffff168273ffffffffffffffffffffffffffffffffffffffff161415611101576040517f08c379a00000000000000000000000000000000000000000000000000000000081526004016110f890614045565b60405180910390fd5b80606a600061110e611773565b73ffffffffffffffffffffffffffffffffffffffff1673ffffffffffffffffffffffffffffffffffffffff16815260200190815260200160002060008473ffffffffffffffffffffffffffffffffffffffff1673ffffffffffffffffffffffffffffffffffffffff16815260200190815260200160002060006101000a81548160ff0219169083151502179055508173ffffffffffffffffffffffffffffffffffffffff166111bb611773565b73ffffffffffffffffffffffffffffffffffffffff167f17307eab39ab6107e8899845ad3d59bd9653f200f220920489ca2b5937696c31836040516112009190613f11565b60405180910390a35050565b61121d611217611773565b83611b2d565b61125c576040517f08c379a000000000000000000000000000000000000000000000000000000000815260040161125390614245565b60405180910390fd5b611268848484846122e5565b50505050565b600060019054906101000a900460ff1680611294575060008054906101000a900460ff16155b6112d3576040517f08c379a00000000000000000000000000000000000000000000000000000000081526004016112ca90614125565b60405180910390fd5b60008060019054906101000a900460ff161590508015611323576001600060016101000a81548160ff02191690831515021790555060016000806101000a81548160ff0219169083151502179055505b6113976040518060400160405280601081526020017f44616e6b20467573696f6e204e465473000000000000000000000000000000008152506040518060400160405280600481526020017f44414e4b00000000000000000000000000000000000000000000000000000000815250612341565b61139f612436565b6113a7612527565b6113af612610565b8161016160006101000a81548173ffffffffffffffffffffffffffffffffffffffff021916908373ffffffffffffffffffffffffffffffffffffffff1602179055503361016060006101000a81548173ffffffffffffffffffffffffffffffffffffffff021916908373ffffffffffffffffffffffffffffffffffffffff16021790555080156114545760008060016101000a81548160ff0219169083151502179055505b5050565b606061146382611707565b6114a2576040517f08c379a0000000000000000000000000000000000000000000000000000000008152600401611499906141e5565b60405180910390fd5b60006114ac6126f9565b905060008151116114cc57604051806020016040528060008152506114f7565b806114d684612710565b6040516020016114e7929190613e86565b6040516020818303038152906040525b915050919050565b600061150c61015f611834565b905090565b6000606a60008473ffffffffffffffffffffffffffffffffffffffff1673ffffffffffffffffffffffffffffffffffffffff16815260200190815260200160002060008373ffffffffffffffffffffffffffffffffffffffff1673ffffffffffffffffffffffffffffffffffffffff16815260200190815260200160002060009054906101000a900460ff16905092915050565b6115ad611773565b73ffffffffffffffffffffffffffffffffffffffff166115cb610fcf565b73ffffffffffffffffffffffffffffffffffffffff1614611621576040517f08c379a0000000000000000000000000000000000000000000000000000000008152600401611618906141a5565b60405180910390fd5b600073ffffffffffffffffffffffffffffffffffffffff168173ffffffffffffffffffffffffffffffffffffffff161415611691576040517f08c379a000000000000000000000000000000000000000000000000000000000815260040161168890613fc5565b60405180910390fd5b61169a8161221f565b50565b60007f01ffc9a7000000000000000000000000000000000000000000000000000000007bffffffffffffffffffffffffffffffffffffffffffffffffffffffff1916827bffffffffffffffffffffffffffffffffffffffffffffffffffffffff1916149050919050565b60008073ffffffffffffffffffffffffffffffffffffffff166067600084815260200190815260200160002060009054906101000a900473ffffffffffffffffffffffffffffffffffffffff1673ffffffffffffffffffffffffffffffffffffffff1614159050919050565b600033905090565b816069600083815260200190815260200160002060006101000a81548173ffffffffffffffffffffffffffffffffffffffff021916908373ffffffffffffffffffffffffffffffffffffffff160217905550808273ffffffffffffffffffffffffffffffffffffffff166117ee83610ddd565b73ffffffffffffffffffffffffffffffffffffffff167f8c5be1e5ebec7d5bd14f71427d1e84f3dd0314c0f7b2291e5b200ac8c7c3b92560405160405180910390a45050565b600081600001549050919050565b61185c8282604051806020016040528060008152506128bd565b5050565b8273ffffffffffffffffffffffffffffffffffffffff16636352211e826040518263ffffffff1660e01b815260040161189991906142a5565b60206040518083038186803b1580156118b157600080fd5b505afa1580156118c5573d6000803e3d6000fd5b505050506040513d601f19601f820116820180604052508101906118e991906136f2565b73ffffffffffffffffffffffffffffffffffffffff163373ffffffffffffffffffffffffffffffffffffffff1614611956576040517f08c379a000000000000000000000000000000000000000000000000000000000815260040161194d90614065565b60405180910390fd5b61016160009054906101000a900473ffffffffffffffffffffffffffffffffffffffff1673ffffffffffffffffffffffffffffffffffffffff16636352211e836040518263ffffffff1660e01b81526004016119b291906142a5565b60206040518083038186803b1580156119ca57600080fd5b505afa1580156119de573d6000803e3d6000fd5b505050506040513d601f19601f82011682018060405250810190611a0291906136f2565b73ffffffffffffffffffffffffffffffffffffffff163373ffffffffffffffffffffffffffffffffffffffff1614611a6f576040517f08c379a0000000000000000000000000000000000000000000000000000000008152600401611a6690614265565b60405180910390fd5b826101626000611a8061015f611834565b815260200190815260200160002060006101000a81548173ffffffffffffffffffffffffffffffffffffffff021916908373ffffffffffffffffffffffffffffffffffffffff160217905550816101636000611add61015f611834565b815260200190815260200160002081905550806101646000611b0061015f611834565b815260200190815260200160002081905550505050565b6001816000016000828254019250508190555050565b6000611b3882611707565b611b77576040517f08c379a0000000000000000000000000000000000000000000000000000000008152600401611b6e906140a5565b60405180910390fd5b6000611b8283610ddd565b90508073ffffffffffffffffffffffffffffffffffffffff168473ffffffffffffffffffffffffffffffffffffffff161480611bf157508373ffffffffffffffffffffffffffffffffffffffff16611bd984610788565b73ffffffffffffffffffffffffffffffffffffffff16145b80611c025750611c018185611511565b5b91505092915050565b8273ffffffffffffffffffffffffffffffffffffffff16611c2b82610ddd565b73ffffffffffffffffffffffffffffffffffffffff1614611c81576040517f08c379a0000000000000000000000000000000000000000000000000000000008152600401611c78906141c5565b60405180910390fd5b600073ffffffffffffffffffffffffffffffffffffffff168273ffffffffffffffffffffffffffffffffffffffff161415611cf1576040517f08c379a0000000000000000000000000000000000000000000000000000000008152600401611ce890614025565b60405180910390fd5b611cfc838383612918565b611d0760008261177b565b6001606860008573ffffffffffffffffffffffffffffffffffffffff1673ffffffffffffffffffffffffffffffffffffffff1681526020019081526020016000206000828254611d5791906143eb565b925050819055506001606860008473ffffffffffffffffffffffffffffffffffffffff1673ffffffffffffffffffffffffffffffffffffffff1681526020019081526020016000206000828254611dae9190614364565b92505081905550816067600083815260200190815260200160002060006101000a81548173ffffffffffffffffffffffffffffffffffffffff021916908373ffffffffffffffffffffffffffffffffffffffff160217905550808273ffffffffffffffffffffffffffffffffffffffff168473ffffffffffffffffffffffffffffffffffffffff167fddf252ad1be2c89b69c2b068fc378daa952ba7f163c4a11628f55a4df523b3ef60405160405180910390a4505050565b6000611e957f360894a13ba1a3210667c828492db98dca3e2076cc3735a920a3ca505d382bbc60001b61291d565b60000160009054906101000a900473ffffffffffffffffffffffffffffffffffffffff16905090565b611ec6611773565b73ffffffffffffffffffffffffffffffffffffffff16611ee4610fcf565b73ffffffffffffffffffffffffffffffffffffffff1614611f3a576040517f08c379a0000000000000000000000000000000000000000000000000000000008152600401611f31906141a5565b60405180910390fd5b50565b6000611f47611e67565b9050611f5284612927565b600083511180611f5f5750815b15611f7057611f6e84846129e0565b505b6000611f9e7f4910fdfa16fed3260ed0e7147f7cc6da11a60208b5b9406d12a635614ffd914360001b612ac4565b90508060000160009054906101000a900460ff166121075760018160000160006101000a81548160ff02191690831515021790555061206a8583604051602401611fe89190613eaa565b6040516020818303038152906040527f3659cfe6000000000000000000000000000000000000000000000000000000007bffffffffffffffffffffffffffffffffffffffffffffffffffffffff19166020820180517bffffffffffffffffffffffffffffffffffffffffffffffffffffffff83818316178352505050506129e0565b5060008160000160006101000a81548160ff021916908315150217905550612090611e67565b73ffffffffffffffffffffffffffffffffffffffff168273ffffffffffffffffffffffffffffffffffffffff16146120fd576040517f08c379a00000000000000000000000000000000000000000000000000000000081526004016120f490613fa5565b60405180910390fd5b61210685612ace565b5b5050505050565b600061211982610ddd565b905061212781600084612918565b61213260008361177b565b6001606860008373ffffffffffffffffffffffffffffffffffffffff1673ffffffffffffffffffffffffffffffffffffffff168152602001908152602001600020600082825461218291906143eb565b925050819055506067600083815260200190815260200160002060006101000a81549073ffffffffffffffffffffffffffffffffffffffff021916905581600073ffffffffffffffffffffffffffffffffffffffff168273ffffffffffffffffffffffffffffffffffffffff167fddf252ad1be2c89b69c2b068fc378daa952ba7f163c4a11628f55a4df523b3ef60405160405180910390a45050565b600060c960009054906101000a900473ffffffffffffffffffffffffffffffffffffffff1690508160c960006101000a81548173ffffffffffffffffffffffffffffffffffffffff021916908373ffffffffffffffffffffffffffffffffffffffff1602179055508173ffffffffffffffffffffffffffffffffffffffff168173ffffffffffffffffffffffffffffffffffffffff167f8be0079c531659141344cd1fd0a4f28419497f9722a3daafe3b4186f6b6457e060405160405180910390a35050565b6122f0848484611c0b565b6122fc84848484612b1d565b61233b576040517f08c379a000000000000000000000000000000000000000000000000000000000815260040161233290613f85565b60405180910390fd5b50505050565b600060019054906101000a900460ff1680612367575060008054906101000a900460ff16155b6123a6576040517f08c379a000000000000000000000000000000000000000000000000000000000815260040161239d90614125565b60405180910390fd5b60008060019054906101000a900460ff1615905080156123f6576001600060016101000a81548160ff02191690831515021790555060016000806101000a81548160ff0219169083151502179055505b6123fe612cb4565b612406612d8d565b6124108383612e66565b80156124315760008060016101000a81548160ff0219169083151502179055505b505050565b600060019054906101000a900460ff168061245c575060008054906101000a900460ff16155b61249b576040517f08c379a000000000000000000000000000000000000000000000000000000000815260040161249290614125565b60405180910390fd5b60008060019054906101000a900460ff1615905080156124eb576001600060016101000a81548160ff02191690831515021790555060016000806101000a81548160ff0219169083151502179055505b6124f3612cb4565b6124fb612d8d565b612503612f6f565b80156125245760008060016101000a81548160ff0219169083151502179055505b50565b600060019054906101000a900460ff168061254d575060008054906101000a900460ff16155b61258c576040517f08c379a000000000000000000000000000000000000000000000000000000000815260040161258390614125565b60405180910390fd5b60008060019054906101000a900460ff1615905080156125dc576001600060016101000a81548160ff02191690831515021790555060016000806101000a81548160ff0219169083151502179055505b6125e4612cb4565b6125ec613048565b801561260d5760008060016101000a81548160ff0219169083151502179055505b50565b600060019054906101000a900460ff1680612636575060008054906101000a900460ff16155b612675576040517f08c379a000000000000000000000000000000000000000000000000000000000815260040161266c90614125565b60405180910390fd5b60008060019054906101000a900460ff1615905080156126c5576001600060016101000a81548160ff02191690831515021790555060016000806101000a81548160ff0219169083151502179055505b6126cd613131565b6126d561320a565b80156126f65760008060016101000a81548160ff0219169083151502179055505b50565b606060405180602001604052806000815250905090565b60606000821415612758576040518060400160405280600181526020017f300000000000000000000000000000000000000000000000000000000000000081525090506128b8565b600082905060005b6000821461278a5780806127739061456e565b915050600a8261278391906143ba565b9150612760565b60008167ffffffffffffffff8111156127cc577f4e487b7100000000000000000000000000000000000000000000000000000000600052604160045260246000fd5b6040519080825280601f01601f1916602001820160405280156127fe5781602001600182028036833780820191505090505b5090505b600085146128b15760018261281791906143eb565b9150600a8561282691906145b7565b60306128329190614364565b60f81b81838151811061286e577f4e487b7100000000000000000000000000000000000000000000000000000000600052603260045260246000fd5b60200101907effffffffffffffffffffffffffffffffffffffffffffffffffffffffffffff1916908160001a905350600a856128aa91906143ba565b9450612802565b8093505050505b919050565b6128c783836132e3565b6128d46000848484612b1d565b612913576040517f08c379a000000000000000000000000000000000000000000000000000000000815260040161290a90613f85565b60405180910390fd5b505050565b505050565b6000819050919050565b612930816134b1565b61296f576040517f08c379a000000000000000000000000000000000000000000000000000000000815260040161296690614185565b60405180910390fd5b8061299c7f360894a13ba1a3210667c828492db98dca3e2076cc3735a920a3ca505d382bbc60001b61291d565b60000160006101000a81548173ffffffffffffffffffffffffffffffffffffffff021916908373ffffffffffffffffffffffffffffffffffffffff16021790555050565b60606129eb836134b1565b612a2a576040517f08c379a0000000000000000000000000000000000000000000000000000000008152600401612a2190614225565b60405180910390fd5b6000808473ffffffffffffffffffffffffffffffffffffffff1684604051612a529190613e6f565b600060405180830381855af49150503d8060008114612a8d576040519150601f19603f3d011682016040523d82523d6000602084013e612a92565b606091505b5091509150612aba8282604051806060016040528060278152602001614e48602791396134c4565b9250505092915050565b6000819050919050565b612ad781612927565b8073ffffffffffffffffffffffffffffffffffffffff167fbc7cd75a20ee27fd9adebab32041f755214dbc6bffa90cc0225b39da2e5c2d3b60405160405180910390a250565b6000612b3e8473ffffffffffffffffffffffffffffffffffffffff166134b1565b15612ca7578373ffffffffffffffffffffffffffffffffffffffff1663150b7a02612b67611773565b8786866040518563ffffffff1660e01b8152600401612b899493929190613ec5565b602060405180830381600087803b158015612ba357600080fd5b505af1925050508015612bd457506040513d601f19601f82011682018060405250810190612bd19190613979565b60015b612c57573d8060008114612c04576040519150601f19603f3d011682016040523d82523d6000602084013e612c09565b606091505b50600081511415612c4f576040517f08c379a0000000000000000000000000000000000000000000000000000000008152600401612c4690613f85565b60405180910390fd5b805181602001fd5b63150b7a0260e01b7bffffffffffffffffffffffffffffffffffffffffffffffffffffffff1916817bffffffffffffffffffffffffffffffffffffffffffffffffffffffff191614915050612cac565b600190505b949350505050565b600060019054906101000a900460ff1680612cda575060008054906101000a900460ff16155b612d19576040517f08c379a0000000000000000000000000000000000000000000000000000000008152600401612d1090614125565b60405180910390fd5b60008060019054906101000a900460ff161590508015612d69576001600060016101000a81548160ff02191690831515021790555060016000806101000a81548160ff0219169083151502179055505b8015612d8a5760008060016101000a81548160ff0219169083151502179055505b50565b600060019054906101000a900460ff1680612db3575060008054906101000a900460ff16155b612df2576040517f08c379a0000000000000000000000000000000000000000000000000000000008152600401612de990614125565b60405180910390fd5b60008060019054906101000a900460ff161590508015612e42576001600060016101000a81548160ff02191690831515021790555060016000806101000a81548160ff0219169083151502179055505b8015612e635760008060016101000a81548160ff0219169083151502179055505b50565b600060019054906101000a900460ff1680612e8c575060008054906101000a900460ff16155b612ecb576040517f08c379a0000000000000000000000000000000000000000000000000000000008152600401612ec290614125565b60405180910390fd5b60008060019054906101000a900460ff161590508015612f1b576001600060016101000a81548160ff02191690831515021790555060016000806101000a81548160ff0219169083151502179055505b8260659080519060200190612f3192919061352b565b508160669080519060200190612f4892919061352b565b508015612f6a5760008060016101000a81548160ff0219169083151502179055505b505050565b600060019054906101000a900460ff1680612f95575060008054906101000a900460ff16155b612fd4576040517f08c379a0000000000000000000000000000000000000000000000000000000008152600401612fcb90614125565b60405180910390fd5b60008060019054906101000a900460ff161590508015613024576001600060016101000a81548160ff02191690831515021790555060016000806101000a81548160ff0219169083151502179055505b80156130455760008060016101000a81548160ff0219169083151502179055505b50565b600060019054906101000a900460ff168061306e575060008054906101000a900460ff16155b6130ad576040517f08c379a00000000000000000000000000000000000000000000000000000000081526004016130a490614125565b60405180910390fd5b60008060019054906101000a900460ff1615905080156130fd576001600060016101000a81548160ff02191690831515021790555060016000806101000a81548160ff0219169083151502179055505b61310d613108611773565b61221f565b801561312e5760008060016101000a81548160ff0219169083151502179055505b50565b600060019054906101000a900460ff1680613157575060008054906101000a900460ff16155b613196576040517f08c379a000000000000000000000000000000000000000000000000000000000815260040161318d90614125565b60405180910390fd5b60008060019054906101000a900460ff1615905080156131e6576001600060016101000a81548160ff02191690831515021790555060016000806101000a81548160ff0219169083151502179055505b80156132075760008060016101000a81548160ff0219169083151502179055505b50565b600060019054906101000a900460ff1680613230575060008054906101000a900460ff16155b61326f576040517f08c379a000000000000000000000000000000000000000000000000000000000815260040161326690614125565b60405180910390fd5b60008060019054906101000a900460ff1615905080156132bf576001600060016101000a81548160ff02191690831515021790555060016000806101000a81548160ff0219169083151502179055505b80156132e05760008060016101000a81548160ff0219169083151502179055505b50565b600073ffffffffffffffffffffffffffffffffffffffff168273ffffffffffffffffffffffffffffffffffffffff161415613353576040517f08c379a000000000000000000000000000000000000000000000000000000000815260040161334a90614145565b60405180910390fd5b61335c81611707565b1561339c576040517f08c379a000000000000000000000000000000000000000000000000000000000815260040161339390613fe5565b60405180910390fd5b6133a860008383612918565b6001606860008473ffffffffffffffffffffffffffffffffffffffff1673ffffffffffffffffffffffffffffffffffffffff16815260200190815260200160002060008282546133f89190614364565b92505081905550816067600083815260200190815260200160002060006101000a81548173ffffffffffffffffffffffffffffffffffffffff021916908373ffffffffffffffffffffffffffffffffffffffff160217905550808273ffffffffffffffffffffffffffffffffffffffff16600073ffffffffffffffffffffffffffffffffffffffff167fddf252ad1be2c89b69c2b068fc378daa952ba7f163c4a11628f55a4df523b3ef60405160405180910390a45050565b600080823b905060008111915050919050565b606083156134d457829050613524565b6000835111156134e75782518084602001fd5b816040517f08c379a000000000000000000000000000000000000000000000000000000000815260040161351b9190613f63565b60405180910390fd5b9392505050565b8280546135379061450b565b90600052602060002090601f01602090048101928261355957600085556135a0565b82601f1061357257805160ff19168380011785556135a0565b828001600101855582156135a0579182015b8281111561359f578251825591602001919060010190613584565b5b5090506135ad91906135b1565b5090565b5b808211156135ca5760008160009055506001016135b2565b5090565b60006135e16135dc846142e5565b6142c0565b9050828152602081018484840111156135f957600080fd5b6136048482856144c9565b509392505050565b60008135905061361b81614dd4565b92915050565b60008151905061363081614dd4565b92915050565b60008135905061364581614deb565b92915050565b60008135905061365a81614e02565b92915050565b60008151905061366f81614e02565b92915050565b600082601f83011261368657600080fd5b81356136968482602086016135ce565b91505092915050565b6000813590506136ae81614e19565b92915050565b6000813590506136c381614e30565b92915050565b6000602082840312156136db57600080fd5b60006136e98482850161360c565b91505092915050565b60006020828403121561370457600080fd5b600061371284828501613621565b91505092915050565b6000806040838503121561372e57600080fd5b600061373c8582860161360c565b925050602061374d8582860161360c565b9150509250929050565b60008060006060848603121561376c57600080fd5b600061377a8682870161360c565b935050602061378b8682870161360c565b925050604061379c868287016136b4565b9150509250925092565b600080600080608085870312156137bc57600080fd5b60006137ca8782880161360c565b94505060206137db8782880161360c565b93505060406137ec878288016136b4565b925050606085013567ffffffffffffffff81111561380957600080fd5b61381587828801613675565b91505092959194509250565b6000806040838503121561383457600080fd5b60006138428582860161360c565b925050602061385385828601613636565b9150509250929050565b6000806040838503121561387057600080fd5b600061387e8582860161360c565b925050602083013567ffffffffffffffff81111561389b57600080fd5b6138a785828601613675565b9150509250929050565b600080600080608085870312156138c757600080fd5b60006138d58782880161360c565b94505060206138e68782880161369f565b93505060406138f7878288016136b4565b9250506060613908878288016136b4565b91505092959194509250565b6000806040838503121561392757600080fd5b60006139358582860161360c565b9250506020613946858286016136b4565b9150509250929050565b60006020828403121561396257600080fd5b60006139708482850161364b565b91505092915050565b60006020828403121561398b57600080fd5b600061399984828501613660565b91505092915050565b6000602082840312156139b457600080fd5b60006139c28482850161369f565b91505092915050565b6000602082840312156139dd57600080fd5b60006139eb848285016136b4565b91505092915050565b6139fd8161441f565b82525050565b613a0c81614431565b82525050565b6000613a1d82614316565b613a27818561432c565b9350613a378185602086016144d8565b613a40816146a4565b840191505092915050565b6000613a5682614316565b613a60818561433d565b9350613a708185602086016144d8565b80840191505092915050565b613a85816144a5565b82525050565b6000613a9682614321565b613aa08185614348565b9350613ab08185602086016144d8565b613ab9816146a4565b840191505092915050565b6000613acf82614321565b613ad98185614359565b9350613ae98185602086016144d8565b80840191505092915050565b6000613b02603283614348565b9150613b0d826146b5565b604082019050919050565b6000613b25602f83614348565b9150613b3082614704565b604082019050919050565b6000613b48602683614348565b9150613b5382614753565b604082019050919050565b6000613b6b601c83614348565b9150613b76826147a2565b602082019050919050565b6000613b8e602c83614348565b9150613b99826147cb565b604082019050919050565b6000613bb1602483614348565b9150613bbc8261481a565b604082019050919050565b6000613bd4601983614348565b9150613bdf82614869565b602082019050919050565b6000613bf7603f83614348565b9150613c0282614892565b604082019050919050565b6000613c1a602c83614348565b9150613c25826148e1565b604082019050919050565b6000613c3d602c83614348565b9150613c4882614930565b604082019050919050565b6000613c60603883614348565b9150613c6b8261497f565b604082019050919050565b6000613c83602a83614348565b9150613c8e826149ce565b604082019050919050565b6000613ca6602983614348565b9150613cb182614a1d565b604082019050919050565b6000613cc9602e83614348565b9150613cd482614a6c565b604082019050919050565b6000613cec602083614348565b9150613cf782614abb565b602082019050919050565b6000613d0f602c83614348565b9150613d1a82614ae4565b604082019050919050565b6000613d32602d83614348565b9150613d3d82614b33565b604082019050919050565b6000613d55602083614348565b9150613d6082614b82565b602082019050919050565b6000613d78602983614348565b9150613d8382614bab565b604082019050919050565b6000613d9b602f83614348565b9150613da682614bfa565b604082019050919050565b6000613dbe602183614348565b9150613dc982614c49565b604082019050919050565b6000613de1602683614348565b9150613dec82614c98565b604082019050919050565b6000613e04603183614348565b9150613e0f82614ce7565b604082019050919050565b6000613e27603d83614348565b9150613e3282614d36565b604082019050919050565b6000613e4a603083614348565b9150613e5582614d85565b604082019050919050565b613e698161449b565b82525050565b6000613e7b8284613a4b565b915081905092915050565b6000613e928285613ac4565b9150613e9e8284613ac4565b91508190509392505050565b6000602082019050613ebf60008301846139f4565b92915050565b6000608082019050613eda60008301876139f4565b613ee760208301866139f4565b613ef46040830185613e60565b8181036060830152613f068184613a12565b905095945050505050565b6000602082019050613f266000830184613a03565b92915050565b6000606082019050613f416000830186613a7c565b613f4e6020830185613e60565b613f5b6040830184613e60565b949350505050565b60006020820190508181036000830152613f7d8184613a8b565b905092915050565b60006020820190508181036000830152613f9e81613af5565b9050919050565b60006020820190508181036000830152613fbe81613b18565b9050919050565b60006020820190508181036000830152613fde81613b3b565b9050919050565b60006020820190508181036000830152613ffe81613b5e565b9050919050565b6000602082019050818103600083015261401e81613b81565b9050919050565b6000602082019050818103600083015261403e81613ba4565b9050919050565b6000602082019050818103600083015261405e81613bc7565b9050919050565b6000602082019050818103600083015261407e81613bea565b9050919050565b6000602082019050818103600083015261409e81613c0d565b9050919050565b600060208201905081810360008301526140be81613c30565b9050919050565b600060208201905081810360008301526140de81613c53565b9050919050565b600060208201905081810360008301526140fe81613c76565b9050919050565b6000602082019050818103600083015261411e81613c99565b9050919050565b6000602082019050818103600083015261413e81613cbc565b9050919050565b6000602082019050818103600083015261415e81613cdf565b9050919050565b6000602082019050818103600083015261417e81613d02565b9050919050565b6000602082019050818103600083015261419e81613d25565b9050919050565b600060208201905081810360008301526141be81613d48565b9050919050565b600060208201905081810360008301526141de81613d6b565b9050919050565b600060208201905081810360008301526141fe81613d8e565b9050919050565b6000602082019050818103600083015261421e81613db1565b9050919050565b6000602082019050818103600083015261423e81613dd4565b9050919050565b6000602082019050818103600083015261425e81613df7565b9050919050565b6000602082019050818103600083015261427e81613e1a565b9050919050565b6000602082019050818103600083015261429e81613e3d565b9050919050565b60006020820190506142ba6000830184613e60565b92915050565b60006142ca6142db565b90506142d6828261453d565b919050565b6000604051905090565b600067ffffffffffffffff821115614300576142ff614675565b5b614309826146a4565b9050602081019050919050565b600081519050919050565b600081519050919050565b600082825260208201905092915050565b600081905092915050565b600082825260208201905092915050565b600081905092915050565b600061436f8261449b565b915061437a8361449b565b9250827fffffffffffffffffffffffffffffffffffffffffffffffffffffffffffffffff038211156143af576143ae6145e8565b5b828201905092915050565b60006143c58261449b565b91506143d08361449b565b9250826143e0576143df614617565b5b828204905092915050565b60006143f68261449b565b91506144018361449b565b925082821015614414576144136145e8565b5b828203905092915050565b600061442a8261447b565b9050919050565b60008115159050919050565b60007fffffffff0000000000000000000000000000000000000000000000000000000082169050919050565b60006144748261441f565b9050919050565b600073ffffffffffffffffffffffffffffffffffffffff82169050919050565b6000819050919050565b60006144b0826144b7565b9050919050565b60006144c28261447b565b9050919050565b82818337600083830152505050565b60005b838110156144f65780820151818401526020810190506144db565b83811115614505576000848401525b50505050565b6000600282049050600182168061452357607f821691505b6020821081141561453757614536614646565b5b50919050565b614546826146a4565b810181811067ffffffffffffffff8211171561456557614564614675565b5b80604052505050565b60006145798261449b565b91507fffffffffffffffffffffffffffffffffffffffffffffffffffffffffffffffff8214156145ac576145ab6145e8565b5b600182019050919050565b60006145c28261449b565b91506145cd8361449b565b9250826145dd576145dc614617565b5b828206905092915050565b7f4e487b7100000000000000000000000000000000000000000000000000000000600052601160045260246000fd5b7f4e487b7100000000000000000000000000000000000000000000000000000000600052601260045260246000fd5b7f4e487b7100000000000000000000000000000000000000000000000000000000600052602260045260246000fd5b7f4e487b7100000000000000000000000000000000000000000000000000000000600052604160045260246000fd5b6000601f19601f8301169050919050565b7f4552433732313a207472616e7366657220746f206e6f6e20455243373231526560008201527f63656976657220696d706c656d656e7465720000000000000000000000000000602082015250565b7f45524331393637557067726164653a207570677261646520627265616b73206660008201527f7572746865722075706772616465730000000000000000000000000000000000602082015250565b7f4f776e61626c653a206e6577206f776e657220697320746865207a65726f206160008201527f6464726573730000000000000000000000000000000000000000000000000000602082015250565b7f4552433732313a20746f6b656e20616c7265616479206d696e74656400000000600082015250565b7f46756e6374696f6e206d7573742062652063616c6c6564207468726f7567682060008201527f64656c656761746563616c6c0000000000000000000000000000000000000000602082015250565b7f4552433732313a207472616e7366657220746f20746865207a65726f2061646460008201527f7265737300000000000000000000000000000000000000000000000000000000602082015250565b7f4552433732313a20617070726f766520746f2063616c6c657200000000000000600082015250565b7f44616e6b20467573696f6e3a20796f7520646f206e6f742068617665206d696e60008201527f74696e672072696768747320666f72207468697320667573696f6e206e667400602082015250565b7f46756e6374696f6e206d7573742062652063616c6c6564207468726f7567682060008201527f6163746976652070726f78790000000000000000000000000000000000000000602082015250565b7f4552433732313a206f70657261746f7220717565727920666f72206e6f6e657860008201527f697374656e7420746f6b656e0000000000000000000000000000000000000000602082015250565b7f4552433732313a20617070726f76652063616c6c6572206973206e6f74206f7760008201527f6e6572206e6f7220617070726f76656420666f7220616c6c0000000000000000602082015250565b7f4552433732313a2062616c616e636520717565727920666f7220746865207a6560008201527f726f206164647265737300000000000000000000000000000000000000000000602082015250565b7f4552433732313a206f776e657220717565727920666f72206e6f6e657869737460008201527f656e7420746f6b656e0000000000000000000000000000000000000000000000602082015250565b7f496e697469616c697a61626c653a20636f6e747261637420697320616c72656160008201527f647920696e697469616c697a6564000000000000000000000000000000000000602082015250565b7f4552433732313a206d696e7420746f20746865207a65726f2061646472657373600082015250565b7f4552433732313a20617070726f76656420717565727920666f72206e6f6e657860008201527f697374656e7420746f6b656e0000000000000000000000000000000000000000602082015250565b7f455243313936373a206e657720696d706c656d656e746174696f6e206973206e60008201527f6f74206120636f6e747261637400000000000000000000000000000000000000602082015250565b7f4f776e61626c653a2063616c6c6572206973206e6f7420746865206f776e6572600082015250565b7f4552433732313a207472616e73666572206f6620746f6b656e2074686174206960008201527f73206e6f74206f776e0000000000000000000000000000000000000000000000602082015250565b7f4552433732314d657461646174613a2055524920717565727920666f72206e6f60008201527f6e6578697374656e7420746f6b656e0000000000000000000000000000000000602082015250565b7f4552433732313a20617070726f76616c20746f2063757272656e74206f776e6560008201527f7200000000000000000000000000000000000000000000000000000000000000602082015250565b7f416464726573733a2064656c65676174652063616c6c20746f206e6f6e2d636f60008201527f6e74726163740000000000000000000000000000000000000000000000000000602082015250565b7f4552433732313a207472616e736665722063616c6c6572206973206e6f74206f60008201527f776e6572206e6f7220617070726f766564000000000000000000000000000000602082015250565b7f44616e6b20467573696f6e3a20796f7520646f206e6f742068617665206d696e60008201527f74696e672072696768747320666f7220746869732064616e6b206e6674000000602082015250565b7f4552433732314275726e61626c653a2063616c6c6572206973206e6f74206f7760008201527f6e6572206e6f7220617070726f76656400000000000000000000000000000000602082015250565b614ddd8161441f565b8114614de857600080fd5b50565b614df481614431565b8114614dff57600080fd5b50565b614e0b8161443d565b8114614e1657600080fd5b50565b614e2281614469565b8114614e2d57600080fd5b50565b614e398161449b565b8114614e4457600080fd5b5056fe416464726573733a206c6f772d6c6576656c2064656c65676174652063616c6c206661696c6564a2646970667358221220a4ab7a867952a6547e717e7a7f10e056d9b0c34ad015d14a161c81c41cd6084e64736f6c63430008020033",
  "linkReferences": {},
  "deployedLinkReferences": {}
}