{
  "_format": "hh-sol-artifact-1",
  "contractName": "DankFusion",
  "sourceName": "contracts/DankFusion.sol",
  "abi": [
    {
      "inputs": [],
      "stateMutability": "nonpayable",
      "type": "constructor"
    },
    {
      "anonymous": false,
      "inputs": [
        {
          "indexed": false,
          "internalType": "address",
          "name": "previousAdmin",
          "type": "address"
        },
        {
          "indexed": false,
          "internalType": "address",
          "name": "newAdmin",
          "type": "address"
        }
      ],
      "name": "AdminChanged",
      "type": "event"
    },
    {
      "anonymous": false,
      "inputs": [
        {
          "indexed": true,
          "internalType": "address",
          "name": "owner",
          "type": "address"
        },
        {
          "indexed": true,
          "internalType": "address",
          "name": "approved",
          "type": "address"
        },
        {
          "indexed": true,
          "internalType": "uint256",
          "name": "tokenId",
          "type": "uint256"
        }
      ],
      "name": "Approval",
      "type": "event"
    },
    {
      "anonymous": false,
      "inputs": [
        {
          "indexed": true,
          "internalType": "address",
          "name": "owner",
          "type": "address"
        },
        {
          "indexed": true,
          "internalType": "address",
          "name": "operator",
          "type": "address"
        },
        {
          "indexed": false,
          "internalType": "bool",
          "name": "approved",
          "type": "bool"
        }
      ],
      "name": "ApprovalForAll",
      "type": "event"
    },
    {
      "anonymous": false,
      "inputs": [
        {
          "indexed": true,
          "internalType": "address",
          "name": "beacon",
          "type": "address"
        }
      ],
      "name": "BeaconUpgraded",
      "type": "event"
    },
    {
      "anonymous": false,
      "inputs": [
        {
          "indexed": true,
          "internalType": "address",
          "name": "previousOwner",
          "type": "address"
        },
        {
          "indexed": true,
          "internalType": "address",
          "name": "newOwner",
          "type": "address"
        }
      ],
      "name": "OwnershipTransferred",
      "type": "event"
    },
    {
      "anonymous": false,
      "inputs": [
        {
          "indexed": true,
          "internalType": "address",
          "name": "from",
          "type": "address"
        },
        {
          "indexed": true,
          "internalType": "address",
          "name": "to",
          "type": "address"
        },
        {
          "indexed": true,
          "internalType": "uint256",
          "name": "tokenId",
          "type": "uint256"
        }
      ],
      "name": "Transfer",
      "type": "event"
    },
    {
      "anonymous": false,
      "inputs": [
        {
          "indexed": true,
          "internalType": "address",
          "name": "implementation",
          "type": "address"
        }
      ],
      "name": "Upgraded",
      "type": "event"
    },
    {
      "inputs": [
        {
          "internalType": "address",
          "name": "to",
          "type": "address"
        },
        {
          "internalType": "uint256",
          "name": "tokenId",
          "type": "uint256"
        }
      ],
      "name": "approve",
      "outputs": [],
      "stateMutability": "nonpayable",
      "type": "function"
    },
    {
      "inputs": [
        {
          "internalType": "address",
          "name": "owner",
          "type": "address"
        }
      ],
      "name": "balanceOf",
      "outputs": [
        {
          "internalType": "uint256",
          "name": "",
          "type": "uint256"
        }
      ],
      "stateMutability": "view",
      "type": "function"
    },
    {
      "inputs": [
        {
          "internalType": "uint256",
          "name": "tokenId",
          "type": "uint256"
        }
      ],
      "name": "burn",
      "outputs": [],
      "stateMutability": "nonpayable",
      "type": "function"
    },
    {
      "inputs": [],
      "name": "fusionIndex",
      "outputs": [
        {
          "internalType": "uint256",
          "name": "",
          "type": "uint256"
        }
      ],
      "stateMutability": "view",
      "type": "function"
    },
    {
      "inputs": [
        {
          "internalType": "uint256",
          "name": "tokenId",
          "type": "uint256"
        }
      ],
      "name": "fusionInfo",
      "outputs": [
        {
          "internalType": "contract ERC721",
          "name": "",
          "type": "address"
        },
        {
          "internalType": "uint256",
          "name": "",
          "type": "uint256"
        },
        {
          "internalType": "uint256",
          "name": "",
          "type": "uint256"
        },
        {
          "internalType": "bytes32",
          "name": "",
          "type": "bytes32"
        }
      ],
      "stateMutability": "view",
      "type": "function"
    },
    {
      "inputs": [
        {
          "internalType": "uint256",
          "name": "tokenId",
          "type": "uint256"
        }
      ],
      "name": "getApproved",
      "outputs": [
        {
          "internalType": "address",
          "name": "",
          "type": "address"
        }
      ],
      "stateMutability": "view",
      "type": "function"
    },
    {
      "inputs": [
        {
          "internalType": "contract ERC721",
          "name": "dankContract",
          "type": "address"
        }
      ],
      "name": "initialize",
      "outputs": [],
      "stateMutability": "nonpayable",
      "type": "function"
    },
    {
      "inputs": [
        {
          "internalType": "address",
          "name": "owner",
          "type": "address"
        },
        {
          "internalType": "address",
          "name": "operator",
          "type": "address"
        }
      ],
      "name": "isApprovedForAll",
      "outputs": [
        {
          "internalType": "bool",
          "name": "",
          "type": "bool"
        }
      ],
      "stateMutability": "view",
      "type": "function"
    },
    {
      "inputs": [],
      "name": "name",
      "outputs": [
        {
          "internalType": "string",
          "name": "",
          "type": "string"
        }
      ],
      "stateMutability": "view",
      "type": "function"
    },
    {
      "inputs": [],
      "name": "owner",
      "outputs": [
        {
          "internalType": "address",
          "name": "",
          "type": "address"
        }
      ],
      "stateMutability": "view",
      "type": "function"
    },
    {
      "inputs": [
        {
          "internalType": "uint256",
          "name": "tokenId",
          "type": "uint256"
        }
      ],
      "name": "ownerOf",
      "outputs": [
        {
          "internalType": "address",
          "name": "",
          "type": "address"
        }
      ],
      "stateMutability": "view",
      "type": "function"
    },
    {
      "inputs": [],
      "name": "renounceOwnership",
      "outputs": [],
      "stateMutability": "nonpayable",
      "type": "function"
    },
    {
      "inputs": [
        {
          "internalType": "address",
          "name": "to",
          "type": "address"
        },
        {
          "internalType": "contract ERC721",
          "name": "fusionContract",
          "type": "address"
        },
        {
          "internalType": "uint256",
          "name": "dankId",
          "type": "uint256"
        },
        {
          "internalType": "uint256",
          "name": "fusionId",
          "type": "uint256"
        },
        {
          "internalType": "bytes32",
          "name": "fusionUUID",
          "type": "bytes32"
        }
      ],
      "name": "safeMint",
      "outputs": [],
      "stateMutability": "nonpayable",
      "type": "function"
    },
    {
      "inputs": [
        {
          "internalType": "address",
          "name": "to",
          "type": "address"
        },
        {
          "internalType": "contract ERC721",
          "name": "fusionContract",
          "type": "address"
        },
        {
          "internalType": "uint256",
          "name": "dankId",
          "type": "uint256"
        },
        {
          "internalType": "uint256",
          "name": "fusionId",
          "type": "uint256"
        },
        {
          "internalType": "bytes32",
          "name": "fusionUUID",
          "type": "bytes32"
        }
      ],
      "name": "safeMintFusion",
      "outputs": [],
      "stateMutability": "payable",
      "type": "function"
    },
    {
      "inputs": [
        {
          "internalType": "address",
          "name": "from",
          "type": "address"
        },
        {
          "internalType": "address",
          "name": "to",
          "type": "address"
        },
        {
          "internalType": "uint256",
          "name": "tokenId",
          "type": "uint256"
        }
      ],
      "name": "safeTransferFrom",
      "outputs": [],
      "stateMutability": "nonpayable",
      "type": "function"
    },
    {
      "inputs": [
        {
          "internalType": "address",
          "name": "from",
          "type": "address"
        },
        {
          "internalType": "address",
          "name": "to",
          "type": "address"
        },
        {
          "internalType": "uint256",
          "name": "tokenId",
          "type": "uint256"
        },
        {
          "internalType": "bytes",
          "name": "_data",
          "type": "bytes"
        }
      ],
      "name": "safeTransferFrom",
      "outputs": [],
      "stateMutability": "nonpayable",
      "type": "function"
    },
    {
      "inputs": [
        {
          "internalType": "address",
          "name": "operator",
          "type": "address"
        },
        {
          "internalType": "bool",
          "name": "approved",
          "type": "bool"
        }
      ],
      "name": "setApprovalForAll",
      "outputs": [],
      "stateMutability": "nonpayable",
      "type": "function"
    },
    {
      "inputs": [
        {
          "internalType": "bytes4",
          "name": "interfaceId",
          "type": "bytes4"
        }
      ],
      "name": "supportsInterface",
      "outputs": [
        {
          "internalType": "bool",
          "name": "",
          "type": "bool"
        }
      ],
      "stateMutability": "view",
      "type": "function"
    },
    {
      "inputs": [],
      "name": "symbol",
      "outputs": [
        {
          "internalType": "string",
          "name": "",
          "type": "string"
        }
      ],
      "stateMutability": "view",
      "type": "function"
    },
    {
      "inputs": [
        {
          "internalType": "uint256",
          "name": "tokenId",
          "type": "uint256"
        }
      ],
      "name": "tokenURI",
      "outputs": [
        {
          "internalType": "string",
          "name": "",
          "type": "string"
        }
      ],
      "stateMutability": "view",
      "type": "function"
    },
    {
      "inputs": [
        {
          "internalType": "address",
          "name": "from",
          "type": "address"
        },
        {
          "internalType": "address",
          "name": "to",
          "type": "address"
        },
        {
          "internalType": "uint256",
          "name": "tokenId",
          "type": "uint256"
        }
      ],
      "name": "transferFrom",
      "outputs": [],
      "stateMutability": "nonpayable",
      "type": "function"
    },
    {
      "inputs": [
        {
          "internalType": "address",
          "name": "newOwner",
          "type": "address"
        }
      ],
      "name": "transferOwnership",
      "outputs": [],
      "stateMutability": "nonpayable",
      "type": "function"
    },
    {
      "inputs": [
        {
          "internalType": "address",
          "name": "newImplementation",
          "type": "address"
        }
      ],
      "name": "upgradeTo",
      "outputs": [],
      "stateMutability": "nonpayable",
      "type": "function"
    },
    {
      "inputs": [
        {
          "internalType": "address",
          "name": "newImplementation",
          "type": "address"
        },
        {
          "internalType": "bytes",
          "name": "data",
          "type": "bytes"
        }
      ],
      "name": "upgradeToAndCall",
      "outputs": [],
      "stateMutability": "payable",
      "type": "function"
    }
  ],
  "bytecode": "0x60a06040523073ffffffffffffffffffffffffffffffffffffffff1660809073ffffffffffffffffffffffffffffffffffffffff1660601b8152503480156200004757600080fd5b50600060019054906101000a900460ff16806200006f575060008054906101000a900460ff16155b620000b1576040517f08c379a0000000000000000000000000000000000000000000000000000000008152600401620000a89062000152565b60405180910390fd5b60008060019054906101000a900460ff16159050801562000102576001600060016101000a81548160ff02191690831515021790555060016000806101000a81548160ff0219169083151502179055505b8015620001245760008060016101000a81548160ff0219169083151502179055505b50620001d4565b60006200013a602e8362000174565b9150620001478262000185565b604082019050919050565b600060208201905081810360008301526200016d816200012b565b9050919050565b600082825260208201905092915050565b7f496e697469616c697a61626c653a20636f6e747261637420697320616c72656160008201527f647920696e697469616c697a6564000000000000000000000000000000000000602082015250565b60805160601c614f5362000208600039600081816109a701528181610a3601528181610c180152610ca70152614f536000f3fe60806040526004361061014b5760003560e01c806370a08231116100b6578063c4d66de81161006f578063c4d66de814610473578063c87b56dd1461049c578063c9826cec146104d9578063ca38eacf14610504578063e985e9c51461052d578063f2fde38b1461056a5761014b565b806370a0823114610377578063715018a6146103b45780638da5cb5b146103cb57806395d89b41146103f6578063a22cb46514610421578063b88d4fde1461044a5761014b565b80633659cfe6116101085780633659cfe61461028757806342842e0e146102b057806342966c68146102d957806344a60a01146103025780634f1ef2861461031e5780636352211e1461033a5761014b565b806301ffc9a71461015057806303321f121461018d57806306fdde03146101cd578063081812fc146101f8578063095ea7b31461023557806323b872dd1461025e575b600080fd5b34801561015c57600080fd5b50610177600480360381019061017291906139c1565b610593565b6040516101849190613f91565b60405180910390f35b34801561019957600080fd5b506101b460048036038101906101af9190613a3c565b610675565b6040516101c49493929190613fac565b60405180910390f35b3480156101d957600080fd5b506101e2610716565b6040516101ef9190613ff1565b60405180910390f35b34801561020457600080fd5b5061021f600480360381019061021a9190613a3c565b6107a8565b60405161022c9190613f2a565b60405180910390f35b34801561024157600080fd5b5061025c60048036038101906102579190613985565b61082d565b005b34801561026a57600080fd5b50610285600480360381019061028091906137b4565b610945565b005b34801561029357600080fd5b506102ae60048036038101906102a99190613726565b6109a5565b005b3480156102bc57600080fd5b506102d760048036038101906102d291906137b4565b610b54565b005b3480156102e557600080fd5b5061030060048036038101906102fb9190613a3c565b610b74565b005b61031c6004803603810190610317919061390e565b610bd0565b005b610338600480360381019061033391906138ba565b610c16565b005b34801561034657600080fd5b50610361600480360381019061035c9190613a3c565b610d53565b60405161036e9190613f2a565b60405180910390f35b34801561038357600080fd5b5061039e60048036038101906103999190613726565b610e05565b6040516103ab9190614333565b60405180910390f35b3480156103c057600080fd5b506103c9610ebd565b005b3480156103d757600080fd5b506103e0610f45565b6040516103ed9190613f2a565b60405180910390f35b34801561040257600080fd5b5061040b610f6f565b6040516104189190613ff1565b60405180910390f35b34801561042d57600080fd5b506104486004803603810190610443919061387e565b611001565b005b34801561045657600080fd5b50610471600480360381019061046c9190613803565b611182565b005b34801561047f57600080fd5b5061049a60048036038101906104959190613a13565b6111e4565b005b3480156104a857600080fd5b506104c360048036038101906104be9190613a3c565b6113ce565b6040516104d09190613ff1565b60405180910390f35b3480156104e557600080fd5b506104ee611475565b6040516104fb9190614333565b60405180910390f35b34801561051057600080fd5b5061052b6004803603810190610526919061390e565b611487565b005b34801561053957600080fd5b50610554600480360381019061054f9190613778565b611535565b6040516105619190613f91565b60405180910390f35b34801561057657600080fd5b50610591600480360381019061058c9190613726565b6115c9565b005b60007f80ac58cd000000000000000000000000000000000000000000000000000000007bffffffffffffffffffffffffffffffffffffffffffffffffffffffff1916827bffffffffffffffffffffffffffffffffffffffffffffffffffffffff1916148061065e57507f5b5e139f000000000000000000000000000000000000000000000000000000007bffffffffffffffffffffffffffffffffffffffffffffffffffffffff1916827bffffffffffffffffffffffffffffffffffffffffffffffffffffffff1916145b8061066e575061066d826116c1565b5b9050919050565b6000806000806000610162600087815260200190815260200160002060009054906101000a900473ffffffffffffffffffffffffffffffffffffffff1690506000610163600088815260200190815260200160002054905060006101646000898152602001908152602001600020549050600061016560008a8152602001908152602001600020549050838383839750975097509750505050509193509193565b606060658054610725906145a3565b80601f0160208091040260200160405190810160405280929190818152602001828054610751906145a3565b801561079e5780601f106107735761010080835404028352916020019161079e565b820191906000526020600020905b81548152906001019060200180831161078157829003601f168201915b5050505050905090565b60006107b38261172b565b6107f2576040517f08c379a00000000000000000000000000000000000000000000000000000000081526004016107e9906141f3565b60405180910390fd5b6069600083815260200190815260200160002060009054906101000a900473ffffffffffffffffffffffffffffffffffffffff169050919050565b600061083882610d53565b90508073ffffffffffffffffffffffffffffffffffffffff168373ffffffffffffffffffffffffffffffffffffffff1614156108a9576040517f08c379a00000000000000000000000000000000000000000000000000000000081526004016108a090614293565b60405180910390fd5b8073ffffffffffffffffffffffffffffffffffffffff166108c8611797565b73ffffffffffffffffffffffffffffffffffffffff1614806108f757506108f6816108f1611797565b611535565b5b610936576040517f08c379a000000000000000000000000000000000000000000000000000000000815260040161092d90614153565b60405180910390fd5b610940838361179f565b505050565b610956610950611797565b82611858565b610995576040517f08c379a000000000000000000000000000000000000000000000000000000000815260040161098c906142d3565b60405180910390fd5b6109a0838383611936565b505050565b7f000000000000000000000000000000000000000000000000000000000000000073ffffffffffffffffffffffffffffffffffffffff163073ffffffffffffffffffffffffffffffffffffffff161415610a34576040517f08c379a0000000000000000000000000000000000000000000000000000000008152600401610a2b90614093565b60405180910390fd5b7f000000000000000000000000000000000000000000000000000000000000000073ffffffffffffffffffffffffffffffffffffffff16610a73611b92565b73ffffffffffffffffffffffffffffffffffffffff1614610ac9576040517f08c379a0000000000000000000000000000000000000000000000000000000008152600401610ac090614113565b60405180910390fd5b610ad281611be9565b610b5181600067ffffffffffffffff811115610b17577f4e487b7100000000000000000000000000000000000000000000000000000000600052604160045260246000fd5b6040519080825280601f01601f191660200182016040528015610b495781602001600182028036833780820191505090505b506000611c68565b50565b610b6f83838360405180602001604052806000815250611182565b505050565b610b85610b7f611797565b82611858565b610bc4576040517f08c379a0000000000000000000000000000000000000000000000000000000008152600401610bbb90614313565b60405180910390fd5b610bcd81611e39565b50565b662386f26fc10000341015610be457600080fd5b610bf885610bf361015f611f4a565b611f58565b610c0484848484611f76565b610c0f61015f612251565b5050505050565b7f000000000000000000000000000000000000000000000000000000000000000073ffffffffffffffffffffffffffffffffffffffff163073ffffffffffffffffffffffffffffffffffffffff161415610ca5576040517f08c379a0000000000000000000000000000000000000000000000000000000008152600401610c9c90614093565b60405180910390fd5b7f000000000000000000000000000000000000000000000000000000000000000073ffffffffffffffffffffffffffffffffffffffff16610ce4611b92565b73ffffffffffffffffffffffffffffffffffffffff1614610d3a576040517f08c379a0000000000000000000000000000000000000000000000000000000008152600401610d3190614113565b60405180910390fd5b610d4382611be9565b610d4f82826001611c68565b5050565b6000806067600084815260200190815260200160002060009054906101000a900473ffffffffffffffffffffffffffffffffffffffff169050600073ffffffffffffffffffffffffffffffffffffffff168173ffffffffffffffffffffffffffffffffffffffff161415610dfc576040517f08c379a0000000000000000000000000000000000000000000000000000000008152600401610df390614193565b60405180910390fd5b80915050919050565b60008073ffffffffffffffffffffffffffffffffffffffff168273ffffffffffffffffffffffffffffffffffffffff161415610e76576040517f08c379a0000000000000000000000000000000000000000000000000000000008152600401610e6d90614173565b60405180910390fd5b606860008373ffffffffffffffffffffffffffffffffffffffff1673ffffffffffffffffffffffffffffffffffffffff168152602001908152602001600020549050919050565b610ec5611797565b73ffffffffffffffffffffffffffffffffffffffff16610ee3610f45565b73ffffffffffffffffffffffffffffffffffffffff1614610f39576040517f08c379a0000000000000000000000000000000000000000000000000000000008152600401610f3090614233565b60405180910390fd5b610f436000612267565b565b600060c960009054906101000a900473ffffffffffffffffffffffffffffffffffffffff16905090565b606060668054610f7e906145a3565b80601f0160208091040260200160405190810160405280929190818152602001828054610faa906145a3565b8015610ff75780601f10610fcc57610100808354040283529160200191610ff7565b820191906000526020600020905b815481529060010190602001808311610fda57829003601f168201915b5050505050905090565b611009611797565b73ffffffffffffffffffffffffffffffffffffffff168273ffffffffffffffffffffffffffffffffffffffff161415611077576040517f08c379a000000000000000000000000000000000000000000000000000000000815260040161106e906140d3565b60405180910390fd5b80606a6000611084611797565b73ffffffffffffffffffffffffffffffffffffffff1673ffffffffffffffffffffffffffffffffffffffff16815260200190815260200160002060008473ffffffffffffffffffffffffffffffffffffffff1673ffffffffffffffffffffffffffffffffffffffff16815260200190815260200160002060006101000a81548160ff0219169083151502179055508173ffffffffffffffffffffffffffffffffffffffff16611131611797565b73ffffffffffffffffffffffffffffffffffffffff167f17307eab39ab6107e8899845ad3d59bd9653f200f220920489ca2b5937696c31836040516111769190613f91565b60405180910390a35050565b61119361118d611797565b83611858565b6111d2576040517f08c379a00000000000000000000000000000000000000000000000000000000081526004016111c9906142d3565b60405180910390fd5b6111de8484848461232d565b50505050565b600060019054906101000a900460ff168061120a575060008054906101000a900460ff16155b611249576040517f08c379a0000000000000000000000000000000000000000000000000000000008152600401611240906141b3565b60405180910390fd5b60008060019054906101000a900460ff161590508015611299576001600060016101000a81548160ff02191690831515021790555060016000806101000a81548160ff0219169083151502179055505b61130d6040518060400160405280601081526020017f44616e6b20467573696f6e204e465473000000000000000000000000000000008152506040518060400160405280600481526020017f44414e4b00000000000000000000000000000000000000000000000000000000815250612389565b61131561247e565b61131d61256f565b611325612658565b8161016160006101000a81548173ffffffffffffffffffffffffffffffffffffffff021916908373ffffffffffffffffffffffffffffffffffffffff1602179055503361016060006101000a81548173ffffffffffffffffffffffffffffffffffffffff021916908373ffffffffffffffffffffffffffffffffffffffff16021790555080156113ca5760008060016101000a81548160ff0219169083151502179055505b5050565b60606113d98261172b565b611418576040517f08c379a000000000000000000000000000000000000000000000000000000000815260040161140f90614273565b60405180910390fd5b6000611422612741565b90506000815111611442576040518060200160405280600081525061146d565b8061144c84612758565b60405160200161145d929190613f06565b6040516020818303038152906040525b915050919050565b600061148261015f611f4a565b905090565b61148f611797565b73ffffffffffffffffffffffffffffffffffffffff166114ad610f45565b73ffffffffffffffffffffffffffffffffffffffff1614611503576040517f08c379a00000000000000000000000000000000000000000000000000000000081526004016114fa90614233565b60405180910390fd5b6115178561151261015f611f4a565b611f58565b61152384848484611f76565b61152e61015f612251565b5050505050565b6000606a60008473ffffffffffffffffffffffffffffffffffffffff1673ffffffffffffffffffffffffffffffffffffffff16815260200190815260200160002060008373ffffffffffffffffffffffffffffffffffffffff1673ffffffffffffffffffffffffffffffffffffffff16815260200190815260200160002060009054906101000a900460ff16905092915050565b6115d1611797565b73ffffffffffffffffffffffffffffffffffffffff166115ef610f45565b73ffffffffffffffffffffffffffffffffffffffff1614611645576040517f08c379a000000000000000000000000000000000000000000000000000000000815260040161163c90614233565b60405180910390fd5b600073ffffffffffffffffffffffffffffffffffffffff168173ffffffffffffffffffffffffffffffffffffffff1614156116b5576040517f08c379a00000000000000000000000000000000000000000000000000000000081526004016116ac90614053565b60405180910390fd5b6116be81612267565b50565b60007f01ffc9a7000000000000000000000000000000000000000000000000000000007bffffffffffffffffffffffffffffffffffffffffffffffffffffffff1916827bffffffffffffffffffffffffffffffffffffffffffffffffffffffff1916149050919050565b60008073ffffffffffffffffffffffffffffffffffffffff166067600084815260200190815260200160002060009054906101000a900473ffffffffffffffffffffffffffffffffffffffff1673ffffffffffffffffffffffffffffffffffffffff1614159050919050565b600033905090565b816069600083815260200190815260200160002060006101000a81548173ffffffffffffffffffffffffffffffffffffffff021916908373ffffffffffffffffffffffffffffffffffffffff160217905550808273ffffffffffffffffffffffffffffffffffffffff1661181283610d53565b73ffffffffffffffffffffffffffffffffffffffff167f8c5be1e5ebec7d5bd14f71427d1e84f3dd0314c0f7b2291e5b200ac8c7c3b92560405160405180910390a45050565b60006118638261172b565b6118a2576040517f08c379a000000000000000000000000000000000000000000000000000000000815260040161189990614133565b60405180910390fd5b60006118ad83610d53565b90508073ffffffffffffffffffffffffffffffffffffffff168473ffffffffffffffffffffffffffffffffffffffff16148061191c57508373ffffffffffffffffffffffffffffffffffffffff16611904846107a8565b73ffffffffffffffffffffffffffffffffffffffff16145b8061192d575061192c8185611535565b5b91505092915050565b8273ffffffffffffffffffffffffffffffffffffffff1661195682610d53565b73ffffffffffffffffffffffffffffffffffffffff16146119ac576040517f08c379a00000000000000000000000000000000000000000000000000000000081526004016119a390614253565b60405180910390fd5b600073ffffffffffffffffffffffffffffffffffffffff168273ffffffffffffffffffffffffffffffffffffffff161415611a1c576040517f08c379a0000000000000000000000000000000000000000000000000000000008152600401611a13906140b3565b60405180910390fd5b611a27838383612905565b611a3260008261179f565b6001606860008573ffffffffffffffffffffffffffffffffffffffff1673ffffffffffffffffffffffffffffffffffffffff1681526020019081526020016000206000828254611a829190614479565b925050819055506001606860008473ffffffffffffffffffffffffffffffffffffffff1673ffffffffffffffffffffffffffffffffffffffff1681526020019081526020016000206000828254611ad991906143f2565b92505081905550816067600083815260200190815260200160002060006101000a81548173ffffffffffffffffffffffffffffffffffffffff021916908373ffffffffffffffffffffffffffffffffffffffff160217905550808273ffffffffffffffffffffffffffffffffffffffff168473ffffffffffffffffffffffffffffffffffffffff167fddf252ad1be2c89b69c2b068fc378daa952ba7f163c4a11628f55a4df523b3ef60405160405180910390a4505050565b6000611bc07f360894a13ba1a3210667c828492db98dca3e2076cc3735a920a3ca505d382bbc60001b61290a565b60000160009054906101000a900473ffffffffffffffffffffffffffffffffffffffff16905090565b611bf1611797565b73ffffffffffffffffffffffffffffffffffffffff16611c0f610f45565b73ffffffffffffffffffffffffffffffffffffffff1614611c65576040517f08c379a0000000000000000000000000000000000000000000000000000000008152600401611c5c90614233565b60405180910390fd5b50565b6000611c72611b92565b9050611c7d84612914565b600083511180611c8a5750815b15611c9b57611c9984846129cd565b505b6000611cc97f4910fdfa16fed3260ed0e7147f7cc6da11a60208b5b9406d12a635614ffd914360001b612ab1565b90508060000160009054906101000a900460ff16611e325760018160000160006101000a81548160ff021916908315150217905550611d958583604051602401611d139190613f2a565b6040516020818303038152906040527f3659cfe6000000000000000000000000000000000000000000000000000000007bffffffffffffffffffffffffffffffffffffffffffffffffffffffff19166020820180517bffffffffffffffffffffffffffffffffffffffffffffffffffffffff83818316178352505050506129cd565b5060008160000160006101000a81548160ff021916908315150217905550611dbb611b92565b73ffffffffffffffffffffffffffffffffffffffff168273ffffffffffffffffffffffffffffffffffffffff1614611e28576040517f08c379a0000000000000000000000000000000000000000000000000000000008152600401611e1f90614033565b60405180910390fd5b611e3185612abb565b5b5050505050565b6000611e4482610d53565b9050611e5281600084612905565b611e5d60008361179f565b6001606860008373ffffffffffffffffffffffffffffffffffffffff1673ffffffffffffffffffffffffffffffffffffffff1681526020019081526020016000206000828254611ead9190614479565b925050819055506067600083815260200190815260200160002060006101000a81549073ffffffffffffffffffffffffffffffffffffffff021916905581600073ffffffffffffffffffffffffffffffffffffffff168273ffffffffffffffffffffffffffffffffffffffff167fddf252ad1be2c89b69c2b068fc378daa952ba7f163c4a11628f55a4df523b3ef60405160405180910390a45050565b600081600001549050919050565b611f72828260405180602001604052806000815250612b0a565b5050565b8373ffffffffffffffffffffffffffffffffffffffff16636352211e836040518263ffffffff1660e01b8152600401611faf9190614333565b60206040518083038186803b158015611fc757600080fd5b505afa158015611fdb573d6000803e3d6000fd5b505050506040513d601f19601f82011682018060405250810190611fff919061374f565b73ffffffffffffffffffffffffffffffffffffffff163373ffffffffffffffffffffffffffffffffffffffff161461206c576040517f08c379a0000000000000000000000000000000000000000000000000000000008152600401612063906140f3565b60405180910390fd5b61016160009054906101000a900473ffffffffffffffffffffffffffffffffffffffff1673ffffffffffffffffffffffffffffffffffffffff16636352211e846040518263ffffffff1660e01b81526004016120c89190614333565b60206040518083038186803b1580156120e057600080fd5b505afa1580156120f4573d6000803e3d6000fd5b505050506040513d601f19601f82011682018060405250810190612118919061374f565b73ffffffffffffffffffffffffffffffffffffffff163373ffffffffffffffffffffffffffffffffffffffff1614612185576040517f08c379a000000000000000000000000000000000000000000000000000000000815260040161217c906142f3565b60405180910390fd5b83610162600061219661015f611f4a565b815260200190815260200160002060006101000a81548173ffffffffffffffffffffffffffffffffffffffff021916908373ffffffffffffffffffffffffffffffffffffffff1602179055508261016360006121f361015f611f4a565b81526020019081526020016000208190555081610164600061221661015f611f4a565b81526020019081526020016000208190555080610165600061223961015f611f4a565b81526020019081526020016000208190555050505050565b6001816000016000828254019250508190555050565b600060c960009054906101000a900473ffffffffffffffffffffffffffffffffffffffff1690508160c960006101000a81548173ffffffffffffffffffffffffffffffffffffffff021916908373ffffffffffffffffffffffffffffffffffffffff1602179055508173ffffffffffffffffffffffffffffffffffffffff168173ffffffffffffffffffffffffffffffffffffffff167f8be0079c531659141344cd1fd0a4f28419497f9722a3daafe3b4186f6b6457e060405160405180910390a35050565b612338848484611936565b61234484848484612b65565b612383576040517f08c379a000000000000000000000000000000000000000000000000000000000815260040161237a90614013565b60405180910390fd5b50505050565b600060019054906101000a900460ff16806123af575060008054906101000a900460ff16155b6123ee576040517f08c379a00000000000000000000000000000000000000000000000000000000081526004016123e5906141b3565b60405180910390fd5b60008060019054906101000a900460ff16159050801561243e576001600060016101000a81548160ff02191690831515021790555060016000806101000a81548160ff0219169083151502179055505b612446612cfc565b61244e612dd5565b6124588383612eae565b80156124795760008060016101000a81548160ff0219169083151502179055505b505050565b600060019054906101000a900460ff16806124a4575060008054906101000a900460ff16155b6124e3576040517f08c379a00000000000000000000000000000000000000000000000000000000081526004016124da906141b3565b60405180910390fd5b60008060019054906101000a900460ff161590508015612533576001600060016101000a81548160ff02191690831515021790555060016000806101000a81548160ff0219169083151502179055505b61253b612cfc565b612543612dd5565b61254b612fb7565b801561256c5760008060016101000a81548160ff0219169083151502179055505b50565b600060019054906101000a900460ff1680612595575060008054906101000a900460ff16155b6125d4576040517f08c379a00000000000000000000000000000000000000000000000000000000081526004016125cb906141b3565b60405180910390fd5b60008060019054906101000a900460ff161590508015612624576001600060016101000a81548160ff02191690831515021790555060016000806101000a81548160ff0219169083151502179055505b61262c612cfc565b612634613090565b80156126555760008060016101000a81548160ff0219169083151502179055505b50565b600060019054906101000a900460ff168061267e575060008054906101000a900460ff16155b6126bd576040517f08c379a00000000000000000000000000000000000000000000000000000000081526004016126b4906141b3565b60405180910390fd5b60008060019054906101000a900460ff16159050801561270d576001600060016101000a81548160ff02191690831515021790555060016000806101000a81548160ff0219169083151502179055505b612715613179565b61271d613252565b801561273e5760008060016101000a81548160ff0219169083151502179055505b50565b606060405180602001604052806000815250905090565b606060008214156127a0576040518060400160405280600181526020017f30000000000000000000000000000000000000000000000000000000000000008152509050612900565b600082905060005b600082146127d25780806127bb90614606565b915050600a826127cb9190614448565b91506127a8565b60008167ffffffffffffffff811115612814577f4e487b7100000000000000000000000000000000000000000000000000000000600052604160045260246000fd5b6040519080825280601f01601f1916602001820160405280156128465781602001600182028036833780820191505090505b5090505b600085146128f95760018261285f9190614479565b9150600a8561286e919061464f565b603061287a91906143f2565b60f81b8183815181106128b6577f4e487b7100000000000000000000000000000000000000000000000000000000600052603260045260246000fd5b60200101907effffffffffffffffffffffffffffffffffffffffffffffffffffffffffffff1916908160001a905350600a856128f29190614448565b945061284a565b8093505050505b919050565b505050565b6000819050919050565b61291d8161332b565b61295c576040517f08c379a000000000000000000000000000000000000000000000000000000000815260040161295390614213565b60405180910390fd5b806129897f360894a13ba1a3210667c828492db98dca3e2076cc3735a920a3ca505d382bbc60001b61290a565b60000160006101000a81548173ffffffffffffffffffffffffffffffffffffffff021916908373ffffffffffffffffffffffffffffffffffffffff16021790555050565b60606129d88361332b565b612a17576040517f08c379a0000000000000000000000000000000000000000000000000000000008152600401612a0e906142b3565b60405180910390fd5b6000808473ffffffffffffffffffffffffffffffffffffffff1684604051612a3f9190613eef565b600060405180830381855af49150503d8060008114612a7a576040519150601f19603f3d011682016040523d82523d6000602084013e612a7f565b606091505b5091509150612aa78282604051806060016040528060278152602001614ef76027913961333e565b9250505092915050565b6000819050919050565b612ac481612914565b8073ffffffffffffffffffffffffffffffffffffffff167fbc7cd75a20ee27fd9adebab32041f755214dbc6bffa90cc0225b39da2e5c2d3b60405160405180910390a250565b612b1483836133a5565b612b216000848484612b65565b612b60576040517f08c379a0000000000000000000000000000000000000000000000000000000008152600401612b5790614013565b60405180910390fd5b505050565b6000612b868473ffffffffffffffffffffffffffffffffffffffff1661332b565b15612cef578373ffffffffffffffffffffffffffffffffffffffff1663150b7a02612baf611797565b8786866040518563ffffffff1660e01b8152600401612bd19493929190613f45565b602060405180830381600087803b158015612beb57600080fd5b505af1925050508015612c1c57506040513d601f19601f82011682018060405250810190612c1991906139ea565b60015b612c9f573d8060008114612c4c576040519150601f19603f3d011682016040523d82523d6000602084013e612c51565b606091505b50600081511415612c97576040517f08c379a0000000000000000000000000000000000000000000000000000000008152600401612c8e90614013565b60405180910390fd5b805181602001fd5b63150b7a0260e01b7bffffffffffffffffffffffffffffffffffffffffffffffffffffffff1916817bffffffffffffffffffffffffffffffffffffffffffffffffffffffff191614915050612cf4565b600190505b949350505050565b600060019054906101000a900460ff1680612d22575060008054906101000a900460ff16155b612d61576040517f08c379a0000000000000000000000000000000000000000000000000000000008152600401612d58906141b3565b60405180910390fd5b60008060019054906101000a900460ff161590508015612db1576001600060016101000a81548160ff02191690831515021790555060016000806101000a81548160ff0219169083151502179055505b8015612dd25760008060016101000a81548160ff0219169083151502179055505b50565b600060019054906101000a900460ff1680612dfb575060008054906101000a900460ff16155b612e3a576040517f08c379a0000000000000000000000000000000000000000000000000000000008152600401612e31906141b3565b60405180910390fd5b60008060019054906101000a900460ff161590508015612e8a576001600060016101000a81548160ff02191690831515021790555060016000806101000a81548160ff0219169083151502179055505b8015612eab5760008060016101000a81548160ff0219169083151502179055505b50565b600060019054906101000a900460ff1680612ed4575060008054906101000a900460ff16155b612f13576040517f08c379a0000000000000000000000000000000000000000000000000000000008152600401612f0a906141b3565b60405180910390fd5b60008060019054906101000a900460ff161590508015612f63576001600060016101000a81548160ff02191690831515021790555060016000806101000a81548160ff0219169083151502179055505b8260659080519060200190612f79929190613573565b508160669080519060200190612f90929190613573565b508015612fb25760008060016101000a81548160ff0219169083151502179055505b505050565b600060019054906101000a900460ff1680612fdd575060008054906101000a900460ff16155b61301c576040517f08c379a0000000000000000000000000000000000000000000000000000000008152600401613013906141b3565b60405180910390fd5b60008060019054906101000a900460ff16159050801561306c576001600060016101000a81548160ff02191690831515021790555060016000806101000a81548160ff0219169083151502179055505b801561308d5760008060016101000a81548160ff0219169083151502179055505b50565b600060019054906101000a900460ff16806130b6575060008054906101000a900460ff16155b6130f5576040517f08c379a00000000000000000000000000000000000000000000000000000000081526004016130ec906141b3565b60405180910390fd5b60008060019054906101000a900460ff161590508015613145576001600060016101000a81548160ff02191690831515021790555060016000806101000a81548160ff0219169083151502179055505b613155613150611797565b612267565b80156131765760008060016101000a81548160ff0219169083151502179055505b50565b600060019054906101000a900460ff168061319f575060008054906101000a900460ff16155b6131de576040517f08c379a00000000000000000000000000000000000000000000000000000000081526004016131d5906141b3565b60405180910390fd5b60008060019054906101000a900460ff16159050801561322e576001600060016101000a81548160ff02191690831515021790555060016000806101000a81548160ff0219169083151502179055505b801561324f5760008060016101000a81548160ff0219169083151502179055505b50565b600060019054906101000a900460ff1680613278575060008054906101000a900460ff16155b6132b7576040517f08c379a00000000000000000000000000000000000000000000000000000000081526004016132ae906141b3565b60405180910390fd5b60008060019054906101000a900460ff161590508015613307576001600060016101000a81548160ff02191690831515021790555060016000806101000a81548160ff0219169083151502179055505b80156133285760008060016101000a81548160ff0219169083151502179055505b50565b600080823b905060008111915050919050565b6060831561334e5782905061339e565b6000835111156133615782518084602001fd5b816040517f08c379a00000000000000000000000000000000000000000000000000000000081526004016133959190613ff1565b60405180910390fd5b9392505050565b600073ffffffffffffffffffffffffffffffffffffffff168273ffffffffffffffffffffffffffffffffffffffff161415613415576040517f08c379a000000000000000000000000000000000000000000000000000000000815260040161340c906141d3565b60405180910390fd5b61341e8161172b565b1561345e576040517f08c379a000000000000000000000000000000000000000000000000000000000815260040161345590614073565b60405180910390fd5b61346a60008383612905565b6001606860008473ffffffffffffffffffffffffffffffffffffffff1673ffffffffffffffffffffffffffffffffffffffff16815260200190815260200160002060008282546134ba91906143f2565b92505081905550816067600083815260200190815260200160002060006101000a81548173ffffffffffffffffffffffffffffffffffffffff021916908373ffffffffffffffffffffffffffffffffffffffff160217905550808273ffffffffffffffffffffffffffffffffffffffff16600073ffffffffffffffffffffffffffffffffffffffff167fddf252ad1be2c89b69c2b068fc378daa952ba7f163c4a11628f55a4df523b3ef60405160405180910390a45050565b82805461357f906145a3565b90600052602060002090601f0160209004810192826135a157600085556135e8565b82601f106135ba57805160ff19168380011785556135e8565b828001600101855582156135e8579182015b828111156135e75782518255916020019190600101906135cc565b5b5090506135f591906135f9565b5090565b5b808211156136125760008160009055506001016135fa565b5090565b600061362961362484614373565b61434e565b90508281526020810184848401111561364157600080fd5b61364c848285614561565b509392505050565b60008135905061366381614e6c565b92915050565b60008151905061367881614e6c565b92915050565b60008135905061368d81614e83565b92915050565b6000813590506136a281614e9a565b92915050565b6000813590506136b781614eb1565b92915050565b6000815190506136cc81614eb1565b92915050565b600082601f8301126136e357600080fd5b81356136f3848260208601613616565b91505092915050565b60008135905061370b81614ec8565b92915050565b60008135905061372081614edf565b92915050565b60006020828403121561373857600080fd5b600061374684828501613654565b91505092915050565b60006020828403121561376157600080fd5b600061376f84828501613669565b91505092915050565b6000806040838503121561378b57600080fd5b600061379985828601613654565b92505060206137aa85828601613654565b9150509250929050565b6000806000606084860312156137c957600080fd5b60006137d786828701613654565b93505060206137e886828701613654565b92505060406137f986828701613711565b9150509250925092565b6000806000806080858703121561381957600080fd5b600061382787828801613654565b945050602061383887828801613654565b935050604061384987828801613711565b925050606085013567ffffffffffffffff81111561386657600080fd5b613872878288016136d2565b91505092959194509250565b6000806040838503121561389157600080fd5b600061389f85828601613654565b92505060206138b08582860161367e565b9150509250929050565b600080604083850312156138cd57600080fd5b60006138db85828601613654565b925050602083013567ffffffffffffffff8111156138f857600080fd5b613904858286016136d2565b9150509250929050565b600080600080600060a0868803121561392657600080fd5b600061393488828901613654565b9550506020613945888289016136fc565b945050604061395688828901613711565b935050606061396788828901613711565b925050608061397888828901613693565b9150509295509295909350565b6000806040838503121561399857600080fd5b60006139a685828601613654565b92505060206139b785828601613711565b9150509250929050565b6000602082840312156139d357600080fd5b60006139e1848285016136a8565b91505092915050565b6000602082840312156139fc57600080fd5b6000613a0a848285016136bd565b91505092915050565b600060208284031215613a2557600080fd5b6000613a33848285016136fc565b91505092915050565b600060208284031215613a4e57600080fd5b6000613a5c84828501613711565b91505092915050565b613a6e816144ad565b82525050565b613a7d816144bf565b82525050565b613a8c816144cb565b82525050565b6000613a9d826143a4565b613aa781856143ba565b9350613ab7818560208601614570565b613ac08161473c565b840191505092915050565b6000613ad6826143a4565b613ae081856143cb565b9350613af0818560208601614570565b80840191505092915050565b613b058161453d565b82525050565b6000613b16826143af565b613b2081856143d6565b9350613b30818560208601614570565b613b398161473c565b840191505092915050565b6000613b4f826143af565b613b5981856143e7565b9350613b69818560208601614570565b80840191505092915050565b6000613b826032836143d6565b9150613b8d8261474d565b604082019050919050565b6000613ba5602f836143d6565b9150613bb08261479c565b604082019050919050565b6000613bc86026836143d6565b9150613bd3826147eb565b604082019050919050565b6000613beb601c836143d6565b9150613bf68261483a565b602082019050919050565b6000613c0e602c836143d6565b9150613c1982614863565b604082019050919050565b6000613c316024836143d6565b9150613c3c826148b2565b604082019050919050565b6000613c546019836143d6565b9150613c5f82614901565b602082019050919050565b6000613c77603f836143d6565b9150613c828261492a565b604082019050919050565b6000613c9a602c836143d6565b9150613ca582614979565b604082019050919050565b6000613cbd602c836143d6565b9150613cc8826149c8565b604082019050919050565b6000613ce06038836143d6565b9150613ceb82614a17565b604082019050919050565b6000613d03602a836143d6565b9150613d0e82614a66565b604082019050919050565b6000613d266029836143d6565b9150613d3182614ab5565b604082019050919050565b6000613d49602e836143d6565b9150613d5482614b04565b604082019050919050565b6000613d6c6020836143d6565b9150613d7782614b53565b602082019050919050565b6000613d8f602c836143d6565b9150613d9a82614b7c565b604082019050919050565b6000613db2602d836143d6565b9150613dbd82614bcb565b604082019050919050565b6000613dd56020836143d6565b9150613de082614c1a565b602082019050919050565b6000613df86029836143d6565b9150613e0382614c43565b604082019050919050565b6000613e1b602f836143d6565b9150613e2682614c92565b604082019050919050565b6000613e3e6021836143d6565b9150613e4982614ce1565b604082019050919050565b6000613e616026836143d6565b9150613e6c82614d30565b604082019050919050565b6000613e846031836143d6565b9150613e8f82614d7f565b604082019050919050565b6000613ea7603d836143d6565b9150613eb282614dce565b604082019050919050565b6000613eca6030836143d6565b9150613ed582614e1d565b604082019050919050565b613ee981614533565b82525050565b6000613efb8284613acb565b915081905092915050565b6000613f128285613b44565b9150613f1e8284613b44565b91508190509392505050565b6000602082019050613f3f6000830184613a65565b92915050565b6000608082019050613f5a6000830187613a65565b613f676020830186613a65565b613f746040830185613ee0565b8181036060830152613f868184613a92565b905095945050505050565b6000602082019050613fa66000830184613a74565b92915050565b6000608082019050613fc16000830187613afc565b613fce6020830186613ee0565b613fdb6040830185613ee0565b613fe86060830184613a83565b95945050505050565b6000602082019050818103600083015261400b8184613b0b565b905092915050565b6000602082019050818103600083015261402c81613b75565b9050919050565b6000602082019050818103600083015261404c81613b98565b9050919050565b6000602082019050818103600083015261406c81613bbb565b9050919050565b6000602082019050818103600083015261408c81613bde565b9050919050565b600060208201905081810360008301526140ac81613c01565b9050919050565b600060208201905081810360008301526140cc81613c24565b9050919050565b600060208201905081810360008301526140ec81613c47565b9050919050565b6000602082019050818103600083015261410c81613c6a565b9050919050565b6000602082019050818103600083015261412c81613c8d565b9050919050565b6000602082019050818103600083015261414c81613cb0565b9050919050565b6000602082019050818103600083015261416c81613cd3565b9050919050565b6000602082019050818103600083015261418c81613cf6565b9050919050565b600060208201905081810360008301526141ac81613d19565b9050919050565b600060208201905081810360008301526141cc81613d3c565b9050919050565b600060208201905081810360008301526141ec81613d5f565b9050919050565b6000602082019050818103600083015261420c81613d82565b9050919050565b6000602082019050818103600083015261422c81613da5565b9050919050565b6000602082019050818103600083015261424c81613dc8565b9050919050565b6000602082019050818103600083015261426c81613deb565b9050919050565b6000602082019050818103600083015261428c81613e0e565b9050919050565b600060208201905081810360008301526142ac81613e31565b9050919050565b600060208201905081810360008301526142cc81613e54565b9050919050565b600060208201905081810360008301526142ec81613e77565b9050919050565b6000602082019050818103600083015261430c81613e9a565b9050919050565b6000602082019050818103600083015261432c81613ebd565b9050919050565b60006020820190506143486000830184613ee0565b92915050565b6000614358614369565b905061436482826145d5565b919050565b6000604051905090565b600067ffffffffffffffff82111561438e5761438d61470d565b5b6143978261473c565b9050602081019050919050565b600081519050919050565b600081519050919050565b600082825260208201905092915050565b600081905092915050565b600082825260208201905092915050565b600081905092915050565b60006143fd82614533565b915061440883614533565b9250827fffffffffffffffffffffffffffffffffffffffffffffffffffffffffffffffff0382111561443d5761443c614680565b5b828201905092915050565b600061445382614533565b915061445e83614533565b92508261446e5761446d6146af565b5b828204905092915050565b600061448482614533565b915061448f83614533565b9250828210156144a2576144a1614680565b5b828203905092915050565b60006144b882614513565b9050919050565b60008115159050919050565b6000819050919050565b60007fffffffff0000000000000000000000000000000000000000000000000000000082169050919050565b600061450c826144ad565b9050919050565b600073ffffffffffffffffffffffffffffffffffffffff82169050919050565b6000819050919050565b60006145488261454f565b9050919050565b600061455a82614513565b9050919050565b82818337600083830152505050565b60005b8381101561458e578082015181840152602081019050614573565b8381111561459d576000848401525b50505050565b600060028204905060018216806145bb57607f821691505b602082108114156145cf576145ce6146de565b5b50919050565b6145de8261473c565b810181811067ffffffffffffffff821117156145fd576145fc61470d565b5b80604052505050565b600061461182614533565b91507fffffffffffffffffffffffffffffffffffffffffffffffffffffffffffffffff82141561464457614643614680565b5b600182019050919050565b600061465a82614533565b915061466583614533565b925082614675576146746146af565b5b828206905092915050565b7f4e487b7100000000000000000000000000000000000000000000000000000000600052601160045260246000fd5b7f4e487b7100000000000000000000000000000000000000000000000000000000600052601260045260246000fd5b7f4e487b7100000000000000000000000000000000000000000000000000000000600052602260045260246000fd5b7f4e487b7100000000000000000000000000000000000000000000000000000000600052604160045260246000fd5b6000601f19601f8301169050919050565b7f4552433732313a207472616e7366657220746f206e6f6e20455243373231526560008201527f63656976657220696d706c656d656e7465720000000000000000000000000000602082015250565b7f45524331393637557067726164653a207570677261646520627265616b73206660008201527f7572746865722075706772616465730000000000000000000000000000000000602082015250565b7f4f776e61626c653a206e6577206f776e657220697320746865207a65726f206160008201527f6464726573730000000000000000000000000000000000000000000000000000602082015250565b7f4552433732313a20746f6b656e20616c7265616479206d696e74656400000000600082015250565b7f46756e6374696f6e206d7573742062652063616c6c6564207468726f7567682060008201527f64656c656761746563616c6c0000000000000000000000000000000000000000602082015250565b7f4552433732313a207472616e7366657220746f20746865207a65726f2061646460008201527f7265737300000000000000000000000000000000000000000000000000000000602082015250565b7f4552433732313a20617070726f766520746f2063616c6c657200000000000000600082015250565b7f44616e6b20467573696f6e3a20796f7520646f206e6f742068617665206d696e60008201527f74696e672072696768747320666f72207468697320667573696f6e206e667400602082015250565b7f46756e6374696f6e206d7573742062652063616c6c6564207468726f7567682060008201527f6163746976652070726f78790000000000000000000000000000000000000000602082015250565b7f4552433732313a206f70657261746f7220717565727920666f72206e6f6e657860008201527f697374656e7420746f6b656e0000000000000000000000000000000000000000602082015250565b7f4552433732313a20617070726f76652063616c6c6572206973206e6f74206f7760008201527f6e6572206e6f7220617070726f76656420666f7220616c6c0000000000000000602082015250565b7f4552433732313a2062616c616e636520717565727920666f7220746865207a6560008201527f726f206164647265737300000000000000000000000000000000000000000000602082015250565b7f4552433732313a206f776e657220717565727920666f72206e6f6e657869737460008201527f656e7420746f6b656e0000000000000000000000000000000000000000000000602082015250565b7f496e697469616c697a61626c653a20636f6e747261637420697320616c72656160008201527f647920696e697469616c697a6564000000000000000000000000000000000000602082015250565b7f4552433732313a206d696e7420746f20746865207a65726f2061646472657373600082015250565b7f4552433732313a20617070726f76656420717565727920666f72206e6f6e657860008201527f697374656e7420746f6b656e0000000000000000000000000000000000000000602082015250565b7f455243313936373a206e657720696d706c656d656e746174696f6e206973206e60008201527f6f74206120636f6e747261637400000000000000000000000000000000000000602082015250565b7f4f776e61626c653a2063616c6c6572206973206e6f7420746865206f776e6572600082015250565b7f4552433732313a207472616e73666572206f6620746f6b656e2074686174206960008201527f73206e6f74206f776e0000000000000000000000000000000000000000000000602082015250565b7f4552433732314d657461646174613a2055524920717565727920666f72206e6f60008201527f6e6578697374656e7420746f6b656e0000000000000000000000000000000000602082015250565b7f4552433732313a20617070726f76616c20746f2063757272656e74206f776e6560008201527f7200000000000000000000000000000000000000000000000000000000000000602082015250565b7f416464726573733a2064656c65676174652063616c6c20746f206e6f6e2d636f60008201527f6e74726163740000000000000000000000000000000000000000000000000000602082015250565b7f4552433732313a207472616e736665722063616c6c6572206973206e6f74206f60008201527f776e6572206e6f7220617070726f766564000000000000000000000000000000602082015250565b7f44616e6b20467573696f6e3a20796f7520646f206e6f742068617665206d696e60008201527f74696e672072696768747320666f7220746869732064616e6b206e6674000000602082015250565b7f4552433732314275726e61626c653a2063616c6c6572206973206e6f74206f7760008201527f6e6572206e6f7220617070726f76656400000000000000000000000000000000602082015250565b614e75816144ad565b8114614e8057600080fd5b50565b614e8c816144bf565b8114614e9757600080fd5b50565b614ea3816144cb565b8114614eae57600080fd5b50565b614eba816144d5565b8114614ec557600080fd5b50565b614ed181614501565b8114614edc57600080fd5b50565b614ee881614533565b8114614ef357600080fd5b5056fe416464726573733a206c6f772d6c6576656c2064656c65676174652063616c6c206661696c6564a2646970667358221220a29cb884326a5251c69ab7d2196cdbb2a466fedbe9746ffafa81f0b23225ae1a64736f6c63430008020033",
  "linkReferences": {},
  "deployedLinkReferences": {}
}